:100000000C948B010C94BC010C94BC010C94BC01AD
:100010000C94BC010C94BC010C94BC010C94BC016C
:100020000C94BC010C94BC010C94BC010C94BC015C
:100030000C94BC010C94BC010C94BC010C94BC014C
:100040000C94BC010C9474170C94BC010C94BC016E
:100050000C94BC010C94BC010C94BC010C947C1558
:100060000C94BC010C9446150C941C150C94BC010A
:100070000C94BC010C94BC010C94BC010C94BC010C
:100080000C9446170C94BC010C94BC010C94BC015C
:100090000C94BC010C94BC010C94BC010C94C615CE
:1000A0000C94BC010C94BC010C9418170C94BC016A
:1000B0000C94BC010C94BC010C94BC010C94EA1689
:1000C0000C94BC010C94BC010C94BC010C94BC01BC
:1000D0000C94BC010C94BC010C94BC010C94BC01AC
:1000E0000C94BC010C94770B0C94E00A0C94EC0972
:1000F0000C94DB0A0C9468040C94670F0C94640451
:100100000C94310B0C94CD060C9423070C94300FF7
:100110000C941D0B0C9421090C9452070C94130B96
:100120000C9421030C9429040C94B4030C94030B39
:100130000C94D10B0C94EF0A0C9463040C94CB0632
:100140000C94F6060C94D1020C9448040C940B0BFE
:100150000C9467030C9438040C942D040C945004F4
:100160000C94D80E0C94050F0C94F00E0C94DC0635
:100170000C94E40E0C944A0B0C94FF0F0C94540B4B
:100180000C942C0E0C94FE020C94160F0C94400B45
:100190000C94F90A0C94A2170C94EF060C94C70E59
:1001A0000C944C040C94CA060C9423040C9456042E
:1001B0000C942F030C94820F0C9431040C943E0485
:1001C0000C94730F0C94720B0C945A040C94E50A63
:1001D0000C94CC060C940D030C9442040C945E0B0E
:1001E0000C94F4080C9435040C94270B0C945E04C6
:1001F0000C94680B00002100240027002A002D0029
:100200003000330001010000040107010A01000071
:100210002200250028002B002E00310034000201AE
:100220000000050108010B0100002000230026004A
:1002300029002C002F0032000001000003010601FC
:10024000090105050505070508080808020202025C
:100250000A0A080804040404010101010101010162
:100260000303030303030303040707070C0C0C0C2D
:100270000C0C0C0C02020202060606060606060616
:100280000B0B0B0B0B0B0B0B0102102020080810A3
:1002900020401020408002010201080402010102F6
:1002A00004081020408080402010080402018004CF
:1002B000020180402010080402010804020101022A
:1002C0000408102040800102040810204080000033
:1002D0000A0B02090C0D0E080703040100000000C0
:1002E000000000000000000000000000000000000E
:1002F00000000000000000000000121110000000CB
:1003000000000000000000000000000000000000ED
:1003100000000000A21711241FBECFEFD1E2DEBF04
:10032000CDBF00E00CBF13E0A0E0B2E0EAE6FFE3DF
:1003300000E00BBF02C007900D92AA31B107D9F7B8
:1003400028E0AAE1B3E001C01D92AF34B207E1F7A3
:1003500011E0CBE8D1E000E006C021970109802F31
:10036000FE010E94551ECA38D10780E00807A9F790
:100370000E942C180C94B31F0C9400000F931F9331
:10038000CF93DF93EC010BE117E0D8018D919C91A5
:100390006C2F6F77DC01ED91FC910190F081E02DE5
:1003A0001995F80180819181CC0FCD2FCC1FDD0BE9
:1003B0006C2F6F77DC01ED91FC910190F081E02DC5
:1003C000DF91CF911F910F91199480911B0790910C
:1003D0001C07DC01ED91FC910190F081E02D60EFB4
:1003E000199480911B0790911C07DC01ED91FC9101
:1003F0000190F081E02D67EF1994CF93DF930E9475
:10040000E50180911B0790911C07DC01ED91FC91A7
:100410000190F081E02D69E7199580911B0790917B
:100420001C07A0911E07B0911F07EC01E881F9811C
:100430000190F081E02D6C91199580911B079091AE
:100440001C07A0911E07B0911F07EC01E881F981FC
:100450000190F081E02D11966C911995C2E0809188
:100460001D07C81760F4E0911E07F0911F07EC0FFD
:10047000F11D808190E00E94BE01CF5FF0CFDF913F
:10048000CF910C94F101CF93DF93CBE1D7E088813A
:100490009981DC01ED91FC910190F081E02D69EFF3
:1004A000199588819981DC01ED91FC910190F08191
:1004B000E02D62E0199588819981DC01ED91FC9134
:1004C0000190F081E02D65E0DF91CF911994CF93F9
:1004D000DF93EB01A0911B07B0911C078F70682F71
:1004E000606EED91FC9111970190F081E02DCD01AE
:1004F0001995CE01DF91CF910C94BE01FF920F931D
:100500001F93CF93DF93C82F062FF42E152F0E9431
:10051000E50180911B0790911C07DC01ED91FC9196
:100520000190F081E02D6C2F1995CF2DD12F0C0F5C
:100530001D2F111DC017D10729F0899190E00E944D
:10054000BE01F8CFDF91CF911F910F91FF900C94D6
:10055000F101A0911B07B0911C07ED91FC9111973F
:100560000190F081E02D682FCD01199410922007A1
:100570001092210710922207E3E2F7E0119287E040
:10058000E336F807D9F710926307109265071092C7
:100590006407E0914408F0914508309709F01994F8
:1005A0000895AF92BF92CF92DF92EF92FF920F9396
:1005B0001F93CF93DF936C017B018B01040F151FF9
:1005C000EB015E01AE18BF08C017D10759F0699161
:1005D000D601ED91FC910190F081E02DC6011995B5
:1005E000892B79F7C501DF91CF911F910F91FF9072
:1005F000EF90DF90CF90BF90AF900895FC01538DA6
:10060000448D252F30E0842F90E0821B930B5417EC
:1006100010F0CF96089501970895FC01918D828D79
:10062000981761F0A28DAE0FBF2FB11D5D968C9112
:10063000928D9F5F9F73928F90E008958FEF9FEF51
:100640000895FC01918D828D981731F0828DE80F0D
:10065000F11D858D90E008958FEF9FEF0895FC01C7
:10066000918D228D892F90E0805C9F4F821B910994
:100670008F739927089589E095E00E942F0321E068
:10068000892B09F420E0822F0895FC01A48DA80F86
:10069000B92FB11DA35ABF4F2C91848D90E00196C4
:1006A0008F739927848FA689B7892C93A089B189E4
:1006B0008C91837080648C93938D848D981306C085
:1006C0000288F389E02D80818F7D80830895EF92E9
:1006D000FF920F931F93CF93DF93EC0181E0888FFC
:1006E0009B8D8C8D98131AC0E889F989808185FFCC
:1006F00015C09FB7F894EE89FF896083E889F9896E
:1007000080818370806480839FBF81E090E0DF916F
:10071000CF911F910F91FF90EF900895F62E0B8DC2
:1007200010E00F5F1F4F0F731127E02E8C8D8E117D
:100730000CC00FB607FCFACFE889F989808185FFE4
:10074000F5CFCE010E944503F1CFEB8DEC0FFD2FCD
:10075000F11DE35AFF4FF0829FB7F8940B8FEA899F
:10076000FB8980818062CFCFCF93DF93EC01888DAE
:100770008823B9F0AA89BB89E889F9898C9185FD1C
:1007800003C0808186FD0DC00FB607FCF7CF8C91AA
:1007900085FFF2CF808185FFEDCFCE010E9445031A
:1007A000E9CFDF91CF91089580E090E0892B29F087
:1007B0000E943B0381110E94000080E090E0892BA1
:1007C00049F080E090E0892B29F00E94000081111F
:1007D0000E94000080E090E0892B49F080E090E0EA
:1007E000892B29F00E94000081110E94000080E006
:1007F00090E0892B49F080E090E0892B29F00E945D
:10080000000081110C94000008958150823108F09D
:100810005AC0E82FF0E08827EF5EFB4F8F4F0C9413
:10082000551E31043504230429042D0463043804BF
:100830003E04420448044C04500456045A04630421
:100840005E0464046804809180008F778093800048
:100850000895809180008F7DF9CF80918000877FFF
:10086000F5CF84B58F7784BD089584B58F7DFBCF98
:100870008091B0008F778093B00008958091B00090
:100880008F7DF9CF809190008F77809390000895AD
:10089000809190008F7DF9CF80919000877FF5CF78
:1008A0008091A0008F778093A00008958091A00090
:1008B0008F7DF9CF8091A000877FF5CF80912001B7
:1008C0008F77809320010895809120018F7DF9CF4B
:1008D00080912001877FF5CFCF93DF93282F30E0E1
:1008E000F901E253FD4F8491F901E857FD4FD4918E
:1008F000F901EE5BFD4FC491CC23A1F081110E9460
:100900000504EC2FF0E0EE0FFF1FE85DFD4FA59111
:10091000B491EC91ED2381E090E009F480E0DF9167
:10092000CF91089580E090E0FACF1F93CF93DF93AB
:10093000282F30E0F901E253FD4F8491F901E85787
:10094000FD4FD491F901EE5BFD4FC491CC23A9F08A
:10095000162F81110E940504EC2FF0E0EE0FFF1F0F
:10096000E25FFD4FA591B4918FB7F894EC9111110E
:1009700008C0D095DE23DC938FBFDF91CF911F910C
:100980000895DE2BF8CFCF93DF9390E0FC01E8577A
:10099000FD4F24918E5B9D4FFC0184918823C9F00B
:1009A00090E0880F991FFC01EC50FE4FA591B49187
:1009B000FC01E25FFD4FC591D49161110DC09FB75D
:1009C000F8948C91209582238C9388812823288306
:1009D0009FBFDF91CF910895623051F49FB7F89493
:1009E0003C91822F809583238C93E8812E2BEFCF2F
:1009F0008FB7F894EC912E2B2C938FBFEACF8633D0
:100A000008F0865320917B00982F9870277F922BB7
:100A100090937B008770806480937C0080917A0043
:100A2000806480937A0080917A0086FDFCCF80916B
:100A300078009091790008953FB7F89480917104FF
:100A400090917204A0917304B091740426B5A89B90
:100A500005C02F3F19F00196A11DB11D3FBFBA2F50
:100A6000A92F982F8827BC01CD01620F711D811D10
:100A7000911D42E0660F771F881F991F4A95D1F795
:100A800008958F929F92AF92BF92CF92DF92EF9292
:100A9000FF926B017C010E941C054B015C01C1149B
:100AA000D104E104F104B9F00E941C056819790928
:100AB0008A099B09683E73408105910580F321E016
:100AC000C21AD108E108F10888EE880E83E0981E6A
:100AD000A11CB11CE4CFFF90EF90DF90CF90BF90AE
:100AE000AF909F908F90089520914B04260F33274D
:100AF000331F21323105ECF42091DF04FC0190E03A
:100B000080E0243069F082E00895A0914B042191A7
:100B1000AC01475D5B4FA40FB52FB11D2C9301961F
:100B2000861798F380914B04680F60934B0480E024
:100B3000089581E008951092DF0481E08093DE043F
:100B40001092B90461E084E10E94950461E085E1BE
:100B50000E949504E9EBF0E080818E7F80838081A4
:100B60008D7F808388E48093B80085E48093BC0007
:100B70000895CF93DF9391E0909328048823B9F0F0
:100B8000C091B800D091BA008091BC008A7B80935C
:100B9000BC0060E084E10E94950460E085E10E9471
:100BA00095040E949B05D093BA00C093B800DF91D2
:100BB000CF9108958F929F92AF92BF92CF92DF9282
:100BC000EF92FF920F931F93CF93DF93D09108057D
:100BD000D13208F0D7C0182FC09107050E941C051C
:100BE0006B017C018091DF0481116BC082E08093F6
:100BF000DF041093DE048FEF8093DD041092DC0499
:100C0000D093DB04A7EEB4E0EBEBF4E080E0D81384
:100C100091C01092BA048091BA04CC0FC82BC09333
:100C2000BA048091B904813009F088C01092B904E7
:100C30000E941C056B017C018091BA048093BB006B
:100C40008091E1049091E204A091E304B091E40466
:100C5000892B8A2B8B2BA1F00E941C050091E104AB
:100C60001091E2042091E3043091E4046C197D09B1
:100C70008E099F09061717072807390708F442C08D
:100C80008091BC0083FDD8CF85EC8093BC000E948E
:100C90001C056B017C018091DF04823009F450C097
:100CA0008091DD048F3F09F46FC08091DD048032B4
:100CB00009F46CC08091DD04803309F469C084E0DC
:100CC00026C08091E1049091E204A091E304B091E8
:100CD000E404892B8A2B8B2B09F484CF0E941C05FA
:100CE0008090E1049090E204A090E304B090E404CA
:100CF0006C197D098E099F0986169706A806B90604
:100D000008F070CF8091E0040E94B90585E0109250
:100D1000E604109208051092E504DF91CF911F912F
:100D20000F91FF90EF90DF90CF90BF90AF909F908A
:100D30008F9008959D9191938F5F69CF85EEA5CF98
:100D40008091E1049091E204A091E304B091E40465
:100D5000892B8A2B8B2B09F49ECF0E941C050091B6
:100D6000E1041091E2042091E3043091E4046C1951
:100D70007D098E099F09061717072807390708F00C
:100D80008ACFC0CF81E0C3CF80E0C1CF82E0BFCFA8
:100D900083E0BDCF089508950895E09127048091E0
:100DA0002604E81730F4F0E0EA5FFB4F808190E022
:100DB00008958FEF9FEF0895909127048091260466
:100DC0002FEF3FEF981748F4E92FF0E0EA5FFB4F71
:100DD000208130E09F5F90932704C901089580919E
:100DE000260490912704891B990B0895CF92DF92D6
:100DF000EF92FF920F931F93CF93DF937C01CB0170
:100E00008A012091E504222389F0EB016B01C40ED5
:100E1000D51ECC15DD0569F06991D701ED91FC91E6
:100E20000190F081E02DC7011995F3CF642F0E9446
:100E30007405C801DF91CF911F910F91FF90EF9042
:100E4000DF90CF900895CF93DF931F92CDB7DEB799
:100E500069832091E5042223F9F0209108052032CE
:100E600058F021E030E0FC013383228390E080E001
:100E70000F90DF91CF9108958091E604E82FF0E084
:100E8000E951FB4F998190838F5F8093E6048093B3
:100E9000080581E090E0ECCF61E0CE0101960E9470
:100EA0007405F7CF90E080E00895DF92EF92FF9213
:100EB0000F931F93CF93DF93EC01D62E7A01890114
:100EC0008881803308F067C061E08D2D0E94C304E3
:100ED0008881282F30E0F901EE0FFF1FE20FF31F8A
:100EE000E650FA4F9D2D9F736081607C692B608373
:100EF00020E232E02E193F0937FF02C02D5F3F4F3D
:100F00003595279535952795298320E639E0201BCF
:100F1000310B37FF02C02D5F3F4F35952795359533
:100F200027952A832CE0622F0E94491E829FB001E0
:100F3000112430E020E0AB01420F531FFA01EE0F05
:100F4000FF1FE40FF51FE650FA4F908196FD16C083
:100F50002F5F3F4F2C30310571F7813029F510920A
:100F6000800082E0809381001092850010928400BE
:100F7000B19A80916F00826080936F00E8818E2F1C
:100F800090E0FC01EE0FFF1FE80FF91FE650FA4F4B
:100F90008081806480838881DF91CF911F910F9140
:100FA000FF90EF90DF900895823061F410929000EE
:100FB00080939100109295001092940088BB8093CA
:100FC0007100DCCF833069F41092A00082E080933E
:100FD000A1001092A5001092A40089BB809372001A
:100FE000CDCF8111CBCF1092200182E080932101DF
:100FF00010922501109224018ABB80937300BECF0A
:10100000AF92BF92CF92DF92EF92FF920F931F9316
:10101000CF93DF936B017A01EC01CE5FDB4F288128
:101020003CE0389F8001399F100D1124A0908A0662
:10103000B12C27FF1FC0FB011182108288818F5FB6
:10104000888388819801280F311D87FD3A95F60124
:101050002A153B051CF488818C30C4F18081918174
:10106000049680349C4908F473C0F6018081918114
:10107000049670C088819801280F311D87FD3A952C
:101080002A153B05DCF68881A801480F511D87FD14
:101090005A95FA01EE0FFF1FE40FF51FE650FA4FC5
:1010A000808186FFCBCF8881F801E80FF11D87FD95
:1010B000FA95CF01EE0FFF1FE80FF91FE650FA4F28
:1010C000808160E08F730E949504B8CF8081918108
:1010D0002881A801420F511D27FD5A959A01FA0156
:1010E000EE0FFF1FE20FF31FE650FA4F218132810E
:1010F000820F931FF7019183808388819801280FC5
:10110000311D87FD3A95F901EE0FFF1FE20FF31F26
:10111000E650FA4F808186FF22C08881080F111D9A
:1011200087FD1A95F801EE0FFF1FE00FF11FE65043
:10113000FA4F808161E08F73DF91CF911F910F9102
:10114000FF90EF90DF90CF90BF90AF900C949504FC
:1011500080E49CE9F701918380838FEF8883DF919E
:10116000CF911F910F91FF90EF90DF90CF90BF90A4
:10117000AF900895209100043091010482179307E5
:10118000F8F49C01220F331F280F391F8091FE03B2
:101190009091FF03E091FD03820F931FE80FF92F59
:1011A000F11D6083E091FC03E80FF92FF11D5083DE
:1011B0002091FB03820F911DFC01408380E0089584
:1011C00081E008951092FA03109201041092000435
:1011D000EAEEF3E0A2EEB3E0119211921D9283E0E9
:1011E000EA3FF807C9F70895CF938031B0F421E0C2
:1011F00030E0082E02C0220F331F0A94E2F740911C
:10120000B3045091B404672B51F4209530952423F6
:1012100035233093B4042093B304CF910895242B45
:10122000352B3093B4042093B3049091E1039111D2
:10123000F4CFC82F0E94FF04BC018C2FCF910C94D7
:1012400067024F925F926F927F928F929F92AF92BE
:10125000BF92CF92DF92EF92FF920F931F93CF93A3
:10126000DF93893008F0A7C08F5FC82FCC0FCC0F59
:10127000CC0F4C2EC73410F056E4452ED62F38EF45
:10128000532E5C0E852C912CC401880F991F9C0154
:10129000255E384F5901052DD12CC12C10E0772443
:1012A00073940415C8F58EEF800F8434F8F4F601BA
:1012B000E80DF91DEA59F84F90819230B8F4872D66
:1012C0008D2366246394811101C0612C7601EE0C9C
:1012D000FF1C913089F4172931E9E30EF11CF50167
:1012E000EE0DFF1D862D90E091838083770C0F5FBC
:1012F0008FEFC81AD80AD5CF882371F3F701EF56BC
:10130000FF4FEA0DFB1D80819181019729F362E077
:10131000802F0E94C304E0CF10FF05C06D2F6170C5
:10132000852D0E94950411FF06C06D2F627089EF14
:101330008C0F0E94950412FF06C06D2F64708AEF17
:101340008C0F0E94950413FF06C06D2F68708BEF01
:101350008C0F0E94950414FF06C06D2F60718CEFF6
:101360008C0F0E94950415FF06C06D2F60728DEFE3
:101370008C0F0E94950416FF06C06D2F60748EEFCF
:101380008C0F0E94950417FF16C06D2F60788FEFA9
:101390008C0FDF91CF911F910F91FF90EF90DF9015
:1013A000CF90BF90AF909F908F907F906F905F9005
:1013B0004F900C949504DF91CF911F910F91FF9066
:1013C000EF90DF90CF90BF90AF909F908F907F90E5
:1013D0006F905F904F9008958F929F92AF92BF92BF
:1013E000CF92DF92EF92FF920F931F93CF93DF93F1
:1013F000EB01863408F098C0082F10E0F801EA5994
:10140000F84F9081933009F49CC0943009F08CC05F
:101410008250843408F081C0F801EF56FC4FC08040
:10142000D12C7601EE0CFF1C4B01603282E0780774
:101430000CF03EC0F701EC0DFD1DE557F94F818121
:10144000A8E88A2E912C881A910887FD9394880C1D
:10145000991C880C991C092C000CAA08BB088281D5
:1014600028E532E0281B310987FD3395220F331F11
:10147000220F331F032E000C440B550B281939097A
:101480004A095B09DB01653B710514F0A4EBB0E090
:10149000B7FF02C0B0E0A0E00E94101E24EB30E0D5
:1014A00040E050E00E94E61D820E931EA41EB51E71
:1014B000F701EC0DFD1DE557F94F2081203368F54C
:1014C000318188E890E0831B910937FD9395880F5F
:1014D000991F880F991F881699067CF0328188E53C
:1014E00092E0831B910937FD9395880F991F880F10
:1014F000991F881699060CF4C4010297880F991F4A
:101500004FB7F89430E0F901EE0FFF1FE20FF31F21
:10151000E650FA4F928381834FBF000F111FF801ED
:10152000E455F84FD183C083DF91CF911F910F9184
:10153000FF90EF90DF90CF90BF90AF909F908F90F3
:101540000895F82E8EEF800F8C3020F084ED800F00
:10155000833018F761E08F2D0E94C304209729F48F
:1015600060E08F2D0E949504D8CFCF3FD10511F4B4
:1015700061E0F7CFF801E253FD4FE491E150E23131
:1015800008F0B0C0F0E08827E753F54F8F4F0C9478
:10159000551EDB0AE00AE50AEF0AF90A720B030B93
:1015A0000B0B130B1D0B270B310B400B4A0B720B54
:1015B000540B5E0B680B84B5806884BDC7BDADCF8E
:1015C00084B5806284BDC8BDA8CF8091800080684A
:1015D00080938000D0938900C09388009ECF809133
:1015E0008000806280938000D0938B00C0938A003B
:1015F00094CF80918000886080938000D0938D008C
:10160000C0938C008ACF8091B00080688093B00036
:10161000C093B30082CF8091B00080628093B0000D
:10162000C093B4007ACF809190008068809390003E
:10163000D0939900C093980070CF80919000806201
:1016400080939000D0939B00C0939A0066CF8091C6
:101650009000886080939000D0939D00C0939C0080
:101660005CCF8091A00080688093A0008091A00052
:101670008F7B8093A000D093A900C093A8004DCF8A
:101680008091A00080628093A000D093AB00C093B3
:10169000AA0043CF8091A00088608093A000D093DF
:1016A000AD00C093AC0039CF809120018068809359
:1016B0002001D0932901C09328012FCF80912001D0
:1016C000806280932001D0932B01C0932A0125CF03
:1016D00080912001886080932001D0932D01C093D8
:1016E0002C011BCFC038D1050CF042CF39CF9EEF73
:1016F000980F943480F4E82FF0E0DF01AA59B84F36
:101700009C91913041F4EE0FFF1FE455F84F608338
:1017100071830C94950408950F931F93CF93082F12
:1017200010E0F801EB58FB4F9081C62FC9230952F6
:101730001C4F411104C0D8019C919C1771F1682F76
:1017400080911B0790911C076F706069DC01ED911F
:10175000FC910190F081E02D199580911B079091EB
:101760001C076C2F6F77DC01ED91FC910190F081EB
:10177000E02D199580911B0790911C076C2F70E04C
:10178000660F672F661F770BDC01ED91FC910190CE
:10179000F081E02D1995F801C083CF911F910F9131
:1017A00008950F931F93CF93DF93893008F071C092
:1017B000282F30E0F901E258FB4F6083672B09F4D2
:1017C00068C0082F2B583B4FF9011081D82FDD0F2F
:1017D000DD0FDD0F8EEF8D0F843450F4C12FC170FB
:1017E00010FF07C08D2F0E946C04C1E0892B09F403
:1017F000C0E08FEF8D0F843448F411FF07C081E003
:101800008D0F0E946C04892B09F0C26012FF07C083
:1018100082E08D0F0E946C04892B09F0C46013FFD5
:1018200007C083E08D0F0E946C04892B09F0C8600B
:1018300014FF07C084E08D0F0E946C04892B09F00F
:10184000C06115FF07C085E08D0F0E946C04892BD5
:1018500009F0C062D034A1F016FF07C086E08D0FFA
:101860000E946C04892B09F0C064DF3349F017FF34
:1018700007C087E08D0F0E946C04892B09F0C068B7
:1018800041E06C2F802FDF91CF911F910F910C942D
:101890008C0BDF91CF911F910F910895A82FB0E08D
:1018A000AF56BC4F9C91292F30E0F901EE0FFF1F7E
:1018B000E20FF31FE557F94FE0812E2F30E0F901D9
:1018C000EE0FFF1FE20FF31FE650FA4F80818F7B70
:1018D000808380918F03981308C0992319F0915049
:1018E00090938F038FEF8C9308958823D9F3E09121
:1018F0009003EF5FE0939003F0E0E75EFC4F90838E
:10190000F1CFDC0170E0FB01E857FD4FE491189640
:10191000EC9318976E5B7D4FFB018491E82FF0E00C
:10192000EE0FFF1FE25FFD4F8591949115969C93FA
:101930008E931497FB016491E62FF0E0EE0FFF1FEA
:10194000EC50FE4F8591949117969C938E93169729
:101950000895FC0101900020E9F73197BF01681B51
:10196000790BAC0181E70C947E024F925F926F92EB
:101970007F928F929F92AF92BF92DF92EF92FF92EF
:101980000F931F93CF93DF93D82E8B01D42FC22FA9
:101990006F3F760709F490C081E08093E504D09210
:1019A00007051092E6041092080586EA95E00E9469
:1019B00023078C2F0E94DA0580918D0390918E036E
:1019C0008230910538F0880F991F880F991F05976D
:1019D0000197F1F70E941C054B015C018091DF0427
:1019E00081116CC0CD2FD13208F0C0E281E080932C
:1019F000DF048093DE049FEF9093DD041092DC04FB
:101A00009C0F9093DB048093BA049091BA048D2DBF
:101A1000880F892B8093BA048091B904813009F032
:101A20009EC01092B9040E941C054B015C0180917C
:101A3000BA048093BB008091E1049091E204A091EC
:101A4000E304B091E404892B8A2B8B2BA1F00E9434
:101A50001C054090E1045090E2046090E304709013
:101A6000E404681979098A099B094616570668062D
:101A7000790608F444C08091BC0083FDD8CF85EC82
:101A80008093BC000E941C054B015C018091DF0427
:101A9000813009F466C08091DC048C1710F4C09189
:101AA000DC04ABEBB4E0E6E0F4E080E08C1761F13D
:101AB0009D9191938F5FFACF00E08CCF8091E104EC
:101AC0009091E204A091E304B091E404892B8A2B65
:101AD0008B2B09F483CF0E941C054090E1045090A9
:101AE000E2046090E3047090E404681979098A09BB
:101AF0009B09461657066806790608F06FCF809155
:101B0000E0040E94B905C0E010922704C0932604A7
:101B1000ED2EF12C8C2F90E0E816F9060CF043C066
:101B20008DE292E00E94A90CD0924A0300934B03ED
:101B30000AE413E0C8018A5493408E159F05D4F53A
:101B40000F5F1F4F9091260480912704981791F101
:101B500086EA95E00E94DC06F8018183EBCF85EEF2
:101B60008FCF8091E1049091E204A091E304B091C1
:101B7000E404892B8A2B8B2B09F488CF0E941C0547
:101B80004090E1045090E2046090E3047090E4041B
:101B9000681979098A099B09461657066806790665
:101BA00008F074CFACCF8E159F050CF0BDCF8AE442
:101BB00092E0B8CF62E06D0F4AE453E087E7DF912F
:101BC000CF911F910F91FF90EF90DF90BF90AF905A
:101BD0009F908F907F906F905F904F900C947E02BB
:101BE000CF93DF93DB0190918F03903378F53091A1
:101BF0009003682F70E0FB01EF56FC4F3323E1F0B8
:101C0000C32FD0E0C75EDC4F888180833150309392
:101C10009003808123E0829FC00111248557994F52
:101C20001A161B0674F4141615065CF49A01AD011D
:101C3000DF91CF910C94550790839F5F90938F0312
:101C4000E8CF20E639E040E252E0F2CF86E692E0CB
:101C5000DF91CF910C94A90C8F929F92BF92CF925B
:101C6000DF92EF92FF920F931F93CF93DF93C82ED3
:101C7000D12CE601C55ED84FFE01E55BFF4F908198
:101C80009F3709F4A1C0963061F49091E003992345
:101C900041F06630710529F01092E0039FEF9093B8
:101CA00000027B01182F0EEF080F043408F5643092
:101CB0007105F1F0F601EF56FC4F80818033C0F4DE
:101CC00090E0FC01EE0FFF1FE80FF91FE557F94FF9
:101CD000E0818E2F90E0FC01EE0FFF1FE80FF91F4F
:101CE000E650FA4F808186FF03C0812F0E944E0C80
:101CF0005AECB52EB10E8FE08B1558F061E070E014
:101D000032E0E316F10411F070E060E08B2D0E94E8
:101D1000F4080434C8F4E12FE695E695E695F0E082
:101D2000EB58FB4F2081312F377081E090E001C0EC
:101D3000880F3A95EAF7E114F10421F03BE0E3164D
:101D4000F10411F5822B80834601880C991CF40163
:101D5000E455F84F118210828CE0E816F10408F087
:101D6000C2C0F7018827E854F14F8F4F0C94551EDD
:101D7000D80E050FC70E160F300F730F670F730FB6
:101D8000730F730FE40EF00E80958223DCCF3FE0DB
:101D90003B15D0F0043420F460E0812F0E94C3048E
:101DA000C55BDF4F88818F3779F082E088830CC074
:101DB000043450F460E0812F0E94C304C55BDF4F00
:101DC00088818F3709F01882DF91CF911F910F9191
:101DD000FF90EF90DF90CF90BF909F908F900895ED
:101DE000043490F762E0812F0E94C304C55BDF4F8B
:101DF00088818F3711F08BE08883F401E455F84F28
:101E000081E090E091838083DFCF0434E8F660E0E6
:101E1000812F0E94950461E0812F0E94C304C55B5D
:101E2000DF4F88818F3781F281E0C0CF0C3020F006
:101E300084ED810F833040F661E0812F0E94C3045E
:101E400061E0812F0E94C30460E0812F0E9495040D
:101E5000C55BDF4F88818F3709F4B6CF83E0A6CF0B
:101E6000043408F0B1CFC55BDF4F88818F3711F0A4
:101E700084E08883F601EF56FC4F80818F3FA9F004
:101E800090E0FC01EE0FFF1FE80FF91FE557F94F37
:101E9000E0818E2F90E0FC01EE0FFF1FE80FF91F8D
:101EA000E650FA4F808186FD8FCF4FEF5FEF6FEFE7
:101EB0007FEF812FDF91CF911F910F91FF90EF90D6
:101EC000DF90CF90BF909F908F900C94F00D1451A5
:101ED000123008F079CFC55BDF4F88818F3709F466
:101EE00073CF86E063CF8AE792E0DF91CF911F91B5
:101EF0000F91FF90EF90DF90CF90BF909F908F90C9
:101F00000C94A90C0F931F93CF93DF9381E08093E0
:101F1000E1038091E003882329F01092E0038FEF22
:101F200080930002EEE7F4E0C5E7D4E0A7EDB3E06C
:101F3000119219921D9284E0E738F807C9F701E978
:101F400013E0C0E0DFEF8AEC8C0F62E070E08031DC
:101F500030F08EEF8C0F843428F461E070E08C2F29
:101F60000E942C0EF801D1938F01CF5FC63459F730
:101F70001092B4041092B3041092900310928F0345
:101F80001092E103DF91CF911F910F91089585ED9C
:101F90008093BC008091E1049091E204A091E3045D
:101FA000B091E4040796A11DB11D23E0B695A79555
:101FB000979587952A95D1F72091BC0024FD03C001
:101FC0001092DF0408954091E1045091E204609181
:101FD000E3047091E404452B462B472B69F30097EB
:101FE000A105B10541F025E32A95F1F7000001971D
:101FF000A109B109E1CF8091E0040C94B9056F9279
:102000007F928F929F92AF92BF92CF92DF92EF9288
:10201000FF920F931F93CF93DF93EA018F3609F45A
:10202000F7C1162F803708F05CC0893609F480C2EA
:1020300090F4813509F48DC2DF91CF911F910F91FA
:10204000FF90EF90DF90CF90BF90AF909F908F90D8
:102050007F906F9008958B3609F405C28D3661F735
:10206000662351F3C88180EF0E94A9028EE60E9488
:10207000A9028C2F0E94A902C63408F023C2D0E026
:10208000FE01EA59F84F80810E94A902CC0FDD1FA2
:102090008E010455184FF80180818F770E94A902A4
:1020A000F801808191819C012078232B39F0880FE1
:1020B000892F881F990B8F770E94A902C455D84F8A
:1020C000888199819C012227307C232B09F4FAC155
:1020D000990F880B990F982F881F8F770E94A9025C
:1020E000F1C1863709F46DC008F051C0803709F09E
:1020F000A3CF653008F4A0CF18818EEF810F843410
:1021000008F09ACF0981EA80FB80CC81E12FF0E0D2
:10211000EF56FC4F80818033C0F490E0FC01EE0F5D
:10212000FF1FE80FF91FE557F94FE0818E2F90E070
:10213000FC01EE0FFF1FE80FF91FE650FA4F8081F8
:1021400086FF03C0812F0E944E0C60E8C69FA0014D
:1021500011244F0D511D80E8E89EB0011124600F3D
:10216000711D812F0E94F00D64E070E0812FDF91DE
:10217000CF911F910F91FF90EF90DF90CF90BF9084
:10218000AF909F908F907F906F900C942C0E88371B
:1021900009F401C18A3709F04FCF623008F44CCFFF
:1021A000898190E8899F900111248881820F932F63
:1021B000911D009709F429C19093020280930102B6
:1021C0003BCF998195FF12C08BE892E0DF91CF91D0
:1021D0001F910F91FF90EF90DF90CF90BF90AF9045
:1021E0009F908F907F906F900C94A90C888131E024
:1021F00096FB222720F923279871983099F1E0F473
:1022000091111ACF3093E504809307051092E604EC
:102210001092080502E00117E8F4FE01E00FF11D3D
:1022200061816795662767958081680F86EA95E0EA
:102230000E9423070E5FEFCF9031D9F1983109F05A
:10224000FBCE2091000212160CF460C08FEF809339
:102250000002F2CE81E00E94DA0583E191E001976D
:10226000F1F7EACE9A814B816630E1F430E8439F82
:10227000B0011124690F711D4D8147954427479581
:102280009C81490FDF91CF911F910F91FF90EF90AB
:10229000DF90CF90BF90AF909F908F907F906F9086
:1022A0000C94B50C479544274795490F6FEF7FEF86
:1022B000E9CFE0910002E7301CF08BEA92E086CF94
:1022C0003A819B816630D9F460E8969FA001112481
:1022D000430F511D9D819795992797953C81930FA9
:1022E000EF5FE093000235E0E302F0011124E557CF
:1022F000FB4F808352834183938324839DCE9795A4
:1023000099279795930F4FEF5FEFEACF90E0622FF9
:10231000022E000C770B35E0492F50E0641775074B
:1023200064F0349FF001359FF00D1124E557FB4F09
:102330004081481719F09F5FEFCF90E085E0492F6B
:1023400050E0641775071CF19830F8F4FA013196E3
:102350008E9FD0018F9FB00D1124A557BB4F3C918C
:10236000849FF001859FF00D1124E557FB4F3083CA
:1023700011964D915C9112975283418313963C9133
:102380001397338314963C9134839F5FD8CF2150A9
:102390002093000251CE898140E8849F900111244E
:1023A0008881820F932F911D009721F090938E03C7
:1023B00080938D038091E00381113ECEC0E08CEECE
:1023C0008C0F823028F466E070E08C2F0E942C0E77
:1023D000CF5FC634A1F781E08093E0031092270419
:1023E000109226041092E604109208050E949B05A4
:1023F0008AEC96E090934A04809349048BEC96E033
:1024000090934E0480934D0417CE81E090E0D4CE9B
:10241000623008F411CE898190E0623091F02A8117
:10242000E0E82E9F90011124822B932B633049F01A
:102430002B8130E030E4239F302D22271124822B82
:10244000932BBC018881DF91CF911F910F91FF9059
:10245000EF90DF90CF90BF90AF909F908F907F9044
:102460006F900C94EC0980EF0E94A9028CE60E9408
:10247000A902CEEF8CEC8C0F803108F04FC082E0C7
:102480000E94A9028AE00E94A90286ED8C0F833087
:1024900008F447C0C43430F484E00E94A9028EE0FE
:1024A0000E94A9028EEE8C0F823030F486E00E94EA
:1024B000A90281E00E94A9028FE70E94A902CF5FD2
:1024C000C43489F487EFDF91CF911F910F91FF9072
:1024D000EF90DF90CF90BF90AF909F908F907F90C4
:1024E0006F900C94A902C43428F680E00E94A902DF
:1024F00081E00E94A9028BE00E94A90281E00E9473
:10250000A90281E00E94A90281E00E94A90281E55E
:102510000E94A90281E00E94A902ACCFCC3008F051
:10252000B4CF83E00E94A90288E00E94A902B2CF42
:1025300080EF0E94A9028AE60E94A902CAEC8FE7F6
:10254000C03108F48C2F0E94A902CF5FC031B9F7C7
:10255000B9CF662309F470CD9881892F8F708330AD
:1025600009F43EC108F064C0813009F48EC18230A4
:1025700009F062CD80918C0381115ECD80918B0337
:1025800081115ACD81E080938C0380E019E0909115
:10259000FA03891708F0B4C0282F30E0B9016E5152
:1025A0007C4FFB019081992309F4A6C0E091FE03C2
:1025B000F091FF03129FE001139FD00D1124CE5420
:1025C000DA4FAE81BF819C912885922B9C93AC8180
:1025D000BD81988528813981A901440F551F420F7B
:1025E000531F0A80DB81C02D9E01220F331F2C0F49
:1025F0003D1FE20FF31F3C91292F20952323932B9E
:102600003FB7F8944E0F5F1F4E175F0709F472C073
:10261000C191D8E09C9300C0C7FF2C93CC0F00C0A1
:1026200000C000C008F42C9300C0DA9599F7ECCFF5
:10263000843009F468C0853009F0FECC9981292FD7
:102640002F7109F4ACC0392F3072732E81E0809362
:102650008B03022F000F020F10E0C0910004D091F5
:102660000104C21BD1096E01CC0CDD1CCC0EDD1E99
:10267000E090FE03F090FF034701800E911E492F6A
:102680004074642E96FFB9C1C8010E945D1E5C01B2
:10269000009729F0A80170E060E00E949D1FCE0124
:1026A000711002C090E080E0BC01660F771F680FD8
:1026B000791F6E0D7F1DA801C5010E94821F711038
:1026C000B3C1A601B401C7010E948B1F662009F4A3
:1026D0009EC1CE01880F991F8C0F9D1FA801B501C7
:1026E0008E0D9F1D0E94821FC5010E94F91E10922F
:1026F0008B0355C03FBF7894FB0110828F5F47CF9B
:1027000010928C0399CC80918B03811195CCCB8056
:10271000D12CF12CE12C7EE0CC0CDD1CEE1CFF1C3E
:102720007A95D1F78C8190E0B0E0A0E0E5E1880FE8
:10273000991FAA1FBB1FEA95D1F78C0D9D1DAE1DD9
:10274000BF1D29816C017D01C20ED11CE11CF11C51
:102750008A8190E0B0E0A0E0F7E0880F991FAA1FFF
:10276000BB1FFA95D1F7C80ED91EEA1EFB1E0091B9
:10277000000410910104D0E0C0E0C114D104E104D0
:10278000F10421F5A801440F551F400F511F70E0BF
:1027900060E08091FE039091FF030E949D1F409195
:1027A000FA0350E061E070E082EE93E0DF91CF91B8
:1027B0001F910F91FF90EF90DF90CF90BF90AF905F
:1027C0009F908F907F906F900C949D1FC017D107A2
:1027D00031F3B701A601CE010E94BA082196F6CFC7
:1027E00080918B03811128CC0A81F0E80F9FC001F2
:1027F00011240981080F192F111D4D8150E070E03F
:1028000060E08EE0440F551F661F771F8A95D1F751
:102810008E8190E0B0E0A0E025E1880F991FAA1F0B
:10282000BB1F2A95D1F7840F951FA61FB71F2B81B9
:10283000AC01BD01420F511D611D711D8C8190E0E5
:10284000B0E0A0E037E0880F991FAA1FBB1F3A95A0
:10285000D1F7480F591F6A1F7B1FC8010E94BA0891
:102860004091FA03AAEEB3E090E080E0841708F00C
:10287000E3CBFC012D913D91019602171307B0F7B0
:10288000EE51FC4F81E08083D7CB913009F0D4CB5F
:10289000633008F4D1CB00918A030E94E208002340
:1028A00081F0B2EBCB2EB5E0DB2EF12C6F2DC60103
:1028B0000E94810CF39429E0C20ED11C38E0F3127F
:1028C000F5CF6BEA169F112D11241695EAEEAE2E68
:1028D000E3E0BE2EF2EBCF2EF5E0DF2E912C882424
:1028E0008394A2E07A2E011105C069816F71C6013F
:1028F0000E94810C898190E075E0959587957A9585
:10290000E1F78130910509F467C08230910509F43F
:1029100068C0892B31F41092FC038092FD03709201
:10292000FB03EB8040E8E49E700111248A81E80EED
:10293000F11CF601F182E08290E080E0992021F024
:10294000F5013297808191819701280F391FF50198
:10295000219331935F01F601938382838091000478
:1029600090910104E80EF91EF0920104E092000437
:102970008091FA038F5F8093FA039394F9E0CF0E6E
:10298000D11C23961911AFCF8091FE039091FF03C4
:10299000009731F00E94F91E109201041092000479
:1029A000E114F10409F448CBE701CC0FDD1FCE0D93
:1029B000DF1DCE010E945D1E9093FF038093FE03F6
:1029C0000097B1F0AE0170E060E00E949D1FF092B0
:1029D0000104E092000430CB1092FD038092FC03CE
:1029E0009ECF1092FB038092FD037092FC0399CF5F
:1029F00010920104109200041FCB332309F461CE1E
:102A0000A601B701C4010E948B1FD0E0C0E0CE0137
:102A1000880F991F8C0F9D1FA80170E060E08E0D3C
:102A20009F1D0E949D1F63CEA601B701C4010E9495
:102A30008B1FD0E0C0E04DCE1F920F920FB60F92C9
:102A400011240BB60F922F933F934F935F936F9385
:102A50007F938F939F93AF93BF93EF93FF9389E0FF
:102A600095E00E944503FF91EF91BF91AF919F9137
:102A70008F917F916F915F914F913F912F910F9027
:102A80000BBE0F900FBE0F901F9018951F920F92C4
:102A90000FB60F9211240BB60F922F938F939F9323
:102AA000EF93FF93E0911905F0911A058081E09171
:102AB0001F05F091200582FD1DC0908180912205A7
:102AC0008F5F8F7320912305821741F0E0912205DB
:102AD000F0E0E75FFA4F958F80932205FF91EF9129
:102AE0009F918F912F910F900BBE0F900FBE0F9063
:102AF0001F9018958081F2CF1F920F920FB60F9200
:102B000011242F933F938F939F93AF93BF93809103
:102B1000870490918804A0918904B0918A0430912F
:102B2000700423E0230F2D3758F50196A11DB11D28
:102B3000209370048093870490938804A093890461
:102B4000B0938A048091710490917204A0917304EF
:102B5000B09174040196A11DB11D809371049093EE
:102B60007204A0937304B0937404BF91AF919F91CA
:102B70008F913F912F910F900FBE0F901F9018953E
:102B800026E8230F0296A11DB11DD2CF1F920F92EE
:102B90000FB60F9211240BB60F922F933F934F93C2
:102BA0005F936F937F938F939F93AF93BF93EF93B5
:102BB000FF938091B900887F803609F44DC008F0FA
:102BC00040C0883209F4A9C028F5803109F49DC0BD
:102BD000C8F4882309F4FBC0883009F496C0FF913B
:102BE000EF91BF91AF919F918F917F916F915F9185
:102BF0004F913F912F910F900BBE0F900FBE0F90F2
:102C00001F901895883109F488C0803241F780936D
:102C1000DD0414C0803409F49DC040F48033B9F35E
:102C20008833E9F68093DD0485ECB0C0803509F483
:102C300085C0883509F496C0883489F60E94C70F8C
:102C4000CECF883909F48CC038F5883729F050F494
:102C5000883611F0803719F683E08093DF041092F4
:102C60006F0457C0883809F47BC0803919F0803868
:102C700009F0B5CF80916F04803208F071C0E09107
:102C80006F0481E08E0F80936F048091BB00F0E0B1
:102C9000E15BFB4F80833DC0803B39F0E0F4803A3C
:102CA00009F479C0883A09F09ACF84E08093DF0470
:102CB00010924C0410924B04E0914904F0914A04A4
:102CC000199580914B0481110FC081E080934B04D2
:102CD0001092290409C0803C09F4A6CF883C09F46D
:102CE000A3CF883B09F07BCFE0914C0481E08E0FAD
:102CF00080934C04F0E0E75DFB4F80818093BB0044
:102D000090914C0480914B0429C08091BA04809327
:102D1000BB0085EC8093BC0062CF9091DC04809175
:102D2000DB04981758F5E091DC0481E08E0F809366
:102D3000DC04F0E0E554FB4F8081E9CFE091DC0456
:102D400081E08E0F8093DC048091BB00F0E0E554BD
:102D5000FB4F80839091DC048091DB049817C8F2CC
:102D600085E8D8CFE091DC0481E08E0F8093DC040D
:102D70008091BB00F0E0E554FB4F80838091DE043E
:102D800081115CCF81E08093B90484EA8093BC0018
:102D90001092DF0424CF85EC8093BC001092DF04F6
:102DA00080916F04803230F4E0916F04F0E0E15BD9
:102DB000FB4F108260916F0470E0E0914D04F09140
:102DC0004E048FE494E0199510926F0408CF10928E
:102DD000DD0434CF1F920F920FB60F9211240BB661
:102DE0000F922F933F934F935F936F937F938F93A4
:102DF0009F93AF93BF93EF93FF9348E251E064E258
:102E000071E090E080E00E940008FF91EF91BF9197
:102E1000AF919F918F917F916F915F914F913F9172
:102E20002F910F900BBE0F900FBE0F901F90189513
:102E30001F920F920FB60F9211240BB60F922F9381
:102E40003F934F935F936F937F938F939F93AF9332
:102E5000BF93EF93FF9348EA50E064EA70E083E0A9
:102E600090E00E940008FF91EF91BF91AF919F9178
:102E70008F917F916F915F914F913F912F910F9023
:102E80000BBE0F900FBE0F901F9018951F920F92C0
:102E90000FB60F9211240BB60F922F933F934F93BF
:102EA0005F936F937F938F939F93AF93BF93EF93B2
:102EB000FF9348E950E064E970E082E090E00E940E
:102EC0000008FF91EF91BF91AF919F918F917F91FA
:102ED0006F915F914F913F912F910F900BBE0F908B
:102EE0000FBE0F901F9018951F920F920FB60F9262
:102EF00011240BB60F922F933F934F935F936F93D1
:102F00007F938F939F93AF93BF93EF93FF9348E883
:102F100050E064E870E081E090E00E940008FF91DA
:102F2000EF91BF91AF919F918F917F916F915F9141
:102F30004F913F912F910F900BBE0F900FBE0F90AE
:102F40001F90189510920C0510920B0588EE93E0D7
:102F5000A0E0B0E080930D0590930E05A0930F05BF
:102F6000B09310052DE032E030930A052093090557
:102F700025EC30E0309316052093150524EC30E065
:102F8000309318052093170520EC30E030931A0594
:102F90002093190521EC30E030931C0520931B058C
:102FA00022EC30E030931E0520931D0526EC30E026
:102FB0003093200520931F051092220510922305BF
:102FC00010922405109225051092A9051092A805CB
:102FD0008093AA059093AB05A093AC05B093AD0583
:102FE0008FE192E09093A7058093A605E2EBF5E0D0
:102FF0001182108213821282399685E0EA3FF80727
:10300000B9F7EBE8F6E02FEF48EB5BE080918A063A
:10301000803300F591E0980F90938A06808390E0CA
:10302000DC01AA0FBB1FA80FB91FA650BA4F1296FA
:103030005C934E931197339687E0EB31F80731F7A5
:1030400010924A0810921D0710921F0710921E0737
:103050000C94B6022083EFCF789484B5826084BD4F
:1030600084B5816084BD85B5826085BD85B581608C
:1030700085BD80916E00816080936E00109281000A
:1030800080918100826080938100809181008160C5
:103090008093810080918000816080938000809186
:1030A000B10084608093B1008091B0008160809312
:1030B000B000809191008260809391008091910096
:1030C0008160809391008091900081608093900056
:1030D0008091A10082608093A1008091A100816015
:1030E0008093A1008091A00081608093A0008091D6
:1030F0002101826080932101809121018160809370
:1031000021018091200181608093200180917A00CB
:10311000846080937A0080917A00826080937A0044
:1031200080917A00816080937A0080917A00806833
:1031300080937A001092C10088E180931D078091EE
:103140001E0790911F070E94F91EC0911D07D0E035
:10315000CE0101960E945D1E90931F0780931E076B
:10316000FC01EC0FFD1F108212E0DC011C9325E036
:1031700011962C93AE014250510963E073E0029620
:103180000E94A41F8CEE99E0909339088093380830
:1031900081E299E090933B0880933A0884EF98E0AD
:1031A00090933D0880933C0881ED9BE090933F080D
:1031B00080933E088CE29EE0909341088093400803
:1031C00087E79BE090934308809342088FEF9FE04E
:1031D000909349088093480882E89FE090934508BF
:1031E00080934408E0911905F0911A051083E0914D
:1031F0001905F0911A051082E0911505F091160558
:103200001082E0911705F091180580E180831092FB
:103210002105E0911D05F0911E0586E08083E09177
:103220001B05F0911C05808180618083E0911B0566
:10323000F0911C05808188608083E0911B05F091EE
:103240001C05808180688083E0911B05F0911C053E
:1032500080818F7D808389E095E090931C07809327
:103260001B0780914A0881114FC061E08DE00E94E8
:10327000C30462ED70E080E090E00E94410561E0EF
:103280008DE00E94950468E270E080E090E00E948A
:10329000410560E08DE00E94950462ED70E080E001
:1032A00090E00E94410561E08DE00E94950468E293
:1032B00070E080E090E00E94410560E08DE00E94B7
:1032C00095046AEF70E080E090E00E944105C5E05F
:1032D00062ED70E080E090E00E94410561E08DE0E9
:1032E0000E94950468E270E080E090E00E94410551
:1032F00060E08DE00E949504C15051F76DE770E0E9
:1033000080E090E00E9441050E94430280911D07E9
:1033100081110E94FD010E94820F0E94E20815E0C7
:10332000BB24B39402E080917E04882391F1F09055
:103330007504F2FCCAC2C0E0F3FE06C083E00E943E
:103340006C04892B09F0C860F4FE06C084E00E947A
:103350006C04892B09F0C061F5FE06C085E00E946F
:103360006C04892B09F0C062F6FE06C086E00E945C
:103370006C04892B09F0C064F7FE06C087E00E9448
:103380006C04892B09F0C06840E06C2F80E00E943B
:103390008C0B80917F04882309F44AC0F090760456
:1033A000CF2DC170F0FE07C088E00E946C04C1E020
:1033B000892B09F4C0E0F1FE06C089E00E946C048C
:1033C000892B09F0C260F2FE06C08AE00E946C04FC
:1033D000892B09F0C460F3FE06C08BE00E946C04E8
:1033E000892B09F0C860F4FE06C08CE00E946C04D2
:1033F000892B09F0C061F5FE06C08DE00E946C04C7
:10340000892B09F0C062F6FE06C08EE00E946C04B3
:10341000892B09F0C064F7FE06C08FE00E946C049F
:10342000892B09F0C06840E06C2F81E00E948C0B72
:1034300080918004882309F44AC0F0907704CF2D4E
:10344000C170F0FE07C080E10E946C04C1E0892BCE
:1034500009F4C0E0F1FE06C081E10E946C04892BF2
:1034600009F0C260F2FE06C082E10E946C04892B62
:1034700009F0C460F3FE06C083E10E946C04892B4E
:1034800009F0C860F4FE06C084E10E946C04892B38
:1034900009F0C061F5FE06C085E10E946C04892B2D
:1034A00009F0C062F6FE06C086E10E946C04892B1A
:1034B00009F0C064F7FE06C087E10E946C04892B06
:1034C00009F0C06840E06C2F82E00E948C0B809174
:1034D0008104882309F44AC0F0907804CF2DC1708C
:1034E000F0FE07C088E10E946C04C1E0892B09F45A
:1034F000C0E0F1FE06C089E10E946C04892B09F04E
:10350000C260F2FE06C08AE10E946C04892B09F0B9
:10351000C460F3FE06C08BE10E946C04892B09F0A5
:10352000C860F4FE06C08CE10E946C04892B09F08F
:10353000C061F5FE06C08DE10E946C04892B09F084
:10354000C062F6FE06C08EE10E946C04892B09F071
:10355000C064F7FE06C08FE10E946C04892B09F05D
:10356000C06840E06C2F83E00E948C0B8091820445
:10357000882309F44AC0F0907904CF2DC170F0FE81
:1035800007C080E20E946C04C1E0892B09F4C0E00E
:10359000F1FE06C081E20E946C04892B09F0C26032
:1035A000F2FE06C082E20E946C04892B09F0C4601E
:1035B000F3FE06C083E20E946C04892B09F0C86008
:1035C000F4FE06C084E20E946C04892B09F0C061FD
:1035D000F5FE06C085E20E946C04892B09F0C062EA
:1035E000F6FE06C086E20E946C04892B09F0C064D6
:1035F000F7FE06C087E20E946C04892B09F0C068C0
:1036000040E06C2F84E00E948C0B8091830488231F
:1036100009F44AC0F0907A04CF2DC170F0FE07C0C3
:1036200088E20E946C04C1E0892B09F4C0E0F1FE3D
:1036300006C089E20E946C04892B09F0C260F2FE88
:1036400006C08AE20E946C04892B09F0C460F3FE74
:1036500006C08BE20E946C04892B09F0C860F4FE5E
:1036600006C08CE20E946C04892B09F0C061F5FE53
:1036700006C08DE20E946C04892B09F0C062F6FE40
:1036800006C08EE20E946C04892B09F0C064F7FE2C
:1036900006C08FE20E946C04892B09F0C06840E0EC
:1036A0006C2F85E00E948C0B80918404882309F4A0
:1036B0004AC0F0907B04CF2DC170F0FE07C080E3BC
:1036C0000E946C04C1E0892B09F4C0E0F1FE06C041
:1036D00081E30E946C04892B09F0C260F2FE06C0EF
:1036E00082E30E946C04892B09F0C460F3FE06C0DB
:1036F00083E30E946C04892B09F0C860F4FE06C0C5
:1037000084E30E946C04892B09F0C061F5FE06C0B9
:1037100085E30E946C04892B09F0C062F6FE06C0A6
:1037200086E30E946C04892B09F0C064F7FE06C092
:1037300087E30E946C04892B09F0C06840E06C2F7D
:1037400086E00E948C0B80918504882309F44AC08E
:10375000F0907C04CF2DC170F0FE07C088E30E947A
:103760006C04C1E0892B09F4C0E0F1FE06C089E3D6
:103770000E946C04892B09F0C260F2FE06C08AE345
:103780000E946C04892B09F0C460F3FE06C08BE331
:103790000E946C04892B09F0C860F4FE06C08CE31B
:1037A0000E946C04892B09F0C061F5FE06C08DE310
:1037B0000E946C04892B09F0C062F6FE06C08EE3FD
:1037C0000E946C04892B09F0C064F7FE06C08FE3E9
:1037D0000E946C04892B09F0C06840E06C2F87E0E0
:1037E0000E948C0B809186048823D1F1F0907D0497
:1037F000CF2DC170F0FE07C080E40E946C04C1E0D0
:10380000892B09F4C0E0F1FE06C081E40E946C043B
:10381000892B09F0C260F2FE06C082E40E946C04AB
:10382000892B09F0C460F3FE06C083E40E946C0497
:10383000892B09F0C860F4FE06C084E40E946C0481
:10384000892B09F0C061F5FE06C085E40E946C0476
:10385000892B09F0C06240E06C2F88E00E948C0B3D
:1038600080911B0790911C07EC01E881F98100848D
:10387000F185E02D1995892B09F431C180911B0741
:1038800090911C07DC01ED91FC910284F385E02D01
:1038900019958F3F980721F3382F20916307222332
:1038A00009F471C0873F09F05FC0109263078091EF
:1038B0002307813791F0893709F048C080911D07AF
:1038C000882371F20E94FD01CBCF82E00E946C043C
:1038D000892B09F430CDC4E02FCDE0914608F0915A
:1038E0004708309709F4BCCF2091640730916507F1
:1038F000C901019797FDC90195958795782F4BE1EF
:1039000057E0DA0130E04E5F5F4F1196371778F4D9
:10391000EA016F8117966C931797288527952227C0
:103920002795260F17962C9317973F5FECCF992773
:10393000DC01A55EB84F17968C911797882311F07C
:1039400018961C9283E297E019958ACFE091480877
:10395000F0914908309709F483CF60916407615072
:1039600044E257E019957CCF2091640730916507B8
:10397000F901E55EF84F80872F5F3F4F3093650771
:10398000209364076DCF20912007222309F466C09D
:1039900087FD64C09FEF920F90932007E92FF0E01E
:1039A000E55EF84F808791115BCF809121078823D6
:1039B00009F456CF803D09F446C060F4803921F106
:1039C000E0913C08F0913D08803C09F440C0109221
:1039D000210746CF843F29F1853F81F1803EB9F729
:1039E000E0913808F0913908309789F36091230706
:1039F000D0E86D9FC001112460912407680F792FD2
:103A0000711D8091220718C0E0913A08F0913B089F
:103A10003097E9F26091230720E8629FC0011124EA
:103A2000EBCFE0914008F09141086091230770E0EE
:103A300080912407309759F21995C9CFE091420837
:103A4000F0914308F2CFE0913E08F0913F083097A3
:103A500009F4BDCF6091230770E0D3CF303FB8F4B5
:103A6000282F207F30E08F7080932207203F310580
:103A700061F1BCF4203C310529F164F420393105B1
:103A800009F0EECE0093200720932107E9CE9C0198
:103A90003327ECCF203D3105A9F0203E310591F3CD
:103AA000DFCE293F3105C1F034F4C901845F9109AB
:103AB000029740F3D5CE2F3F310509F0D1CE0E94B9
:103AC000B602CECEB0922007DFCFB092630710923D
:103AD000650710926407C4CE0E944302C1CE8FB71F
:103AE000F894C0908704D0908804E0908904F09006
:103AF0008A048FBF8091B5049091B604A091B70459
:103B0000B091B804409101025091020270E060E06F
:103B1000C81AD90AEA0AFB0A4C155D056E057F052D
:103B200008F051C0840F951FA61FB71F8093B504DE
:103B30009093B604A093B704B093B8048BE1E82E39
:103B400087E0F82ECAECC031C8F4F701E55BFF4FFF
:103B50008081823099F48091B3049091B4040C2E4A
:103B600002C0959587950A94E2F780FF07C08C2FD5
:103B70000E94FF04BC018C2F0E946702CF5F8FEF71
:103B8000E81AF80AC031F9F68091000287FD1BC0DF
:103B9000C0E02C2F30E080910002082E000C990B21
:103BA0008217930784F0129FF001139FF00D1124E8
:103BB000E557FB4F618172812481438180810E949E
:103BC000B50CCF5FE6CF0E94D403ADCB052E97FB9B
:103BD0001EF400940E94FD1D57FD07D00E94181E80
:103BE00007FC03D04EF40C94FD1D50954095309584
:103BF00021953F4F4F4F5F4F089590958095709559
:103C000061957F4F8F4F9F4F08950E943A1EA59F49
:103C1000900DB49F900DA49F800D911D11240895C7
:103C2000B7FF0C94051E0E94051E821B930B08957E
:103C3000A1E21A2EAA1BBB1BFD010DC0AA1FBB1FB0
:103C4000EE1FFF1FA217B307E407F50720F0A21B22
:103C5000B30BE40BF50B661F771F881F991F1A948F
:103C600069F760957095809590959B01AC01BD01B9
:103C7000CF010895A29FB001B39FC001A39F700D13
:103C8000811D1124911DB29F700D811D1124911D64
:103C90000895991B79E004C0991F961708F0961BA8
:103CA000881F7A95C9F780950895EE0FFF1F881F2A
:103CB0008BBF0790F691E02D19940F931F93CF932C
:103CC000DF938230910510F482E090E0E0914D089E
:103CD000F0914E0830E020E0B0E0A0E0309799F499
:103CE0002115310509F44AC0281B390B2430310550
:103CF000D8F58A819B816115710589F1FB01938358
:103D00008283FE0111C040815181028113814817D5
:103D10005907E0F04817590799F4109761F0129687
:103D20000C93129713961C933296CF01DF91CF918B
:103D30001F910F91089500934D0810934E08F4CFF2
:103D40002115310551F04217530738F0A901DB0165
:103D50009A01BD01DF01F801C1CFEF01F9CF9093C6
:103D60004E0880934D08CDCFFE01E20FF31F8193E3
:103D700091932250310939832883D7CF20914B0862
:103D800030914C08232B41F420910502309106021A
:103D900030934C0820934B08209103023091040289
:103DA0002115310541F42DB73EB7409107025091DE
:103DB0000802241B350BE0914B08F0914C08E217E8
:103DC000F307A0F42E1B3F0B2817390778F0AC013E
:103DD0004E5F5F4F2417350748F04E0F5F1F50931B
:103DE0004C0840934B08819391939FCFF0E0E0E023
:103DF0009CCFCF93DF930097E9F0FC0132971382B9
:103E00001282A0914D08B0914E08ED0130E020E003
:103E10001097A1F420813181820F931F20914B08CC
:103E200030914C082817390709F061C0F0934C080D
:103E3000E0934B08DF91CF910895EA01CE17DF0799
:103E4000E8F54A815B819E0141155105B1F7E90111
:103E5000FB83EA8349915991C40FD51FEC17FD07E5
:103E600061F4808191810296840F951FE901998305
:103E70008883828193819B838A83F0E0E0E01296BD
:103E80008D919C9113970097B9F52D913C911197C5
:103E9000CD010296820F931F20914B0830914C0860
:103EA0002817390739F6309751F510924E081092BD
:103EB0004D08B0934C08A0934B08BCCFD383C2836A
:103EC00040815181840F951FC817D90761F44E5F57
:103ED0005F4F88819981480F591F518340838A81A0
:103EE0009B81938382832115310509F0B0CFF09334
:103EF0004E08E0934D089ECFFD01DC01C0CF138238
:103F00001282D7CFFB01DC0102C001900D9241501B
:103F10005040D8F708956817790768F4FB01DC0171
:103F2000E40FF51FA40FB51F02C002900E9241507E
:103F30005040D8F708950C94821FDC0101C06D93A6
:103F400041505040E0F70895FB01DC0141505040E2
:103F500048F001900D920020C9F701C01D92415018
:0A3F60005040E0F70895F894FFCFF9
:103F6A00FF130000004F088000000000006703D123
:103F7A0002FE02B4032F030D0321030000000023F5
:103F8A0007F6065207CC06EF06DC06CD0649324391
:103F9A003A20546F6F206D616E792062797465736F
:103FAA00207265636569766564004932433A205434
:103FBA006F6F206665772062797465732072656316
:103FCA006569766564004D617820736572766F73F2
:103FDA0020617474616368656400556E6B6E6F77F7
:103FEA006E2070696E206D6F64650031302D6269D4
:103FFA00742061646472657373696E67206E6F748E
:10400A0020737570706F7274656400746F6F206DC1
:10401A00616E792071756572696573002F557365D4
:10402A0072732F6D6F6E7465736C752F636F646531
:10403A002F6D696E652F6E6F64652D706978656C7A
:10404A002F6669726D776172652F6275696C642F6C
:10405A006E6F64655F706978656C5F6669726D61C1
:10406A0074612F6E6F64655F706978656C5F6669ED
:0A407A00726D6174612E696E6F00B3
:00000001FF
