:100000000C94B3010C94E4010C94E4010C94E4010D
:100010000C94E4010C94E4010C94E4010C94E401CC
:100020000C94E4010C9487150C9487150C94871597
:100030000C94E4010C94E4010C94E4010C94E401AC
:100040000C94E4010C943F170C94E4010C94E4012B
:100050000C94E4010C94E4010C94E4010C943D151F
:100060000C94E4010C9413150C94E9140C94E40121
:100070000C94E4010C94E4010C94E4010C94E4016C
:100080000C9411170C94E4010C94E4010C94E40119
:100090000C94BF140C9495140C94E4010C949115D9
:1000A0000C94E4010C94E4010C94E3160C94E40128
:1000B0000C94E4010C94E4010C94E4010C94B51646
:1000C0000C94E4010C94E4010C94E4010C946B1482
:1000D0000C9441140C94E4010C9417140C94ED133B
:1000E0000C94E4010C94DA0C0C945B040C943A0329
:1000F0000C942C030C949D0A0C9465040C94980F9A
:100100000C94AE080C9473040C94FA010C94D00C6B
:100110000C94780D0C9452070C94950B0C943509A3
:100120000C940E020C94A20C0C9490030C942E02CE
:100130000C94840C0C9422020C94D2080C94DD03D1
:100140000C94BC020C94B40C0C94110D0C94600F24
:100150000C94FD0C0C94200D0C94A80E0C946D17AF
:100160000C9455040C947B040C94E90C0C94F30C43
:100170000C9409030C94F0010C9485110C94AF08B5
:100180000C9452040C9477040C944A040C941803B5
:100190000C941B0D0C945F040C94C60C0C94CA0AAE
:1001A0000C94BC0C0C948E0C0C9440040C94070D15
:1001B0000C9446130C946C0F0C9418020C94E601EA
:1001C0000C9423020C9481040C94430F0C94B008FB
:1001D0000C940E130C9404020C9485040C940410DB
:1001E0000C948C120C9469040C94C3020C94540F5C
:1001F0000C9446040C944E040C94810F0C94F50F4F
:100200000C94AB110C94E90F0C94DC130C946D045A
:100210000C949B130C9480040C94C4110C94AD08A2
:100220000C9406090C94AC0C0C94BF080C94980C1C
:100230000C94D9080C9424130C94890C0C94C812B7
:100240000C94B20F00002100240027002A002D008A
:100250003000330001010000040107010A01000021
:100260002200250028002B002E003100340002015E
:100270000000050108010B010000200023002600FA
:1002800029002C002F0032000001000003010601AC
:10029000090105050505070508080808020202020C
:1002A0000A0A080804040404010101010101010112
:1002B0000303030303030303040707070C0C0C0CDD
:1002C0000C0C0C0C020202020606060606060606C6
:1002D0000B0B0B0B0B0B0B0B010210202008081053
:1002E00020401020408002010201080402010102A6
:1002F000040810204080804020100804020180047F
:1003000002018040201008040201080402010102D9
:1003100004081020408001020408102040800000E2
:100320000A0B02090C0D0E0807030401000000006F
:1003300000000000000000000000000000000000BD
:10034000000000000000000000001211100000007A
:10035000000000000000000000000000000000009D
:10036000000000006D1711241FBECFEFD1E2DEBFE9
:10037000CDBF00E00CBF13E0A0E0B2E0E2E9F2E4A0
:1003800000E00BBF02C007900D92A432B107D9F76D
:1003900029E0A4E2B3E001C01D92AD3FB207E1F74E
:1003A00011E0C3EBD1E000E006C021970109802FE6
:1003B000FE010E940B20C23BD10780E00807A9F78D
:1003C0000E9435190C9447210C940000862FE0916F
:1003D0006804F0916904309711F0BA0119940895F6
:1003E000862FE0916604F0916704309711F0BA010E
:1003F00019940895862FE0916404F0916504309774
:1004000011F0BA0119940895862FE0916204F091D9
:100410006304309711F0BA0119940895862FE09182
:100420006004F0916104309711F0BA0119940895B5
:10043000862FE0915E04F0915F04309711F0BA01CD
:10044000199408950895862F642FE0916A04F0911D
:100450006B04309711F0A90119940895E0916C0490
:10046000F0916D04309709F019940895CF93DF93BC
:10047000FC01A081B181109701F1EC01ED91FC919B
:1004800011970190F081E02D69EFCD0119958881D8
:100490009981DC01ED91FC910190F081E02D62E009
:1004A000199588819981DC01ED91FC910190F08191
:1004B000E02D65E0DF91CF911994DF91CF91089500
:1004C000A091F407B091F507ED91FC91119701907F
:1004D000F081E02D682FCD0119941F93CF93DF9306
:1004E000182FEB018091BB079091BC076817790723
:1004F00060F48091B9079091BA07C80FD91F18838B
:1005000080E0DF91CF911F910895E091E807F0918D
:10051000E907309711F481E0F4CF81E08093B807C8
:100520008091D4079091D50719958091BB07909140
:10053000BC07C817D90778F7DCCFCF93DF93EC015E
:10054000FB0130E020E0C901880F991F8C179D073F
:1005500078F44081DB014D93BD011197918197950E
:1005600099279795942B9C932F5F3F4F3296EBCF13
:10057000C901DF91CF910895009721F0805C9F4FD2
:100580000C9436020895AF92BF92CF92DF92EF9211
:10059000FF920F931F93CF93DF936C017B018B012D
:1005A000040F151FEB015E01AE18BF08C017D1077D
:1005B00059F06991D601ED91FC910190F081E02D07
:1005C000C6011995892B79F7C501DF91CF911F914C
:1005D0000F91FF90EF90DF90CF90BF90AF90089574
:1005E000FC01A089B1898C91A689B78982FD0FC0D1
:1005F0009C91818D8F5F8F73228D821749F0A18D21
:10060000AE0FBF2FB11D5D969C93818F08958C9185
:100610000895FC01538D448D252F30E0842F90E008
:10062000821B930B541710F0CF96089501970895ED
:10063000FC01918D828D981761F0A28DAE0FBF2FB6
:10064000B11D5D968C91928D9F5F9F73928F90E00C
:1006500008958FEF9FEF0895FC01918D828D98177B
:1006600031F0828DE80FF11D858D90E008958FEFB8
:100670009FEF0895FC01918D228D892F90E0805C81
:100680009F4F821B91098F739927089582E095E00F
:100690000E943A0321E0892B09F420E0822F08957B
:1006A0008FE995E00E943A0321E0892B09F420E0CC
:1006B000822F08958CE396E00E943A0321E0892B73
:1006C00009F420E0822F089589ED96E00E943A0314
:1006D00021E0892B09F420E0822F0895FC01A48DEC
:1006E000A80FB92FB11DA35ABF4F2C91848D90E054
:1006F00001968F739927848FA689B7892C93A08937
:10070000B1898C91837080648C93938D848D9813C0
:1007100006C00288F389E02D80818F7D8083089553
:10072000EF92FF920F931F93CF93DF93EC0181E041
:10073000888F9B8D8C8D98131AC0E889F9898081E8
:1007400085FF15C09FB7F894EE89FF896083E8891B
:10075000F98980818370806480839FBF81E090E00D
:10076000DF91CF911F910F91FF90EF900895F62E9A
:100770000B8D10E00F5F1F4F0F731127E02E8C8D34
:100780008E110CC00FB607FCFACFE889F989808179
:1007900085FFF5CFCE010E946E03F1CFEB8DEC0FFC
:1007A000FD2FF11DE35AFF4FF0829FB7F8940B8F96
:1007B000EA89FB8980818062CFCFCF93DF93EC0100
:1007C000888D8823B9F0AA89BB89E889F9898C9139
:1007D00085FD03C0808186FD0DC00FB607FCF7CFF5
:1007E0008C9185FFF2CF808185FFEDCFCE010E94F5
:1007F0006E03E9CFDF91CF91089580E090E0892BDF
:1008000029F00E94640381110E94000080E090E0C2
:10081000892B29F00E945A0381110E94000080E078
:1008200090E0892B29F00E94500381110E94000062
:1008300080E090E0892B29F00E94460381110C94FE
:10084000000008958150823108F05AC0E82FF0E08E
:100850008827E25DFB4F8F4F0C940B204E0452040F
:10086000400446044A04800455045B045F046504A4
:1008700069046D047304770480047B048104850497
:10088000809180008F778093800008958091800010
:100890008F7DF9CF80918000877FF5CF84B58F77EA
:1008A00084BD089584B58F7DFBCF8091B0008F7794
:1008B0008093B00008958091B0008F7DF9CF809132
:1008C00090008F77809390000895809190008F7DA5
:1008D000F9CF80919000877FF5CF8091A0008F772E
:1008E0008093A00008958091A0008F7DF9CF809122
:1008F000A000877FF5CF809120018F778093200122
:100900000895809120018F7DF9CF80912001877F0C
:10091000F5CFCF93DF93282F30E0F901E25EFC4F53
:100920008491F901E852FD4FD491F901EE56FD4F43
:10093000C491CC23A1F081110E942204EC2FF0E09D
:10094000EE0FFF1FE858FD4FA591B491EC91ED23F8
:1009500081E090E009F480E0DF91CF91089580E09C
:1009600090E0FACF1F93CF93DF93282F30E0F90167
:10097000E25EFC4F8491F901E852FD4FD491F901F8
:10098000EE56FD4FC491CC23A9F0162F81110E9481
:100990002204EC2FF0E0EE0FFF1FE25AFD4FA5916D
:1009A000B4918FB7F894EC91111108C0D095DE2363
:1009B000DC938FBFDF91CF911F910895DE2BF8CF8D
:1009C000CF93DF9390E0FC01E852FD4F24918E56C7
:1009D0009D4FFC0184918823C9F090E0880F991FF6
:1009E000FC01EC5BFD4FA591B491FC01E25AFD4F77
:1009F000C591D49161110DC09FB7F8948C91209549
:100A000082238C938881282328839FBFDF91CF91F5
:100A10000895623051F49FB7F8943C91822F8095ED
:100A200083238C93E8812E2BEFCF8FB7F894EC9132
:100A30002E2B2C938FBFEACF863308F0865320915C
:100A40007B00982F9870277F922B90937B00877064
:100A5000806480937C0080917A00806480937A0027
:100A600080917A0086FDFCCF80917800909179008A
:100A700008953FB7F89480915A0490915B04A09137
:100A80005C04B0915D0426B5A89B05C02F3F19F00A
:100A90000196A11DB11D3FBFBA2FA92F982F8827FE
:100AA000BC01CD01620F711D811D911D42E0660FD9
:100AB000771F881F991F4A95D1F708958F929F92AB
:100AC000AF92BF92CF92DF92EF92FF926B017C01C7
:100AD0000E9439054B015C01C114D104E104F10409
:100AE000B9F00E943905681979098A099B09683E9D
:100AF00073408105910580F321E0C21AD108E10815
:100B0000F10888EE880E83E0981EA11CB11CE4CF8A
:100B1000FF90EF90DF90CF90BF90AF909F908F901D
:100B200008955F926F927F928F929F92AF92BF9241
:100B3000CF92DF92EF92FF920F931F93CF93DF93A9
:100B40005C016901DA015C90232B19F4CC24CA946E
:100B5000DC2C8A013A01660E771ED0E0C0E0F12C51
:100B6000E12C87E0882E912CF50180819181D801BC
:100B70006C910C2E01C0660F0A94EAF765296F7715
:100B8000DC01ED91FC910190F081E02D1995BFEF12
:100B9000EB1AFB0AF801608170E0C4018C1B9D0B0D
:100BA00002C0759567958A95E2F7562E2196C73053
:100BB000D10558F1CE14DF0441F1D5018D919C91FE
:100BC000652D6F77DC01ED91FC910190F081E02DB6
:100BD0001995BFEFEB1AFB0A551C5524551C279796
:100BE000E6CFEC14FD0408F4BFCFDF91CF911F9145
:100BF0000F91FF90EF90DF90CF90BF90AF909F90BC
:100C00008F907F906F905F9008950F5F1F4F6016D9
:100C1000710639F7209749F3EC14FD0430F7F5011C
:100C20008081918161E070E001C0660FCA95EAF7AA
:100C300061506521DC01ED91FC910190F081E02D86
:100C4000DF91CF911F910F91FF90EF90DF90CF90A8
:100C5000BF90AF909F908F907F906F905F9019940E
:100C60001F93CF93DF931F921F92CDB7DEB7182F3C
:100C70007A8369838091B6079091B7070097C9F08E
:100C8000DC01ED91FC910190F081E02D1031B8F480
:100C900061157044A0F4612F606E199522E030E078
:100CA000AE014F5F5F4F62E070E086EB97E00E941D
:100CB00091050F900F90DF91CF911F91089560EFF4
:100CC00019958091B6079091B707DC01ED91FC91E1
:100CD0000190F081E02D6FE619958091B607909113
:100CE000B707DC01ED91FC910190F081E02D612FBF
:100CF000199522E030E0AE014F5F5F4F62E070E097
:100D000086EB97E00E9491058091B6079091B70716
:100D1000DC01ED91FC910190F081E02D67EF1995D8
:100D2000C8CFEF92FF920F931F93CF93DF93C82FFB
:100D30008091B6079091B7070097C9F17A018B01AE
:100D4000DC01ED91FC910190F081E02D60EF1995AF
:100D50008091B6079091B707DC01ED91FC9101906D
:100D6000F081E02D6C2F1995E7010E0D1F1DC017A6
:100D7000D10759F030E020E0AE0161E070E086EB91
:100D800097E00E9491052196F2CF8091B60790914D
:100D9000B707DC01ED91FC910190F081E02D67EF48
:100DA000DF91CF911F910F91FF90EF901994DF91F8
:100DB000CF911F910F91FF90EF900895CF92DF9206
:100DC000EF92FF920F931F93CF93DF93FC01E058B4
:100DD000FF4FE080EE2009F45CC0EC01C05CDF4F07
:100DE000A881B981109709F454C0FC01EF57FF4F57
:100DF000C080D180F60111810081ED91FC911197A5
:100E00000190F081E02D60EFCD01199588819981E5
:100E1000DC01ED91FC910190F081E02D69E71995DD
:100E200088819981DC01ED91FC910190F081E02DA8
:100E3000602F199588819981DC01ED91FC910190D9
:100E4000F081E02D612F1995F12C01E010E00F5F8A
:100E50001F4FE016F10659F030E020E0A601400FE8
:100E6000511F61E070E0CE010E949105F0CF8881B2
:100E70009981DC01ED91FC910190F081E02D67EF0B
:100E8000DF91CF911F910F91FF90EF90DF90CF9066
:100E90001994DF91CF911F910F91FF90EF90DF9008
:100EA000CF900895009711F00C94DE0608952091DC
:100EB0003204260F3327331F21323105ECF4209101
:100EC000D804FC0190E080E0243069F082E00895CD
:100ED000A09132042191AC01405F5B4FA40FB52F6C
:100EE000B11D2C930196861798F380913204680FF8
:100EF0006093320480E0089581E008951092D80450
:100F000081E08093D7041092B20461E084E10E94F2
:100F1000B20461E085E10E94B204E9EBF0E0808177
:100F20008E7F808380818D7F808388E48093B8006A
:100F300085E48093BC000895CF93DF9391E0909374
:100F40000F048823B9F0C091B800D091BA00809105
:100F5000BC008A7B8093BC0060E084E10E94B20404
:100F600060E085E10E94B2040E947E07D093BA003F
:100F7000C093B800DF91CF9108958F929F92AF9266
:100F8000BF92CF92DF92EF92FF920F931F93CF9376
:100F9000DF93D0910105D13208F0D7C0182FC0914E
:100FA00000050E9439056B017C018091D8048111F4
:100FB0006BC082E08093D8041093D7048FEF8093A6
:100FC000D6041092D504D093D404A0EEB4E0E4EBA0
:100FD000F4E080E0D81391C01092B3048091B30480
:100FE000CC0FC82BC093B3048091B204813009F0B8
:100FF00088C01092B2040E9439056B017C01809177
:10100000B3048093BB008091DA049091DB04A0913B
:10101000DC04B091DD04892B8A2B8B2BA1F00E947C
:1010200039050091DA041091DB042091DC04309141
:10103000DD046C197D098E099F090617170728071B
:10104000390708F442C08091BC0083FDD8CF85ECFD
:101050008093BC000E9439056B017C018091D8040B
:10106000823009F450C08091D6048F3F09F46FC0DC
:101070008091D604803209F46CC08091D60480330C
:1010800009F469C084E026C08091DA049091DB0401
:10109000A091DC04B091DD04892B8A2B8B2B09F401
:1010A00084CF0E9439058090DA049090DB04A090F0
:1010B000DC04B090DD046C197D098E099F09861649
:1010C0009706A806B90608F070CF8091D9040E944F
:1010D0009C0785E01092DF04109201051092DE0457
:1010E000DF91CF911F910F91FF90EF90DF90CF9004
:1010F000BF90AF909F908F9008959D9191938F5F37
:1011000069CF85EEA5CF8091DA049091DB04A091A0
:10111000DC04B091DD04892B8A2B8B2B09F49ECF44
:101120000E9439050091DA041091DB042091DC045F
:101130003091DD046C197D098E099F090617170788
:101140002807390708F08ACFC0CF81E0C3CF80E0FD
:10115000C1CF82E0BFCF83E0BDCF08950895089549
:10116000E0910E0480910D04E81730F4F0E0E351B3
:10117000FC4F808190E008958FEF9FEF089590914C
:101180000E0480910D042FEF3FEF981748F4E92FDC
:10119000F0E0E351FC4F208130E09F5F90930E041C
:1011A000C901089580910D0490910E04891B990B3B
:1011B0000895CF92DF92EF92FF920F931F93CF93F8
:1011C000DF937C01CB018A012091DE04222389F088
:1011D000EB016B01C40ED51ECC15DD0569F06991DC
:1011E000D701ED91FC910190F081E02DC701199597
:1011F000F3CF642F0E945707C801DF91CF911F9151
:101200000F91FF90EF90DF90CF900895CF93DF93F1
:101210001F92CDB7DEB769832091DE042223F9F057
:1012200020910105203258F021E030E0FC013383A9
:10123000228390E080E00F90DF91CF91089580911C
:10124000DF04E82FF0E0E052FB4F998190838F5F3D
:101250008093DF048093010581E090E0ECCF61E0B2
:10126000CE0101960E945707F7CF90E080E00895E5
:10127000DF92EF92FF920F931F93CF93DF93EC01D6
:10128000D62E7A0189018881803308F067C061E039
:101290008D2D0E94E0048881282F30E0F901EE0FA7
:1012A000FF1FE20FF31FE852F74F9D2D9F736081E0
:1012B000607C692B608320E232E02E193F0937FF02
:1012C00002C02D5F3F4F359527953595279529838A
:1012D00020E639E0201B310B37FF02C02D5F3F4F66
:1012E00035952795359527952A832CE0622F0E9406
:1012F000FF1F829FB001112430E020E0AB01420FBC
:10130000531FFA01EE0FFF1FE40FF51FE852F74FCE
:10131000908196FD16C02F5F3F4F2C30310571F73D
:10132000813029F51092800082E080938100109234
:10133000850010928400B19A80916F008260809342
:101340006F00E8818E2F90E0FC01EE0FFF1FE80F89
:10135000F91FE852F74F8081806480838881DF9194
:10136000CF911F910F91FF90EF90DF900895823001
:1013700061F4109290008093910010929500109269
:10138000940088BB80937100DCCF833069F41092A5
:10139000A00082E08093A1001092A5001092A4000A
:1013A00089BB80937200CDCF8111CBCF10922001E9
:1013B00082E08093210110922501109224018ABBC2
:1013C00080937300BECFAF92BF92CF92DF92EF9225
:1013D000FF920F931F93CF93DF936B017A01EC0180
:1013E000C751DC4F28813CE0389F8001399F100DA8
:1013F0001124A0906809B12C27FF1FC0FB011182A6
:10140000108288818F5F888388819801280F311D21
:1014100087FD3A95F6012A153B051CF488818C302E
:10142000C4F180819181049680349C4908F473C092
:10143000F60180819181049670C088819801280FFF
:10144000311D87FD3A952A153B05DCF68881A801F8
:10145000480F511D87FD5A95FA01EE0FFF1FE40F4B
:10146000F51FE852F74F808186FFCBCF8881F801C6
:10147000E80FF11D87FDFA95CF01EE0FFF1FE80F72
:10148000F91FE852F74F808160E08F730E94B20429
:10149000B8CF808191812881A801420F511D27FD7D
:1014A0005A959A01FA01EE0FFF1FE20FF31FE8525F
:1014B000F74F21813281820F931FF701918380833F
:1014C00088819801280F311D87FD3A95F901EE0FAB
:1014D000FF1FE20FF31FE852F74F808186FF22C003
:1014E0008881080F111D87FD1A95F801EE0FFF1F67
:1014F000E00FF11FE852F74F808161E08F73DF91B9
:10150000CF911F910F91FF90EF90DF90CF90BF9000
:10151000AF900C94B20480E49CE9F701918380833E
:101520008FEF8883DF91CF911F910F91FF90EF9004
:10153000DF90CF90BF90AF900895CF938031B0F4FB
:1015400021E030E0082E02C0220F331F0A94E2F798
:101550004091AC045091AD04672B51F42095309527
:10156000242335233093AD042093AC04CF91089508
:10157000242B352B3093AD042093AC049091E803D9
:101580009111F4CFC82F0E941C05BC018C2FCF9164
:101590000C9430064F925F926F927F928F929F923F
:1015A000AF92BF92CF92DF92EF92FF920F931F9371
:1015B000CF93DF93893008F0A7C08F5FC82FCC0F7F
:1015C000CC0FCC0F4C2EC73410F056E4452ED62F3E
:1015D00038EF532E5C0E852C912CC401880F991F77
:1015E0009C012A58384F5901052DD12CC12C10E0EF
:1015F000772473940415C8F58EEF800F8434F8F4C3
:10160000F601E80DF91DE750F84F90819230B8F4DB
:10161000872D8D2366246394811101C0612C76018E
:10162000EE0CFF1C913089F4172939ECE30EF11C04
:10163000F501EE0DFF1D862D90E091838083770CE0
:101640000F5F8FEFC81AD80AD5CF882371F3F7013F
:10165000E753FF4FEA0DFB1D80819181019729F32C
:1016600062E0802F0E94E004E0CF10FF05C06D2FE4
:101670006170852D0E94B20411FF06C06D2F62704B
:1016800089EF8C0F0E94B20412FF06C06D2F6470A8
:101690008AEF8C0F0E94B20413FF06C06D2F687092
:1016A0008BEF8C0F0E94B20414FF06C06D2F607187
:1016B0008CEF8C0F0E94B20415FF06C06D2F607274
:1016C0008DEF8C0F0E94B20416FF06C06D2F607460
:1016D0008EEF8C0F0E94B20417FF16C06D2F60783A
:1016E0008FEF8C0FDF91CF911F910F91FF90EF90B3
:1016F000DF90CF90BF90AF909F908F907F906F9032
:101700005F904F900C94B204DF91CF911F910F9195
:10171000FF90EF90DF90CF90BF90AF909F908F9011
:101720007F906F905F904F9008958F929F92AF92AD
:10173000BF92CF92DF92EF92FF920F931F93CF93BE
:10174000DF93EB01863408F098C0082F10E0F80111
:10175000E750F84F9081933009F49CC0943009F021
:101760008CC08250843408F081C0F801E856FC4FE8
:10177000C080D12C7601EE0CFF1C4B01603282E060
:1017800078070CF03EC0F701EC0DFD1DE759F64F50
:101790008181A8E88A2E912C881A910887FD93945C
:1017A000880C991C880C991C092C000CAA08BB08F1
:1017B000828128E532E0281B310987FD3395220F0D
:1017C000331F220F331F032E000C440B550B281917
:1017D00039094A095B09DB01653B710514F0A4EB8B
:1017E000B0E0B7FF02C0B0E0A0E00E94C61F24EB4B
:1017F00030E040E050E00E949C1F820E931EA41E29
:10180000B51EF701EC0DFD1DE759F64F2081203381
:1018100068F5318188E890E0831B910937FD939545
:10182000880F991F880F991F881699067CF03281BE
:1018300088E592E0831B910937FD9395880F991FE6
:10184000880F991F881699060CF4C4010297880F17
:10185000991F4FB7F89430E0F901EE0FFF1FE20F28
:10186000F31FE852F74F928381834FBF000F111F80
:10187000F801E15CF74FD183C083DF91CF911F91D5
:101880000F91FF90EF90DF90CF90BF90AF909F901F
:101890008F900895F82E8EEF800F8C3020F084ED1D
:1018A000800F833018F761E08F2D0E94E0042097AD
:1018B00029F460E08F2D0E94B204D8CFCF3FD1052C
:1018C00011F461E0F7CFF801E25EFC4FE491E150E2
:1018D000E23108F0B0C0F0E08827EE58F34F8F4FA8
:1018E0000C940B20840C890C8E0C980CA20C1B0DF4
:1018F000AC0CB40CBC0CC60CD00CDA0CE90CF30C20
:101900001B0DFD0C070D110D84B5806884BDC7BD8E
:10191000ADCF84B5806284BDC8BDA8CF8091800062
:10192000806880938000D0938900C09388009ECF08
:1019300080918000806280938000D0938B00C09360
:101940008A0094CF80918000886080938000D0933B
:101950008D00C0938C008ACF8091B0008068809306
:10196000B000C093B30082CF8091B00080628093BA
:10197000B000C093B4007ACF8091900080688093CB
:101980009000D0939900C093980070CF8091900000
:10199000806280939000D0939B00C0939A0066CFA2
:1019A00080919000886080939000D0939D00C093B8
:1019B0009C005CCF8091A00080688093A000809103
:1019C000A0008F7B8093A000D093A900C093A800B3
:1019D0004DCF8091A00080628093A000D093AB0097
:1019E000C093AA0043CF8091A00088608093A0009C
:1019F000D093AD00C093AC0039CF809120018068B6
:101A000080932001D0932901C09328012FCF80918A
:101A10002001806280932001D0932B01C0932A0182
:101A200025CF80912001886080932001D0932D01E3
:101A3000C0932C011BCFC038D1050CF042CF39CF59
:101A40009EEF980F943480F4E82FF0E0DF01A75068
:101A5000B84F9C91913041F4EE0FFF1FE15CF74FBE
:101A6000608371830C94B2040895FF920F931F93C7
:101A7000CF93DF931F921F92CDB7DEB7082F10E0F0
:101A8000F801E259FB4F9081F62EF92202521C4FC9
:101A9000411104C0F80190819F1511F12F2D30E004
:101AA0003A832983A091B607B091B7071097B1F098
:101AB000682F6F706069ED91FC9111970190F08132
:101AC000E02DCD01199522E030E0AE014F5F5F4F70
:101AD00062E070E086EB97E00E949105F801F082E9
:101AE0000F900F90DF91CF911F910F91FF9008956C
:101AF0000F931F93CF93DF93893008F071C0282F85
:101B000030E0F901E958FB4F6083672B09F468C0A6
:101B1000082F22593B4FF9011081D82FDD0FDD0F1F
:101B2000DD0F8EEF8D0F843450F4C12FC17010FF84
:101B300007C08D2F0E948904C1E0892B09F4C0E001
:101B40008FEF8D0F843448F411FF07C081E08D0FB3
:101B50000E948904892B09F0C26012FF07C082E04D
:101B60008D0F0E948904892B09F0C46013FF07C000
:101B700083E08D0F0E948904892B09F0C86014FF4F
:101B800007C084E08D0F0E948904892B09F0C06191
:101B900015FF07C085E08D0F0E948904892B09F08D
:101BA000C062D034A1F016FF07C086E08D0F0E94FE
:101BB0008904892B09F0C064DF3349F017FF07C09F
:101BC00087E08D0F0E948904892B09F0C06841E0ED
:101BD0006C2F802FDF91CF911F910F910C94350DB9
:101BE000DF91CF911F910F910895A82FB0E0A856D3
:101BF000BC4F9C91292F30E0F901EE0FFF1FE20F3F
:101C0000F31FE759F64FE0812E2F30E0F901EE0F78
:101C1000FF1FE20FF31FE852F74F80818F7B808315
:101C200080919603981308C0992319F091509093CE
:101C300096038FEF8C9308958823D9F3E09197034F
:101C4000EF5FE0939703F0E0ED5DFC4F9083F1CF01
:101C5000FC0101900020E9F73197BF01681B790B67
:101C6000AC0181E70C949106CF93DF93DB01909157
:101C70009603903378F530919703682F70E0FB015D
:101C8000E856FC4F3323E1F0C32FD0E0CD5DDC4FAD
:101C900088818083315030939703808123E0829F35
:101CA000C00111248759964F1A161B0674F4141696
:101CB00015065CF49A01AD01DF91CF910C943809BF
:101CC00090839F5F90939603E8CF20E639E040E24F
:101CD00052E0F2CF8DE292E0DF91CF910C94280E8A
:101CE00085ED8093BC008091DA049091DB04A09193
:101CF000DC04B091DD040796A11DB11D23E0B6956B
:101D0000A795979587952A95D1F72091BC0024FD3A
:101D100003C01092D80408954091DA045091DB0476
:101D20006091DC047091DD04452B462B472B69F351
:101D30000097A105B10541F025E32A95F1F70000D0
:101D40000197A109B109E1CF8091D9040C949C07B6
:101D50008F929F92BF92CF92DF92EF92FF920F935A
:101D60001F93CF93DF93C82ED12CE601CA58D84FCA
:101D7000FE01ED57FF4F90819F3709F4A1C09630C7
:101D800061F49091E703992341F06630710529F0E1
:101D90001092E7039FEF909300027B01182F0EEF44
:101DA000080F043408F564307105F1F0F601E856C7
:101DB000FC4F80818033C0F490E0FC01EE0FFF1FE8
:101DC000E80FF91FE759F64FE0818E2F90E0FC01F4
:101DD000EE0FFF1FE80FF91FE852F74F808186FFD3
:101DE00003C0812F0E94F50D5AECB52EB10E8FE085
:101DF0008B1558F061E070E032E0E316F10411F069
:101E000070E060E08B2D0E949D0A0434C8F4E12F3D
:101E1000E695E695E695F0E0E259FB4F2081312FFB
:101E2000377081E090E001C0880F3A95EAF7E1143D
:101E3000F10421F03BE0E316F10411F5822B8083DD
:101E40004601880C991CF401E15CF74F1182108265
:101E50008CE0E816F10408F0C8C0F7018827EC5CB4
:101E6000F04F8F4F0C940B20540F810F430F980F9E
:101E7000B20FF50FE90FF50FF50FF50F600F6C0FAF
:101E800080958223DCCF3FE03B15D0F0043420F472
:101E900060E0812F0E94E004CD57DF4F88818F37AB
:101EA00079F082E088830CC0043450F460E0812F24
:101EB0000E94E004CD57DF4F88818F3709F01882E8
:101EC000DF91CF911F910F91FF90EF90DF90CF9016
:101ED000BF909F908F900895043490F762E0812F17
:101EE0000E94E004CD57DF4F88818F3711F08BE0DF
:101EF0008883F401E15CF74F81E090E09183808377
:101F0000DFCF0434E8F6FE01ED57FF4F80818330C8
:101F100021F460E0812F0E94B20461E0812F0E94D1
:101F2000E004CD57DF4F88818F3751F281E0BACF7F
:101F30000C3020F084ED810F833010F661E0812FAA
:101F40000E94E00461E0812F0E94E00460E0812FA4
:101F50000E94B204CD57DF4F88818F3709F4B0CF8C
:101F600083E0A0CF043408F0ABCFCD57DF4F88819A
:101F70008F3711F084E08883F601E856FC4F8081AA
:101F80008F3FA9F090E0FC01EE0FFF1FE80FF91F53
:101F9000E759F64FE0818E2F90E0FC01EE0FFF1F16
:101FA000E80FF91FE852F74F808186FD89CF4FEF88
:101FB0005FEF6FEF7FEF812FDF91CF911F910F9137
:101FC000FF90EF90DF90CF90BF909F908F900C94F8
:101FD000340E1451123008F073CFCD57DF4F888183
:101FE0008F3709F46DCF86E05DCF81E492E0DF9119
:101FF000CF911F910F91FF90EF90DF90CF90BF9006
:102000009F908F900C94280E0F931F93CF93DF9384
:1020100081E08093E8038091E703882329F0109200
:10202000E7038FEF80930002E7E7F4E0CEE6D4E029
:10203000AEEDB3E0119219921D9284E0E038F807FA
:10204000C9F708E913E0C0E0DFEF8AEC8C0F62E02B
:1020500070E0803130F08EEF8C0F843428F461E032
:1020600070E08C2F0E94A80EF801D1938F01CF5FF2
:10207000C63459F71092AD041092AC041092970335
:10208000109296031092E803DF91CF911F910F9168
:1020900008954F925F926F927F928F929F92AF922C
:1020A000BF92DF92EF92FF920F931F93CF93DF9334
:1020B000D82E8B01D42FC22F6F3F760709F490C022
:1020C00081E08093DE04D09200051092DF0410922C
:1020D00001058CEC98E00E9406098C2F0E94BD0738
:1020E00080919403909195038230910538F0880F88
:1020F000991F880F991F05970197F1F70E943905DD
:102100004B015C018091D80481116CC0CD2FD1327C
:1021100008F0C0E281E08093D8048093D7049FEF59
:102120009093D6041092D5049C0F9093D40480937E
:10213000B3049091B3048D2D880F892B8093B30441
:102140008091B204813009F09EC01092B2040E94C6
:1021500039054B015C018091B3048093BB008091F1
:10216000DA049091DB04A091DC04B091DD04892BAA
:102170008A2B8B2BA1F00E9439054090DA045090F5
:10218000DB046090DC047090DD04681979098A0929
:102190009B09461657066806790608F444C08091E4
:1021A000BC0083FDD8CF85EC8093BC000E9439052C
:1021B0004B015C018091D804813009F466C08091A4
:1021C000D5048C1710F4C091D504A4EBB4E0EDEE67
:1021D000F3E080E08C1761F19D9191938F5FFACFCE
:1021E00000E08CCF8091DA049091DB04A091DC04B4
:1021F000B091DD04892B8A2B8B2B09F483CF0E94AD
:1022000039054090DA045090DB046090DC04709053
:10221000DD04681979098A099B094616570668067C
:10222000790608F06FCF8091D9040E949C07C0E026
:1022300010920E04C0930D04ED2EF12C8C2F90E023
:10224000E816F9060CF043C082E592E00E94280EE1
:10225000D09254030093550304E513E0C80184555C
:1022600093408E159F05D4F50F5F1F4F90910D047D
:1022700080910E04981791F18CEC98E00E94BF08B1
:10228000F8018183EBCF85EE8FCF8091DA049091B6
:10229000DB04A091DC04B091DD04892B8A2B8B2B0D
:1022A00009F488CF0E9439054090DA045090DB048D
:1022B0006090DC047090DD04681979098A099B0933
:1022C000461657066806790608F074CFACCF8E150F
:1022D0009F050CF0BDCF8FE692E0B8CFDE5F6D2F8B
:1022E00070E044E553E087E7DF91CF911F910F91B4
:1022F000FF90EF90DF90BF90AF909F908F907F9076
:102300006F905F904F900C949106EF92FF920F9315
:102310001F93CF93DF938956823108F035C0EA01CD
:10232000162FE82FF0E08827E756FE4E8F4F0C94CB
:102330000B20DC13C4114613C4119B13C4112413C6
:10234000C812C411C411C411C411C411AB11C411F9
:102350008C12C4110E13998195FF0AC08BE892E08C
:10236000DF91CF911F910F91FF90EF900C94280E69
:10237000888131E096FB222720F923279871983035
:10238000D1F148F49923A9F0DF91CF911F910F91DA
:10239000FF90EF900895903109F44CC09831A1F767
:1023A0002091000212160CF472C08FEF809300028D
:1023B000EBCF3093DE04809300051092DF0410927F
:1023C000010502E0011778F4FE01E00FF11D6181C3
:1023D0006795662767958081680F8CEC98E00E946E
:1023E00006090E5FEFCF81E00E94BD0783E191E017
:1023F0000197F1F7C9CF9A814B816630A1F430E89B
:10240000439FB0011124690F711D4D8147954427E9
:1024100047959C81490FDF91CF911F910F91FF90BC
:10242000EF900C944910479544274795490F6FEF5B
:102430007FEFF1CFE0910002E7301CF08BEA92E0F1
:102440008FCF3A819B816630D9F460E8969FA001D6
:102450001124430F511D9D819795992797953C8194
:10246000930FEF5FE093000235E0E302F0011124E7
:10247000EC57FB4F8083528341839383248384CF23
:10248000979599279795930F4FEF5FEFEACF90E0DD
:10249000622F022E000C770B35E0492F50E06417B5
:1024A000750764F0349FF001359FF00D1124EC574F
:1024B000FB4F4081481719F09F5FEFCF90E085E018
:1024C000492F50E0641775071CF19830F8F4FA01B1
:1024D00031968E9FD0018F9FB00D1124AC57BB4F0A
:1024E0003C91849FF001859FF00D1124EC57FB4F28
:1024F000308311964D915C911297528341831396CC
:102500003C911397338314963C9134839F5FD8CFCB
:1025100021502093000238CF623078F0898160E842
:10252000869F900111248881820F932F911D00971F
:1025300021F090939503809394038091E703811198
:1025400023CFC0E08CEE8C0F823028F466E070E080
:102550008C2F0E94A80ECF5FC634A1F781E0809334
:10256000E70310920E0410920D041092DF041092F3
:1025700001050E947E078DEA98E0909331048093D4
:1025800030048EEA98E09093350480933404FCCEB6
:10259000653008F4F9CE18818EEF810F843408F08D
:1025A000F3CE0981EA80FB80CC81E12FF0E0E85690
:1025B000FC4F80818033C0F490E0FC01EE0FFF1FE0
:1025C000E80FF91FE759F64FE0818E2F90E0FC01EC
:1025D000EE0FFF1FE80FF91FE852F74F808186FFCB
:1025E00003C0812F0E94F50D80E8C89FA00111242F
:1025F0004F0D511D90E8E99EB0011124600F711D2F
:10260000812F0E94340E64E070E0812FDF91CF9122
:102610001F910F91FF90EF900C94A80E623008F478
:10262000B3CE8981E0E88E9F900111248881820FCA
:10263000932F911D009729F090930202809301023D
:10264000A3CE81E090E0F8CF623008F49DCE69819E
:1026500070E0123091F08A81F0E88F9FC001112460
:10266000682B792B133049F08B8190E090E4899F9F
:10267000902D88271124682B792B8881DF91CF91A9
:102680001F910F91FF90EF900C94950B80EF0E949B
:1026900060028CE60E946002CEEF8CEC8C0F8031E1
:1026A00008F040C082E00E9460028AE00E9460025E
:1026B00086ED8C0F8330C0F1C43430F484E00E9486
:1026C00060028EE00E9460028EEE8C0F823030F449
:1026D00086E00E94600281E00E9460028FE70E9413
:1026E0006002CF5FC43449F487EFDF91CF911F912F
:1026F0000F91FF90EF900C946002C43470F680E06C
:102700000E94600281E00E9460028BE00E946002F1
:1027100081E00E94600281E00E94600281E00E94EC
:102720006002BBCFCC3020F683E00E94600288E0DC
:102730000E946002C1CF662309F426CEC88180EFD3
:102740000E9460028EE60E9460028C2F0E9460024E
:10275000C63450F6D0E0FE01E750F84F80810E9469
:102760006002CC0FDD1F8E01015C174FF8018081E4
:102770008F770E946002F801808191819C0120780E
:10278000232B39F0880F892F881F990B8F770E9490
:102790006002C15CD74F888199819C012227307CDF
:1027A000232B09F4A1CF990F880B990F982F881F1D
:1027B0008F770E94600298CF80EF0E9460028AE6C5
:1027C0000E946002CAEC8FE7C03108F48C2F0E948F
:1027D0006002CF5FC031B9F787CF1F920F920FB65B
:1027E0000F9211240BB60F922F933F934F935F9349
:1027F0006F937F938F939F93AF93BF93EF93FF93C9
:1028000082E095E00E946E03FF91EF91BF91AF913E
:102810009F918F917F916F915F914F913F912F91F8
:102820000F900BBE0F900FBE0F901F9018951F9228
:102830000F920FB60F9211240BB60F922F933F9366
:102840004F935F936F937F938F939F93AF93BF93B8
:10285000EF93FF9382E095E00E94F002FF91EF91E9
:10286000BF91AF919F918F917F916F915F914F91A8
:102870003F912F910F900BBE0F900FBE0F901F90A6
:1028800018951F920F920FB60F9211240BB60F924C
:102890002F933F934F935F936F937F938F939F9368
:1028A000AF93BF93EF93FF938FE995E00E946E0380
:1028B000FF91EF91BF91AF919F918F917F916F9118
:1028C0005F914F913F912F910F900BBE0F900FBED4
:1028D0000F901F9018951F920F920FB60F92112410
:1028E0000BB60F922F933F934F935F936F937F930A
:1028F0008F939F93AF93BF93EF93FF938FE995E0EF
:102900000E94F002FF91EF91BF91AF919F918F9143
:102910007F916F915F914F913F912F910F900BBEDF
:102920000F900FBE0F901F9018951F920F920FB629
:102930000F9211240BB60F922F933F934F935F93F7
:102940006F937F938F939F93AF93BF93EF93FF9377
:102950008CE396E00E946E03FF91EF91BF91AF91DF
:102960009F918F917F916F915F914F913F912F91A7
:102970000F900BBE0F900FBE0F901F9018951F92D7
:102980000F920FB60F9211240BB60F922F933F9315
:102990004F935F936F937F938F939F93AF93BF9367
:1029A000EF93FF938CE396E00E94F002FF91EF918A
:1029B000BF91AF919F918F917F916F915F914F9157
:1029C0003F912F910F900BBE0F900FBE0F901F9055
:1029D00018951F920F920FB60F9211240BB60F92FB
:1029E0002F933F934F935F936F937F938F939F9317
:1029F000AF93BF93EF93FF9389ED96E00E946E0330
:102A0000FF91EF91BF91AF919F918F917F916F91C6
:102A10005F914F913F912F910F900BBE0F900FBE82
:102A20000F901F9018951F920F920FB60F921124BE
:102A30000BB60F922F933F934F935F936F937F93B8
:102A40008F939F93AF93BF93EF93FF9389ED96E09E
:102A50000E94F002FF91EF91BF91AF919F918F91F2
:102A60007F916F915F914F913F912F910F900BBE8E
:102A70000F900FBE0F901F9018951F920F920FB6D8
:102A80000F9211242F933F938F939F93AF93BF93F4
:102A90008091800490918104A0918204B09183047C
:102AA0003091590423E0230F2D3758F50196A11DCD
:102AB000B11D209359048093800490938104A093C6
:102AC0008204B093830480915A0490915B04A09196
:102AD0005C04B0915D040196A11DB11D80935A0460
:102AE00090935B04A0935C04B0935D04BF91AF919D
:102AF0009F918F913F912F910F900FBE0F901F903C
:102B0000189526E8230F0296A11DB11DD2CF1F9262
:102B10000F920FB60F9211240F900FBE0F901F90BF
:102B200018951F920F920FB60F9211240BB60F92A9
:102B30002F933F934F935F936F937F938F939F93C5
:102B4000AF93BF93EF93FF938091B900887F803656
:102B500009F44DC008F040C0883209F4A9C028F536
:102B6000803109F49DC0C8F4882309F4FBC0883083
:102B700009F496C0FF91EF91BF91AF919F918F9112
:102B80007F916F915F914F913F912F910F900BBE6D
:102B90000F900FBE0F901F901895883109F488C0D0
:102BA000803241F78093D60414C0803409F49DC06C
:102BB00040F48033B9F38833E9F68093D60485EC8A
:102BC000B0C0803509F485C0883509F496C08834D2
:102BD00089F60E94700ECECF883909F48CC038F582
:102BE000883729F050F4883611F0803719F683E0E1
:102BF0008093D8041092560457C0883809F47BC0DB
:102C0000803919F0803809F0B5CF809156048032B0
:102C100008F071C0E091560481E08E0F8093560455
:102C20008091BB00F0E0EA5CFB4F80833DC0803BBD
:102C300039F0E0F4803A09F479C0883A09F09ACF83
:102C400084E08093D8041092330410923204E0910F
:102C50003004F091310419958091320481110FC034
:102C600081E0809332041092100409C0803C09F482
:102C7000A6CF883C09F4A3CF883B09F07BCFE09135
:102C8000330481E08E0F80933304F0E0E05FFB4F6C
:102C900080818093BB00909133048091320429C0DD
:102CA0008091B3048093BB0085EC8093BC0062CF1D
:102CB0009091D5048091D404981758F5E091D504EB
:102CC00081E08E0F8093D504F0E0EC54FB4F8081BF
:102CD000E9CFE091D50481E08E0F8093D5048091F7
:102CE000BB00F0E0EC54FB4F80839091D5048091C1
:102CF000D4049817C8F285E8D8CFE091D50481E0D4
:102D00008E0F8093D5048091BB00F0E0EC54FB4F14
:102D100080838091D70481115CCF81E08093B204DD
:102D200084EA8093BC001092D80424CF85EC809371
:102D3000BC001092D80480915604803230F4E091A7
:102D40005604F0E0EA5CFB4F10826091560470E09C
:102D5000E0913404F091350486E394E019951092E3
:102D6000560408CF1092D60434CF1F920F920FB69C
:102D70000F9211240BB60F922F933F934F935F93B3
:102D80006F937F938F939F93AF93BF93EF93FF9333
:102D900048E251E064E271E090E080E00E94E309E3
:102DA000FF91EF91BF91AF919F918F917F916F9123
:102DB0005F914F913F912F910F900BBE0F900FBEDF
:102DC0000F901F9018951F920F920FB60F9211241B
:102DD0000BB60F922F933F934F935F936F937F9315
:102DE0008F939F93AF93BF93EF93FF9348EA50E085
:102DF00064EA70E083E090E00E94E309FF91EF91C4
:102E0000BF91AF919F918F917F916F915F914F9102
:102E10003F912F910F900BBE0F900FBE0F901F9000
:102E200018951F920F920FB60F9211240BB60F92A6
:102E30002F933F934F935F936F937F938F939F93C2
:102E4000AF93BF93EF93FF9348E950E064E970E0DC
:102E500082E090E00E94E309FF91EF91BF91AF9172
:102E60009F918F917F916F915F914F913F912F91A2
:102E70000F900BBE0F900FBE0F901F9018951F92D2
:102E80000F920FB60F9211240BB60F922F933F9310
:102E90004F935F936F937F938F939F93AF93BF9362
:102EA000EF93FF9348E850E064E870E081E090E041
:102EB0000E94E309FF91EF91BF91AF919F918F9194
:102EC0007F916F915F914F913F912F910F900BBE2A
:102ED0000F900FBE0F901F9018951092050510923D
:102EE000040588EE93E0A0E0B0E08093060590939F
:102EF0000705A0930805B09309052DE032E0309353
:102F000003052093020545E351E050930F054093DC
:102F10000E0544E351E0509311054093100540E342
:102F200051E0509313054093120541E351E0509353
:102F300015054093140542E351E050931705409363
:102F4000160546E351E05093190540931805109279
:102F50001B0510921C0510921D0510921E05109263
:102F6000A2051092A1058093A3059093A405A093B8
:102F7000A505B093A6053093A00520939F0545EDC8
:102F800050E05093AC054093AB0544ED50E05093B6
:102F9000AE054093AD0540ED50E05093B005409331
:102FA000AF0541ED50E05093B2054093B10542EDBD
:102FB00050E05093B4054093B30546ED50E0509374
:102FC000B6054093B5051092B8051092B905109258
:102FD000BA051092BB0510923F0610923E068093F0
:102FE000400690934106A0934206B0934306309367
:102FF0003D0620933C064DEC50E05093490640932B
:1030000048064CEC50E050934B0640934A0648EC7F
:1030100050E050934D0640934C0649EC50E05093DD
:103020004F0640934E064AEC50E0509351064093B1
:1030300050064EEC50E050935306409352061092C7
:103040005506109256061092570610925806109286
:10305000DC061092DB068093DD069093DE06A093DB
:10306000DF06B093E0063093DA062093D90625EC0C
:1030700030E03093E6062093E50624EC30E0309310
:10308000E8062093E70620EC30E03093EA06209330
:10309000E90621EC30E03093EC062093EB0622ECBD
:1030A00030E03093EE062093ED0626EC30E03093CE
:1030B000F0062093EF061092F2061092F30610929B
:1030C000F4061092F50626E737E01092B707109243
:1030D000B6073093BA072093B90740E450E0509305
:1030E000BC074093BB071092BD071092BE07109219
:1030F000C0071092BF071092C1071092C307109229
:10310000C2071092C5071092C4071092C707109209
:10311000C6071092C9071092C8071092CB071092E9
:10312000CA071092CD071092CC071092CF071092C9
:10313000CE071092D5071092D4071092D70710929D
:10314000D6071092D9071092D8071092DB07109279
:10315000DA071092E9071092E8071092B807109268
:10316000F6071092F8071092F7071092CB0846EE78
:1031700051E05093DD074093DC0740EF51E050935E
:10318000DF074093DE074AEF51E05093E107409399
:10319000E00744E052E05093E3074093E2074EE03B
:1031A00052E05093E5074093E40748E152E0509322
:1031B000E7074093E60742E252E05093EB07409363
:1031C000EA0743E252E05093ED074093EC0742E5F3
:1031D00057E05093EF074093EE073093D1072093C9
:1031E000D0074CEB52E05093F1074093F007309337
:1031F000D3072093D2072EE232E03093F3072093D7
:10320000F2071092CF081092CE088093D0089093C6
:10321000D108A093D208B093D3088FE192E09093A5
:10322000CD088093CC08E9E6F9E02FEF48EB5BE0AE
:10323000809168098033B8F491E0980F9093680901
:10324000808390E0DC01AA0FBB1FA80FB91FA85212
:10325000B74F12965C934E931197339689E0E93FEE
:10326000F80731F708952083F8CF789484B5826009
:1032700084BD84B5816084BD85B5826085BD85B51A
:10328000816085BD80916E00816080936E00109298
:103290008100809181008260809381008091810013
:1032A00081608093810080918000816080938000A4
:1032B0008091B10084608093B1008091B000816002
:1032C0008093B00080919100826080939100809102
:1032D0009100816080939100809190008160809343
:1032E00090008091A10082608093A1008091A10054
:1032F00081608093A1008091A00081608093A000F4
:10330000809121018260809321018091210181605F
:103310008093210180912001816080932001809120
:103320007A00846080937A0080917A008260809332
:103330007A0080917A00816080937A0080917A008F
:10334000806880937A001092C10085E18093F6072F
:103350008091F7079091F8070E94AF20C091F6077F
:10336000D0E0CE0101960E9413209093F80780933D
:10337000F707FC01EC0FFD1F108212E0DC011C932B
:1033800025E011962C93AE01425051096FE073E095
:1033900002960E94382185E99BE09093690480930E
:1033A00068048AEC9AE090936704809366048DE940
:1033B0009AE0909365048093640488E79DE090937D
:1033C00063048093620488EA9EE090936104809392
:1033D000600480E29DE090935F0480935E0485E842
:1033E00091E190936B0480936A0484E090E1909360
:1033F0006D0480936C04E091E906F091EA06108375
:10340000E091E906F091EA061082E091E506F0917C
:10341000E6061082E091E706F091E80680E18083FD
:103420001092F106E091ED06F091EE0686E08083C1
:10343000E091EB06F091EC06808180618083E09161
:10344000EB06F091EC06808188608083E091EB06CA
:10345000F091EC06808180688083E091EB06F0912A
:10346000EC0680818F7D80838091CB0881114FC0D5
:1034700061E08DE00E94E00462ED70E080E090E0A9
:103480000E945E0561E08DE00E94B20468E270E097
:1034900080E090E00E945E0560E08DE00E94B20452
:1034A00062ED70E080E090E00E945E0561E08DE0FA
:1034B0000E94B20468E270E080E090E00E945E0545
:1034C00060E08DE00E94B2046AEF70E080E090E07E
:1034D0000E945E05C5E062ED70E080E090E00E9431
:1034E0005E0561E08DE00E94B20468E270E080E079
:1034F00090E00E945E0560E08DE00E94B204C15041
:1035000051F76DE770E080E090E00E945E0589ED84
:1035100096E09093F5078093F4079093B707809314
:10352000B60786EB97E00E94360286E797E00E9496
:10353000DE060E940410D5E0DD24D39402E010E002
:10354000EE24E394F12C80917704882391F1C090CC
:103550006E04C2FCE1C2C0E0C3FE06C083E00E946C
:103560008904892B09F0C860C4FE06C084E00E946B
:103570008904892B09F0C061C5FE06C085E00E9460
:103580008904892B09F0C062C6FE06C086E00E944D
:103590008904892B09F0C064C7FE06C087E00E9439
:1035A0008904892B09F0C06840E06C2F80E00E94FC
:1035B000350D80917804882309F44AC0C0906F04C7
:1035C000CC2DC170C0FE07C088E00E948904C1E014
:1035D000892B09F4C0E0C1FE06C089E00E9489047D
:1035E000892B09F0C260C2FE06C08AE00E948904ED
:1035F000892B09F0C460C3FE06C08BE00E948904D9
:10360000892B09F0C860C4FE06C08CE00E948904C2
:10361000892B09F0C061C5FE06C08DE00E948904B7
:10362000892B09F0C062C6FE06C08EE00E948904A4
:10363000892B09F0C064C7FE06C08FE00E94890490
:10364000892B09F0C06840E06C2F81E00E94350DA5
:1036500080917904882309F44AC0C0907004CC2D6D
:10366000C170C0FE07C080E10E948904C1E0892BBF
:1036700009F4C0E0C1FE06C081E10E948904892BE3
:1036800009F0C260C2FE06C082E10E948904892B53
:1036900009F0C460C3FE06C083E10E948904892B3F
:1036A00009F0C860C4FE06C084E10E948904892B29
:1036B00009F0C061C5FE06C085E10E948904892B1E
:1036C00009F0C062C6FE06C086E10E948904892B0B
:1036D00009F0C064C7FE06C087E10E948904892BF7
:1036E00009F0C06840E06C2F82E00E94350D8091A7
:1036F0007A04882309F44AC0C0907104CC2DC170AB
:10370000C0FE07C088E10E948904C1E0892B09F44A
:10371000C0E0C1FE06C089E10E948904892B09F03E
:10372000C260C2FE06C08AE10E948904892B09F0AA
:10373000C460C3FE06C08BE10E948904892B09F096
:10374000C860C4FE06C08CE10E948904892B09F080
:10375000C061C5FE06C08DE10E948904892B09F075
:10376000C062C6FE06C08EE10E948904892B09F062
:10377000C064C7FE06C08FE10E948904892B09F04E
:10378000C06840E06C2F83E00E94350D80917B047F
:10379000882309F44AC0C0907204CC2DC170C0FEC9
:1037A00007C080E20E948904C1E0892B09F4C0E0CF
:1037B000C1FE06C081E20E948904892B09F0C26023
:1037C000C2FE06C082E20E948904892B09F0C4600F
:1037D000C3FE06C083E20E948904892B09F0C860F9
:1037E000C4FE06C084E20E948904892B09F0C061EE
:1037F000C5FE06C085E20E948904892B09F0C062DB
:10380000C6FE06C086E20E948904892B09F0C064C6
:10381000C7FE06C087E20E948904892B09F0C068B0
:1038200040E06C2F84E00E94350D80917C04882359
:1038300009F44AC0C0907304CC2DC170C0FE07C00B
:1038400088E20E948904C1E0892B09F4C0E0C1FE2E
:1038500006C089E20E948904892B09F0C260C2FE79
:1038600006C08AE20E948904892B09F0C460C3FE65
:1038700006C08BE20E948904892B09F0C860C4FE4F
:1038800006C08CE20E948904892B09F0C061C5FE44
:1038900006C08DE20E948904892B09F0C062C6FE31
:1038A00006C08EE20E948904892B09F0C064C7FE1D
:1038B00006C08FE20E948904892B09F0C06840E0AD
:1038C0006C2F85E00E94350D80917D04882309F4DA
:1038D0004AC0C0907404CC2DC170C0FE07C080E304
:1038E0000E948904C1E0892B09F4C0E0C1FE06C032
:1038F00081E30E948904892B09F0C260C2FE06C0E0
:1039000082E30E948904892B09F0C460C3FE06C0CB
:1039100083E30E948904892B09F0C860C4FE06C0B5
:1039200084E30E948904892B09F0C061C5FE06C0AA
:1039300085E30E948904892B09F0C062C6FE06C097
:1039400086E30E948904892B09F0C064C7FE06C083
:1039500087E30E948904892B09F0C06840E06C2F3E
:1039600086E00E94350D80917E04882309F44AC0C8
:10397000C0907504CC2DC170C0FE07C088E30E94C2
:103980008904C1E0892B09F4C0E0C1FE06C089E3C7
:103990000E948904892B09F0C260C2FE06C08AE336
:1039A0000E948904892B09F0C460C3FE06C08BE322
:1039B0000E948904892B09F0C860C4FE06C08CE30C
:1039C0000E948904892B09F0C061C5FE06C08DE301
:1039D0000E948904892B09F0C062C6FE06C08EE3EE
:1039E0000E948904892B09F0C064C7FE06C08FE3DA
:1039F0000E948904892B09F0C06840E06C2F87E0A1
:103A00000E94350D80917F048823D1F1C090760407
:103A1000CC2DC170C0FE07C080E40E948904C1E0C3
:103A2000892B09F4C0E0C1FE06C081E40E9489042C
:103A3000892B09F0C260C2FE06C082E40E9489049C
:103A4000892B09F0C460C3FE06C083E40E94890488
:103A5000892B09F0C860C4FE06C084E40E94890472
:103A6000892B09F0C061C5FE06C085E40E94890467
:103A7000892B09F0C06240E06C2F88E00E94350D70
:103A80008091F4079091F507DC01ED91FC910084A1
:103A9000F185E02D1995892B09F4D7C18091F407A0
:103AA0009091F507DC01ED91FC910284F385E02D06
:103AB00019959C018F3F980719F3982F8091C107A2
:103AC000882309F49BC0973F09F087C01092C10773
:103AD000A091B907B091BA076C91613709F440C061
:103AE000693709F064C0E091EE07F091EF07309775
:103AF00039F28091C2079091C30783309105A0F4F9
:103B000030E020E050E040E070E060E08091D007DD
:103B10009091D1071995B4CF82E00E948904892B36
:103B200009F419CDC4E018CDBD016D5F7F4F039737
:103B30000E949D02BC016D5F7F4F80E00E946D027C
:103B4000E091B907F091BA079F012D5F3F4F428185
:103B500050E0618170E0E091EE07F091EF07D6CF81
:103B60008091EA079091EB07892B09F489CFBD0179
:103B70006F5F7F4F8091C2079091C30701970E94AA
:103B80009D02BC016F5F7F4F80E00E946D026091DB
:103B9000B9077091BA076F5F7F4FE091EA07F09124
:103BA000EB078091D6079091D707199569CFE091DF
:103BB000EC07F091ED07309709F462CF9D012F5F7C
:103BC0003F4F4091C2075091C30741505109809126
:103BD000D8079091D907199553CF6091C20770917A
:103BE000C307822F0E946D028091C2079091C30784
:103BF00001969093C3078093C20742CF6091BF079D
:103C00007091C0076115710509F4B1C027FDAFC0FF
:103C1000615071097093C0076093BF07822F0E94A3
:103C20006D028091BF079091C007892B09F028CFC2
:103C30008091BD07882309F423CF803D09F483C018
:103C400040F4803949F1803C09F469C01092BD0705
:103C500017CF843FE1F1853F09F44DC0803EB1F7B5
:103C6000E091DC07F091DD07309781F3A091B9076F
:103C7000B091BA074C9120E8429FC00111241196DF
:103C80004C91480F592F511D6091BE078091C40778
:103C90009091C5071995DACFE091DE07F091DF0723
:103CA0003097A1F2A091B907B091BA074C9120E8E2
:103CB000429FC001112411964C91480F592F511D5C
:103CC0006091BE078091C6079091C707E3CFE0914E
:103CD000E407F091E507309709F4B8CFA091B90750
:103CE000B091BA074C9150E011966C918091CC073D
:103CF0009091CD07CFCFE091E607F091E70730979D
:103D000009F4A4CFA091B907B091BA074C9150E043
:103D100011966C918091CE079091CF07BBCFE09127
:103D2000E007F091E107309709F490CFA091B9072F
:103D3000B091BA074C9150E06091BE078091C807DE
:103D40009091C907A7CFE091E207F091E307309780
:103D500009F47CCFA091B907B091BA074C9150E01B
:103D60006091BE078091CA079091CB0793CF903F97
:103D700030F4822F8F708093BE07922F907F903FF8
:103D8000F1F190F4903CB1F150F4903909F078CE13
:103D90001093C0070093BF079093BD0771CE903D6D
:103DA00049F1903EA9F36CCE993F09F442C028F442
:103DB0008CE0890F823060F363CE9F3F09F060CEC4
:103DC0001092C0071092BF071092BD071092BE0755
:103DD00090E080E02091BB073091BC0782179307E9
:103DE000A8F4E091B907F091BA07E80FF91F108223
:103DF0000196F0CFF092C007E092BF07CDCFD092EE
:103E0000C1071092C3071092C2073ACE1092C107A1
:103E10001092C3071092C207E091F207F091F307E6
:103E20008091DA079091DB07309709F429CE199534
:103E300027CEE091F007F091F107309709F420CEFA
:103E40008091D2079091D307F2CF8FB7F8948090EA
:103E5000800490908104A0908204B09083048FBF6E
:103E60008091AE049091AF04A091B004B091B104E0
:103E7000409101025091020270E060E0881A990AB4
:103E8000AA0ABB0A481559056A057B0508F051C006
:103E9000840F951FA61FB71F8093AE049093AF04A5
:103EA000A093B004B093B10486E7A82E87E0B82EA3
:103EB000CAECC031C8F4F501ED57FF4F8081823064
:103EC00099F48091AC049091AD040C2E02C09595AC
:103ED00087950A94E2F780FF07C08C2F0E941C058B
:103EE000BC018C2F0E943006CF5F8FEFA81AB80A52
:103EF000C031F9F68091000287FD1BC0C0E02C2F75
:103F000030E080910002082E000C990B8217930775
:103F100084F0D29FF001D39FF00D1124EC57FB4F9A
:103F2000618172812481438180810E944910CF5F29
:103F3000E6CF0E94FD0307CB052E97FB1EF40094ED
:103F40000E94B31F57FD07D00E94CE1F07FC03D06D
:103F50004EF40C94B31F50954095309521953F4FEA
:103F60004F4F5F4F089590958095709561957F4F65
:103F70008F4F9F4F08950E94F01FA59F900DB49FF3
:103F8000900DA49F800D911D11240895B7FF0C94EE
:103F9000BB1F0E94BB1F821B930B0895A1E21A2E28
:103FA000AA1BBB1BFD010DC0AA1FBB1FEE1FFF1FDD
:103FB000A217B307E407F50720F0A21BB30BE40B2D
:103FC000F50B661F771F881F991F1A9469F7609574
:103FD0007095809590959B01AC01BD01CF0108952E
:103FE000A29FB001B39FC001A39F700D811D11243A
:103FF000911DB29F700D811D1124911D0895991B73
:1040000079E004C0991F961708F0961B881F7A95CF
:10401000C9F780950895EE0FFF1F881F8BBF07908B
:10402000F691E02D19940F931F93CF93DF93823075
:10403000910510F482E090E0E091FB09F091FC0919
:1040400030E020E0B0E0A0E0309799F42115310590
:1040500009F44AC0281B390B24303105D8F58A8170
:104060009B816115710589F1FB0193838283FE01B8
:1040700011C0408151810281138148175907E0F036
:104080004817590799F4109761F012960C931297FC
:1040900013961C933296CF01DF91CF911F910F9110
:1040A00008950093FB091093FC09F4CF2115310505
:1040B00051F04217530738F0A901DB019A01BD0105
:1040C000DF01F801C1CFEF01F9CF9093FC09809394
:1040D000FB09CDCFFE01E20FF31F81939193225094
:1040E000310939832883D7CF2091F9093091FA0912
:1040F000232B41F420910502309106023093FA09F6
:104100002093F90920910302309104022115310511
:1041100041F42DB73EB74091070250910802241B8D
:10412000350BE091F909F091FA09E217F307A0F4D1
:104130002E1B3F0B2817390778F0AC014E5F5F4FFD
:104140002417350748F04E0F5F1F5093FA0940932C
:10415000F909819391939FCFF0E0E0E09CCFCF935A
:10416000DF930097E9F0FC01329713821282A0914D
:10417000FB09B091FC09ED0130E020E01097A1F4BB
:1041800020813181820F931F2091F9093091FA0922
:104190002817390709F061C0F093FA09E093F9098B
:1041A000DF91CF910895EA01CE17DF07E8F54A8144
:1041B0005B819E0141155105B1F7E901FB83EA835B
:1041C00049915991C40FD51FEC17FD0761F4808107
:1041D00091810296840F951FE901998388838281DA
:1041E00093819B838A83F0E0E0E012968D919C910D
:1041F00013970097B9F52D913C911197CD01029637
:10420000820F931F2091F9093091FA092817390775
:1042100039F6309751F51092FC091092FB09B093D2
:10422000FA09A093F909BCCFD383C283408151819D
:10423000840F951FC817D90761F44E5F5F4F8881BF
:104240009981480F591F518340838A819B819383B1
:1042500082832115310509F0B0CFF093FC09E0937A
:10426000FB099ECFFD01DC01C0CF13821282D7CFA4
:10427000FB01DC014150504048F001900D920020BC
:10428000C9F701C01D9241505040E0F70895F894DD
:02429000FFCF5E
:10429200FF13000000FD098000000000009003C32E
:1042A200020903DD033A0318032C03000000000691
:1042B20009D9083509AF08D208BF08B0084D61789E
:1042C20020736572766F73206174746163686564CC
:1042D20000556E6B6E6F776E2070696E206D6F6425
:1042E20065004932433A20546F6F206D616E792028
:1042F20062797465732072656365697665640049E5
:1043020032433A20546F6F20666577206279746574
:10431200732072656365697665640031302D626968
:10432200742061646472657373696E67206E6F7462
:1043320020737570706F7274656400746F6F206D96
:10434200616E792071756572696573002F417070B5
:104352006C69636174696F6E732F41726475696E03
:104362006F2E6170702F436F6E74656E74732F4A77
:104372006176612F6C69627261726965732F466939
:10438200726D6174612F6578616D706C65732F5306
:1043920074616E646172644669726D6174612F53F7
:1043A20074616E646172644669726D6174612E69D2
:0443B2006E6F00002A
:00000001FF
