:100000000C94D5010C9406020C9406020C94060282
:100010000C9406020C9406020C9406020C94060240
:100020000C9406020C94821A0C94821A0C94821A74
:100030000C9406020C9406020C9406020C94060220
:100040000C9406020C94AC1C0C9406020C94060250
:100050000C9406020C9406020C9406020C94381AB6
:100060000C9406020C940E1A0C94E4190C940602DB
:100070000C9406020C9406020C9406020C940602E0
:100080000C947E1C0C9406020C9406020C9406023E
:100090000C94BA190C9490190C9406020C94FE1A44
:1000A0000C9406020C9406020C94501C0C9406024C
:1000B0000C9406020C9406020C9406020C94221C6A
:1000C0000C9406020C9406020C9406020C94661919
:1000D0000C943C190C9406020C9412190C94E81818
:1000E0000C9406020C9445020C943A020C942602DD
:1000F0000C94270F0C941C020C94EF040C949107A1
:100100000C94F5040C9464160C94060B0C944F0F8D
:100110000C942E180C94C2040C94D0040C94DB188C
:100120000C94C8040C9487090C9485070C94AE03B6
:100130000C94F00E0C94E20A0C94450F0C943002CF
:100140000C94D0140C94DA1C0C94E40A0C94500215
:100150000C94E7040C94310F0C94BC030C94FD0434
:100160000C943B0F0C94F9040C9490060C947417A7
:100170000C94D4040C94B80E0C940C180C94EB044E
:100180000C94FE0C0C94E00E0C9402050C943F149D
:100190000C941D0F0C94C8140C9454140C947B13E1
:1001A0000C94B0170C94DF140C9498070C94F30A79
:1001B0000C947F070C9412040C9444020C941614B3
:1001C0000C940D0B0C9482070C9407050C94950766
:1001D0000C94CC040C9493160C94CC0E0C94DD046B
:1001E0000C9412020C9491060C94B6070C94A41073
:1001F0000C9489070C94D60E0C9478060C94AC0FD2
:100200000C94540F0C9485140C94FA0E0C94CA1888
:100210000C946B140C94C20E0C949A030C9403056A
:100220000C9489180C94690B0C948D070C945F0442
:100230000C94BC140C94D10C0C94F6170C94C210B2
:100240000C940E0F0C9408020C94AC160C94D7046A
:100250000C948B030C94E1040C947C070C944503E0
:100260000C943A0B0C94BD0E0C9405070C94E80EFC
:100270000C94C90D0C94E30A0C9427140C94ED060D
:100280000C943E030C94040F00002100240027006E
:100290002A002D0030003300010100000401070195
:1002A0000A0100000A0B02090C0D0E0807030401E5
:1002B000000000000000000000000000000000003E
:1002C000000000000000000000000000000012110B
:1002D000100000000000000000000000000000000E
:1002E00000000000000000000000200023002600A5
:1002F00029002C002F00320000010000030106013C
:10030000090100002200250028002B002E003100EA
:10031000340002010000050108010B010505050577
:10032000070508080808020202020A0A080804046D
:10033000040401010101010101010303030303039B
:100340000303040707070C0C0C0C0C0C0C0C02022A
:10035000020206060606060606060B0B0B0B0B0B27
:100360000B0B0102102020080810204010204080B4
:100370000201020108040201010204081020408069
:1003800080402010080402018004020180402010F7
:100390000804020108040201010204081020408040
:1003A0000102040810204080DA1C11241FBECFEF88
:1003B000D1E2DEBFCDBF00E00CBF13E0A0E0B2E0B1
:1003C000E4E8FEE400E00BBF02C007900D92AE36F9
:1003D000B107D9F72AE0AEE6B3E001C01D92A43B15
:1003E000B207E1F711E0C5EDD1E000E006C02197CA
:1003F0000109802FFE010E94F025C43DD10780E055
:100400000807A9F70E94BB1E0C9440270C9400001B
:10041000862FE091F204F091F304309711F0BA01C5
:1004200019940895862FE091F004F091F10430972B
:1004300011F0BA0119940895862FE091EE04F0911D
:10044000EF04309711F0BA0119940895862FE091C6
:10045000EC04F091ED04309711F0BA01199408956D
:10046000862FE091EA04F091EB04309711F0BA0185
:1004700019940895862FE091E804F091E9043097EB
:1004800011F0BA01199408950895862F642FE09110
:10049000F404F091F504309711F0A901199408952E
:1004A000E091F604F091F704309709F0199408955B
:1004B000A0918008B0918108ED91FC911197019075
:1004C000F081E02D682FCD0119941F93CF93DF9316
:1004D000182FEB0180914708909148086817790719
:1004E00060F48091450890914608C80FD91F188381
:1004F00080E0DF91CF911F910895E0917408F09111
:100500007508309711F481E0F4CF81E080934408BE
:1005100080916008909161081995809147089091A9
:100520004808C817D90778F7DCCFCF93DF93EC01E1
:10053000FB0130E020E0C901880F991F8C179D074F
:1005400078F44081DB014D93BD011197918197951E
:1005500099279795942B9C932F5F3F4F3296EBCF23
:10056000C901DF91CF910895CF92DF92EF92FF9270
:10057000CF93DF93EC016A017B01E889F98982E07E
:100580008083C11481EED806E104F104A1F060E09B
:1005900079E08DE390E0A70196010E949F2521500C
:1005A00031094109510956954795379527952115E8
:1005B00080E1380798F0E889F989108260E874E8EA
:1005C0008EE190E0A70196010E949F2521503109FC
:1005D000410951095695479537952795EC85FD8535
:1005E0003083EE85FF852083188EEC89FD8986E0B7
:1005F0008083EA89FB89808180618083EA89FB8925
:10060000808188608083EA89FB898081806880831B
:10061000EA89FB8980818F7D8083DF91CF91FF9074
:10062000EF90DF90CF900895CF93DF93FC01A081EE
:10063000B181109701F1EC01ED91FC9111970190BE
:10064000F081E02D69EFCD01199588819981DC0158
:10065000ED91FC910190F081E02D62E01995888187
:100660009981DC01ED91FC910190F081E02D65E034
:10067000DF91CF911994DF91CF910895009721F0E8
:10068000805C9F4F0C9414030895AF92BF92CF9259
:10069000DF92EF92FF920F931F93CF93DF936C0142
:1006A0007B018B01040F151FEB015E01AE18BF0823
:1006B000C017D10759F06991D601ED91FC910190D5
:1006C000F081E02DC6011995892B79F7C501DF91DD
:1006D000CF911F910F91FF90EF90DF90CF90BF903F
:1006E000AF900895FC01A089B1898C91A689B78942
:1006F00082FD0FC09C91818D8F5F8F73228D821739
:1007000049F0A18DAE0FBF2FB11D5D969C93818FD7
:1007100008958C910895FC01538D448D252F30E070
:10072000842F90E0821B930B541710F0CF960895FE
:1007300001970895FC01918D828D981761F0A28D2B
:10074000AE0FBF2FB11D5D968C91928D9F5F9F73F1
:10075000928F90E008958FEF9FEF0895FC01918DA7
:10076000828D981731F0828DE80FF11D858D90E014
:1007700008958FEF9FEF0895FC01918D228D892FB1
:1007800090E0805C9F4F821B91098F739927089599
:100790008EE895E00E94BC0321E0892B09F420E05B
:1007A000822F08958BE296E00E94BC0321E0892B02
:1007B00009F420E0822F089588EC96E00E94BC03A3
:1007C00021E0892B09F420E0822F089585E697E047
:1007D0000E94BC0321E0892B09F420E0822F0895B8
:1007E000FC01A48DA80FB92FB11DA35ABF4F2C91A6
:1007F000848D90E001968F739927848FA689B7899D
:100800002C93A089B1898C91837080648C93938D93
:10081000848D981306C00288F389E02D80818F7D36
:1008200080830895EF92FF920F931F93CF93DF93EE
:10083000EC0181E0888F9B8D8C8D98131AC0E8891C
:10084000F989808185FF15C09FB7F894EE89FF89EB
:100850006083E889F98980818370806480839FBF89
:1008600081E090E0DF91CF911F910F91FF90EF9089
:100870000895F62E0B8D10E00F5F1F4F0F73112799
:10088000E02E8C8D8E110CC00FB607FCFACFE889D4
:10089000F989808185FFF5CFCE010E94F003F1CF69
:1008A000EB8DEC0FFD2FF11DE35AFF4FF0829FB748
:1008B000F8940B8FEA89FB8980818062CFCFCF9338
:1008C000DF93EC01888D8823B9F0AA89BB89E88978
:1008D000F9898C9185FD03C0808186FD0DC00FB61E
:1008E00007FCF7CF8C9185FFF2CF808185FFEDCF9C
:1008F000CE010E94F003E9CFDF91CF91089580E00F
:1009000090E0892B29F00E94E60381110E940000EB
:1009100080E090E0892B29F00E94DC0381110E9485
:10092000000080E090E0892B29F00E94D203811121
:100930000E94000080E090E0892B29F00E94C8030B
:1009400081110C94000008958150823108F05AC042
:10095000E82FF0E08827E055FB4F8F4F0C94F025EF
:10096000D004D404C204C804CC040205D704DD04B6
:10097000E104E704EB04EF04F504F9040205FD04C7
:1009800003050705809180008F778093800008958C
:10099000809180008F7DF9CF80918000877FF5CF97
:1009A00084B58F7784BD089584B58F7DFBCF80910A
:1009B000B0008F778093B00008958091B0008F7D54
:1009C000F9CF809190008F77809390000895809167
:1009D00090008F7DF9CF80919000877FF5CF809137
:1009E000A0008F778093A00008958091A0008F7D54
:1009F000F9CF8091A000877FF5CF809120018F777C
:100A0000809320010895809120018F7DF9CF8091FE
:100A10002001877FF5CFCF93DF93282F30E0F901B6
:100A2000EE55FD4F8491F901EE59FC4FD491F90137
:100A3000E45EFC4FC491CC23A1F081110E94A40478
:100A4000EC2FF0E0EE0FFF1FE851FD4FA591B491A0
:100A5000EC91ED2381E090E009F480E0DF91CF910B
:100A6000089580E090E0FACF1F93CF93DF93282F73
:100A700030E0F901EE55FD4F8491F901EE59FC4F3C
:100A8000D491F901E45EFC4FC491CC23A9F0162F58
:100A900081110E94A404EC2FF0E0EE0FFF1FEE5F27
:100AA000FC4FA591B4918FB7F894EC91111108C047
:100AB000D095DE23DC938FBFDF91CF911F910895F6
:100AC000DE2BF8CFCF93DF9390E0FC01EE59FC4F83
:100AD0002491845E9C4FFC0184918823C9F090E0AE
:100AE000880F991FFC01E857FD4FA591B491FC01B7
:100AF000EE5FFC4FC591D49161110DC09FB7F89482
:100B00008C91209582238C938881282328839FBFF2
:100B1000DF91CF910895623051F49FB7F8943C91E2
:100B2000822F809583238C93E8812E2BEFCF8FB774
:100B3000F894EC912E2B2C938FBFEACF0F931F9339
:100B4000CF93DF93EC01162F042F1B821A8288EEBD
:100B500093E0A0E0B0E08C839D83AE83BF8383E10C
:100B600092E0998388831F8A1E8A198E188E1B8EA5
:100B70001A8E1D8E1C8E6E8D6E7F6D7F6E8F6695AC
:100B8000617081E06827842F0E94340561E0802F26
:100B90000E946205802F90E0FC01EE59FC4FE49129
:100BA000E88BFC01E45EFC4FE491F0E0EE0FFF1FE8
:100BB000EE5FFC4F859194919A8B898B60E0812F39
:100BC0000E9462058E8D81FD04C061E0812F0E942C
:100BD00034051C87812F90E0FC01EE59FC4FE49115
:100BE000ED87FC01E45EFC4FE491F0E0EE0FFF1FA7
:100BF000E851FD4F859194919F878E87DF91CF912A
:100C00001F910F910895863308F0865320917B0041
:100C1000982F9870277F922B90937B008770806429
:100C200080937C0080917A00806480937A00809128
:100C30007A0086FDFCCF809178009091790008952C
:100C40003FB7F8948091E4049091E504A091E60404
:100C5000B091E70426B5A89B05C02F3F19F0019677
:100C6000A11DB11D3FBFBA2FA92F982F8827BC0106
:100C7000CD01620F711D811D911D42E0660F771F2E
:100C8000881F991F4A95D1F708958F929F92AF922E
:100C9000BF92CF92DF92EF92FF926B017C010E9494
:100CA00020064B015C01C114D104E104F104B9F048
:100CB0000E942006681979098A099B09683E7340D9
:100CC0008105910580F321E0C21AD108E108F108FD
:100CD00088EE880E83E0981EA11CB11CE4CFFF9023
:100CE000EF90DF90CF90BF90AF909F908F9008953E
:100CF00020910E0530910F052817390771F4909156
:100D0000E2048091E104981741F0E091E204F0E000
:100D1000EF55FB4F808190E008958FEF9FEF08958E
:100D20000895EF92FF920F931F93CF93DF93DC010F
:100D30005C96ED90FC905D97E114F10479F481E00C
:100D400090E013969C938E93129790E080E0DF9151
:100D5000CF911F910F91FF90EF9008955196ED91D3
:100D6000FC91529750968C915097982F90950FB771
:100D70005E962C915E97122F127021FD6095F8946B
:100D80002081112319F1282B2083E7012197F1F706
:100D900028E0462F50E0308160FF1AC0382B3083A6
:100DA000E7012197F1F7BA0175956795215089F709
:100DB000112381F08081892380830FBF5C968D9100
:100DC0009C910197F1F781E090E0C1CF2923DCCF1E
:100DD0003923E5CF9081892BEFCF20910E053091FB
:100DE0000F052817390771F48091E1042091E2047E
:100DF00090E0805C9F4F821B910960E470E00E944C
:100E0000DC25089590E080E0089520910E05309152
:100E10000F0528173907B9F49091E2048091E10495
:100E2000981789F0E091E204F0E0EF55FB4F8081E4
:100E30002091E20430E02F5F3F4F2F733327209340
:100E4000E20490E008958FEF9FEF0895E0910E0582
:100E5000F0910F05E817F90769F4A389B4899C910B
:100E60008589809589238C9310920F0510920E0529
:100E700081E0089580E00895CF93DF93EC018A8D9F
:100E80009B8D892B01F180910E0590910F058C1798
:100E90009D07C9F0009711F00E9426078E8D8E7F66
:100EA0008E8F1092E1041092E204D0930F05C0934C
:100EB0000E05EB89FC8980819D89892B808381E0E7
:100EC000DF91CF91089580E0FBCFDC0161506B3062
:100ED00060F5E62FF0E08827EF58F84F8F4F0C941D
:100EE000F0257C077F0782079507950795079507EB
:100EF000850789078D07910788EC96E008958BE2B6
:100F000096E008958EE895E0089593968D919C91D2
:100F1000089595968D919C91089597968D919C91A9
:100F2000089599968D919C91089590E080E00895A0
:100F3000CF9382EF860F8630B8F4C62F8AE00E94E6
:100F4000580282E0C33169F083E0C23151F084E09D
:100F5000C13139F085E0C03121F087E0CF3009F4AC
:100F600086E0CF910C945802CF9108954A305105F4
:100F700059F4E62FF0E0EB57F74F80818F3711F0EF
:100F80008AE0808381E0089580E008955F926F9207
:100F90007F928F929F92AF92BF92CF92DF92EF9209
:100FA000FF920F931F93CF93DF935C016901DA01E6
:100FB0005C90232B19F4CC24CA94DC2C8A013A01CE
:100FC000660E771ED0E0C0E0F12CE12C87E0882E81
:100FD000912CF50180819181D8016C910C2E01C07A
:100FE000660F0A94EAF765296F77DC01ED91FC91B1
:100FF0000190F081E02D1995BFEFEB1AFB0AF80183
:10100000608170E0C4018C1B9D0B02C075956795D3
:101010008A95E2F7562E2196C730D10558F1CE14A5
:10102000DF0441F1D5018D919C91652D6F77DC0135
:10103000ED91FC910190F081E02D1995BFEFEB1A35
:10104000FB0A551C5524551C2797E6CFEC14FD04CC
:1010500008F4BFCFDF91CF911F910F91FF90EF90D8
:10106000DF90CF90BF90AF909F908F907F906F90C8
:101070005F9008950F5F1F4F6016710639F7209734
:1010800049F3EC14FD0430F7F5018081918161E0B2
:1010900070E001C0660FCA95EAF761506521DC0176
:1010A000ED91FC910190F081E02DDF91CF911F91A6
:1010B0000F91FF90EF90DF90CF90BF90AF909F90F7
:1010C0008F907F906F905F9019941F93CF93DF93D1
:1010D0001F921F92CDB7DEB7182F7A836983809154
:1010E0004208909143080097C9F0DC01ED91FC9112
:1010F0000190F081E02D1031B8F461157044A0F436
:10110000612F606E199522E030E0AE014F5F5F4FB6
:1011100062E070E082E498E00E94C6070F900F90B2
:10112000DF91CF911F91089560EF1995809142084A
:1011300090914308DC01ED91FC910190F081E02D4C
:101140006FE619958091420890914308DC01ED917A
:10115000FC910190F081E02D612F199522E030E0A3
:10116000AE014F5F5F4F62E070E082E498E00E9462
:10117000C6078091420890914308DC01ED91FC91F3
:101180000190F081E02D67EF1995C8CFEF92FF92A3
:101190000F931F93CF93DF93C82F809142089091B4
:1011A00043080097C9F17A018B01DC01ED91FC91B4
:1011B0000190F081E02D60EF1995809142089091A7
:1011C0004308DC01ED91FC910190F081E02D6C2F42
:1011D0001995E7010E0D1F1DC017D10759F030E01A
:1011E00020E0AE0161E070E082E498E00E94C60772
:1011F0002196F2CF8091420890914308DC01ED9155
:10120000FC910190F081E02D67EFDF91CF911F916C
:101210000F91FF90EF901994DF91CF911F910F9153
:10122000FF90EF900895CF92DF92EF92FF920F938D
:101230001F93CF93DF93FC01E058FF4FE080EE2037
:1012400009F45CC0EC01C05CDF4FA881B981109744
:1012500009F454C0FC01EF57FF4FC080D180F60164
:1012600011810081ED91FC9111970190F081E02DA9
:1012700060EFCD01199588819981DC01ED91FC9198
:101280000190F081E02D69E7199588819981DC0151
:10129000ED91FC910190F081E02D602F19958881EE
:1012A0009981DC01ED91FC910190F081E02D612F9D
:1012B0001995F12C01E010E00F5F1F4FE016F106C9
:1012C00059F030E020E0A601400F511F61E070E0CE
:1012D000CE010E94C607F0CF88819981DC01ED9193
:1012E000FC910190F081E02D67EFDF91CF911F918C
:1012F0000F91FF90EF90DF90CF901994DF91CF91F5
:101300001F910F91FF90EF90DF90CF90089500977D
:1013100011F00C941309089520917C04260F3327B3
:10132000331F21323105ECF420916405FC0190E07B
:1013300080E0243069F082E00895A0917C0421913E
:10134000AC01465A5B4FA40FB52FB11D2C930196EB
:10135000861798F380917C04680F60937C0480E08A
:10136000089581E008951092640581E080936305FB
:1013700010923E0561E084E10E94340561E085E160
:101380000E943405E9EBF0E080818E7F80838081CC
:101390008D7F808388E48093B80085E48093BC00CF
:1013A0000895CF93DF9391E0909359048823B9F087
:1013B000C091B800D091BA008091BC008A7B809324
:1013C000BC0060E084E10E94340560E085E10E9499
:1013D00034050E94B309D093BA00C093B800DF91DE
:1013E000CF9108958F929F92AF92BF92CF92DF924A
:1013F000EF92FF920F931F93CF93DF93D0918D05C0
:10140000D13208F0D7C0182FC0918C050E94200659
:101410006B017C018091640581116BC082E0809337
:101420006405109363058FEF809362051092610548
:10143000D0936005ACE6B5E0E0E4F5E080E0D813D9
:1014400091C010923F0580913F05CC0FC82BC093EF
:101450003F0580913E05813009F088C010923E051D
:101460000E9420066B017C0180913F058093BB00A8
:101470008091660590916705A0916805B091690516
:10148000892B8A2B8B2BA1F00E94200600916605E8
:101490001091670520916805309169056C197D09E7
:1014A0008E099F09061717072807390708F442C055
:1014B0008091BC0083FDD8CF85EC8093BC000E9456
:1014C00020066B017C0180916405823009F450C0D4
:1014D000809162058F3F09F46FC080916205803270
:1014E00009F46CC080916205803309F469C084E01E
:1014F00026C08091660590916705A0916805B0911E
:101500006905892B8A2B8B2B09F484CF0E94200636
:101510008090660590906705A0906805B090690579
:101520006C197D098E099F0986169706A806B906CB
:1015300008F070CF809165050E94D10985E0109276
:101540006B0510928D0510926A05DF91CF911F9166
:101550000F91FF90EF90DF90CF90BF90AF909F9052
:101560008F9008959D9191938F5F69CF85EEA5CF60
:101570008091660590916705A0916805B091690515
:10158000892B8A2B8B2B09F49ECF0E942006009179
:1015900066051091670520916805309169056C1901
:1015A0007D098E099F09061717072807390708F0D4
:1015B0008ACFC0CF81E0C3CF80E0C1CF82E0BFCF70
:1015C00083E0BDCF08950895E091580480915704B9
:1015D000E81730F4F0E0E95CFB4F808190E008957B
:1015E0008FEF9FEF089590915804809157042FEF4B
:1015F0003FEF981748F4E92FF0E0E95CFB4F2081BA
:1016000030E09F5F90935804C9010895809157047A
:1016100090915804891B990B0895CF92DF92EF9215
:10162000FF920F931F93CF93DF937C01CB018A012D
:1016300020916A05222389F0EB016B01C40ED51EAF
:10164000CC15DD0569F06991D701ED91FC91019010
:10165000F081E02DC7011995F3CF642F0E948C090A
:10166000C801DF91CF911F910F91FF90EF90DF9014
:10167000CF900895CF93DF931F92CDB7DEB76983E4
:1016800020916A052223F9F020918D05203258F02F
:1016900021E030E0FC013383228390E080E00F9072
:1016A000DF91CF91089580916B05E82FF0E0E45928
:1016B000FA4F998190838F5F80936B0580938D059E
:1016C00081E090E0ECCF61E0CE0101960E948C09B0
:1016D000F7CF90E080E00895DF92EF92FF920F93B2
:1016E0001F93CF93DF93EC01D62E7A018901888175
:1016F000803308F067C061E08D2D0E94620588810B
:10170000282F30E0F901EE0FFF1FE20FF31FEC5915
:10171000F64F9D2D9F736081607C692B608320E272
:1017200032E02E193F0937FF02C02D5F3F4F35953C
:10173000279535952795298320E639E0201B310B25
:1017400037FF02C02D5F3F4F35952795359527957B
:101750002A832CE0622F0E94D025829FB0011124A1
:1017600030E020E0AB01420F531FFA01EE0FFF1FE4
:10177000E40FF51FEC59F64F908196FD16C02F5FD0
:101780003F4F2C30310571F7813029F510928000E0
:1017900082E0809381001092850010928400B19ABB
:1017A00080916F00826080936F00E8818E2F90E0BF
:1017B000FC01EE0FFF1FE80FF91FEC59F64F808177
:1017C000806480838881DF91CF911F910F91FF907A
:1017D000EF90DF900895823061F410929000809332
:1017E0009100109295001092940088BB8093710034
:1017F000DCCF833069F41092A00082E08093A100D6
:101800001092A5001092A40089BB80937200CDCFE6
:101810008111CBCF1092200182E0809321011092A0
:101820002501109224018ABB80937300BECFAF9232
:10183000BF92CF92DF92EF92FF920F931F93CF93BD
:10184000DF936B017A01EC01CD5CDB4F28813CE03A
:10185000389F8001399F100D1124A090F409B12CFC
:1018600027FF1FC0FB011182108288818F5F888350
:1018700088819801280F311D87FD3A95F6012A15B8
:101880003B051CF488818C30C4F1808191810496E1
:1018900080349C4908F473C0F601808191810496DC
:1018A00070C088819801280F311D87FD3A952A154F
:1018B0003B05DCF68881A801480F511D87FD5A952C
:1018C000FA01EE0FFF1FE40FF51FEC59F64F808170
:1018D00086FFCBCF8881F801E80FF11D87FDFA95CF
:1018E000CF01EE0FFF1FE80FF91FEC59F64F808173
:1018F00060E08F730E943405B8CF80819181288188
:10190000A801420F511D27FD5A959A01FA01EE0FC9
:10191000FF1FE20FF31FEC59F64F21813281820F36
:10192000931FF7019183808388819801280F311DCF
:1019300087FD3A95F901EE0FFF1FE20FF31FEC59F7
:10194000F64F808186FF22C08881080F111D87FD18
:101950001A95F801EE0FFF1FE00FF11FEC59F64F3B
:10196000808161E08F73DF91CF911F910F91FF9084
:10197000EF90DF90CF90BF90AF900C94340580E44F
:101980009CE9F701918380838FEF8883DF91CF916A
:101990001F910F91FF90EF90DF90CF90BF90AF908D
:1019A0000895CF938031B0F421E030E0082E02C0DA
:1019B000220F331F0A94E2F7409138055091390500
:1019C000672B51F420953095242335233093390526
:1019D00020933805CF910895242B352B309339056A
:1019E00020933805909132049111F4CFC82F0E94B2
:1019F0000306BC018C2FCF910C9465084F925F9227
:101A00006F927F928F929F92AF92BF92CF92DF920E
:101A1000EF92FF920F931F93CF93DF93893008F0DB
:101A2000A7C08F5FC82FCC0FCC0FCC0F4C2EC73464
:101A300010F056E4452ED62F38EF532E5C0E852C31
:101A4000912CC401880F991F9C012E5F374F5901BB
:101A5000052DD12CC12C10E0772473940415C8F502
:101A60008EEF800F8434F8F4F601E80DF91DEB5782
:101A7000F74F90819230B8F4872D8D2366246394BC
:101A8000811101C0612C7601EE0CFF1C913089F4AC
:101A9000172939ECE30EF11CF501EE0DFF1D862D23
:101AA00090E091838083770C0F5F8FEFC81AD80A7C
:101AB000D5CF882371F3F701E753FF4FEA0DFB1DE4
:101AC00080819181019729F362E0802F0E94620555
:101AD000E0CF10FF05C06D2F6170852D0E94340589
:101AE00011FF06C06D2F627089EF8C0F0E943405C4
:101AF00012FF06C06D2F64708AEF8C0F0E943405B0
:101B000013FF06C06D2F68708BEF8C0F0E94340599
:101B100014FF06C06D2F60718CEF8C0F0E9434058E
:101B200015FF06C06D2F60728DEF8C0F0E9434057B
:101B300016FF06C06D2F60748EEF8C0F0E94340567
:101B400017FF16C06D2F60788FEF8C0FDF91CF914C
:101B50001F910F91FF90EF90DF90CF90BF90AF90CB
:101B60009F908F907F906F905F904F900C94340572
:101B7000DF91CF911F910F91FF90EF90DF90CF9069
:101B8000BF90AF909F908F907F906F905F904F909D
:101B900008958F929F92AF92BF92CF92DF92EF9271
:101BA000FF920F931F93CF93DF93EB01863408F0DE
:101BB00098C0082F10E0F801EB57F74F9081933051
:101BC00009F49CC0943009F08CC08250843408F031
:101BD00081C0F801EE51FC4FC080D12C7601EE0C93
:101BE000FF1C4B01603282E078070CF03EC0F70129
:101BF000EC0DFD1DEB50F64F8181A8E88A2E912C4B
:101C0000881A910887FD9394880C991C880C991C5C
:101C1000092C000CAA08BB08828128E532E0281BA9
:101C2000310987FD3395220F331F220F331F032EF7
:101C3000000C440B550B281939094A095B09DB01D3
:101C4000653B710514F0A4EBB0E0B7FF02C0B0E053
:101C5000A0E00E94972524EB30E040E050E00E9495
:101C60006D25820E931EA41EB51EF701EC0DFD1D01
:101C7000EB50F64F2081203368F5318188E890E001
:101C8000831B910937FD9395880F991F880F991F22
:101C9000881699067CF0328188E592E0831B9109D1
:101CA00037FD9395880F991F880F991F88169906FD
:101CB0000CF4C4010297880F991F4FB7F89430E0D5
:101CC000F901EE0FFF1FE20FF31FEC59F64F92835D
:101CD00081834FBF000F111FF801E553F74FD183E8
:101CE000C083DF91CF911F910F91FF90EF90DF9014
:101CF000CF90BF90AF909F908F900895F82E8EEF69
:101D0000800F8C3020F084ED800F833018F761E075
:101D10008F2D0E946205209729F460E08F2D0E948C
:101D20003405D8CFCF3FD10511F461E0F7CFF801EA
:101D3000EE55FD4FE491E150E23108F0B0C0F0E023
:101D40008827EA55F14F8F4F0C94F025B80EBD0E41
:101D5000C20ECC0ED60E4F0FE00EE80EF00EFA0EAD
:101D6000040F0E0F1D0F270F4F0F310F3B0F450FA5
:101D700084B5806884BDC7BDADCF84B5806284BDA5
:101D8000C8BDA8CF80918000806880938000D093E8
:101D90008900C09388009ECF8091800080628093EC
:101DA0008000D0938B00C0938A0094CF80918000F4
:101DB000886080938000D0938D00C0938C008ACF80
:101DC0008091B00080688093B000C093B30082CF50
:101DD0008091B00080628093B000C093B4007ACF4D
:101DE00080919000806880939000D0939900C09378
:101DF000980070CF80919000806280939000D09383
:101E00009B00C0939A0066CF809190008860809379
:101E10009000D0939D00C0939C005CCF8091A00067
:101E200080688093A0008091A0008F7B8093A000A9
:101E3000D093A900C093A8004DCF8091A0008062EC
:101E40008093A000D093AB00C093AA0043CF8091B1
:101E5000A00088608093A000D093AD00C093AC0038
:101E600039CF80912001806880932001D09329018F
:101E7000C09328012FCF80912001806280932001A0
:101E8000D0932B01C0932A0125CF80912001886037
:101E900080932001D0932D01C0932C011BCFC0381B
:101EA000D1050CF042CF39CF9EEF980F943480F4D7
:101EB000E82FF0E0DF01AB57B74F9C91913041F430
:101EC000EE0FFF1FE553F74F608371830C943405C9
:101ED0000895FF920F931F93CF93DF931F921F924A
:101EE000CDB7DEB7082F10E0F801E850FB4F908126
:101EF000F62EF922085D1B4F411104C0F8019081B4
:101F00009F1511F12F2D30E03A832983A0914208CB
:101F1000B09143081097B1F0682F6F706069ED9130
:101F2000FC9111970190F081E02DCD01199522E0EF
:101F300030E0AE014F5F5F4F62E070E082E498E016
:101F40000E94C607F801F0820F900F90DF91CF91A9
:101F50001F910F91FF9008950F931F93CF93DF93DD
:101F6000893008F071C0282F30E0F901EF5FFA4F97
:101F70006083672B09F468C0082F28503B4FF90194
:101F80001081D82FDD0FDD0FDD0F8EEF8D0F843424
:101F900050F4C12FC17010FF07C08D2F0E940B0598
:101FA000C1E0892B09F4C0E08FEF8D0F843448F431
:101FB00011FF07C081E08D0F0E940B05892B09F0EE
:101FC000C26012FF07C082E08D0F0E940B05892BB3
:101FD00009F0C46013FF07C083E08D0F0E940B055A
:101FE000892B09F0C86014FF07C084E08D0F0E94A0
:101FF0000B05892B09F0C06115FF07C085E08D0F27
:102000000E940B05892B09F0C062D034A1F016FFA5
:1020100007C086E08D0F0E940B05892B09F0C06474
:10202000DF3349F017FF07C087E08D0F0E940B05D3
:10203000892B09F0C06841E06C2F802FDF91CF9190
:102040001F910F910C94690FDF91CF911F910F9108
:102050000895A82FB0E0AE51BC4F9C91292F30E0DD
:10206000F901EE0FFF1FE20FF31FEB50F64FE08177
:102070002E2F30E0F901EE0FFF1FE20FF31FEC5996
:10208000F64F80818F7B80838091E003981308C096
:10209000992319F091509093E0038FEF8C9308955A
:1020A0008823D9F3E091E103EF5FE093E103F0E0EF
:1020B000E359FC4F9083F1CFFC0101900020E9F738
:1020C0003197BF01681B790BAC0181E70C94C608FE
:1020D000CF93DF93DB019091E003903378F530915B
:1020E000E103682F70E0FB01EE51FC4F3323E1F078
:1020F000C32FD0E0C359DC4F8881808331503093A7
:10210000E103808123E0829FC00111248B50964F10
:102110001A161B0674F4141615065CF49A01AD0128
:10212000DF91CF910C946C0B90839F5F9093E003B1
:10213000E8CF20E639E040E252E0F2CF81E592E0DC
:10214000DF91CF910C945C101F93CF93DF93EC0140
:1021500018E0612FCE010E946507009711F00E94E0
:10216000A8261F5F1C30A9F78FEF8AA3FE013A96BD
:10217000A29611921192CE17DF07D9F7DF91CF9176
:102180001F9108958F929F92AF92BF92DF92EF922C
:10219000FF920F931F93CF93DF93EC01D901603629
:1021A00009F075C18C91182F1F70807F803309F45E
:1021B000F2C17901042F813338F48031A1F18032EA
:1021C00009F4CBC181E064C1803609F442C2803792
:1021D00009F44EC28035B1F7612FCE010E94650728
:1021E000EC01009779F3183008F02DC2E881F981ED
:1021F0000680F781E02D1995EA89FB8980818F7E21
:102200008083EA89FB898081877F8083EA89FB89D3
:1022100080818F778083EA89FB8980818F7D8083AD
:102220008A8D898FCFCFD90112968C901297912CDD
:10223000B12CA12C87E0880C991CAA1CBB1C8A9588
:10224000D1F713968C9190E0B0E0A0E02EE0880FDB
:10225000991FAA1FBB1F2A95D1F788299929AA2956
:10226000BB29F70121814C015D01822A1830B0F5AC
:10227000612FCE010E946507EC01892B09F4A2CFE2
:102280001150133028F5212F30E0F901E45FFD4FA4
:102290008081275F3D4FD901EC918823C9F0EE235F
:1022A000B9F0282F30E02E5F374FD901AD57BF4F1F
:1022B0009C919F3711F09AE09C93F0E0EB57F74F19
:1022C00090819F3711F09AE0908360E00E94620550
:1022D000B501A401CE010E94B40274CF453008F4C8
:1022E000D2C00481D580193009F4EFC008F0B4C021
:1022F000183009F4D9C0612FCE010E946507EC01A6
:10230000892B09F45FCFE02FF0E0EB57F74F808186
:102310008F3711F08AE08083ED2DF0E0EB57F74F17
:1023200080818F3711F08AE080831B8E1A8E198E80
:10233000188E1F8A1E8A60E079E08DE390E0A50187
:1023400094010E946D25B901C9010397243031051C
:1023500010F481E090E09D8F8C8F8C8596EF980F24
:10236000943048F0EEECE80FE43028F0E2ECE80FAF
:10237000E83008F06DC0F901F695E795E431F10514
:1023800008F4C5C07397FF8BEE8B6630710508F4B7
:10239000C1C0B90165507109798F688FB901660FA5
:1023A000771F260F371F36952795369527952D30A1
:1023B000310508F4B2C02C5031093B8F2A8F94307C
:1023C00050F02EEC280F243030F022EC280FF0E0F3
:1023D000E0E0283010F4E8E6F0E02081943028F0C6
:1023E00032EC380F383008F49BC031E0232B9430A6
:1023F00048F09EEC980F943028F08E53F0E0E0E027
:10240000883010F4E8E6F0E020832C8536EF320FB8
:10241000343008F487C08EEC820F843008F482C018
:1024200082EC820F883008F080C08DE690E09C8BB3
:102430008B8B343008F07CC02650330B81E001C018
:10244000880F2A95EAF78D8B8C8D9D8D0197F1F77A
:10245000CE010E943C07B6CE1A3009F447C01B30AB
:1024600009F049CF89A59AA5892B09F044CF8FE1BE
:1024700090E00E940C267C014D2D602F0E949E054D
:10248000FAA6E9A638CF85E692E00E945C1080E0CB
:10249000DF91CF911F910F91FF90EF90DF90BF9050
:1024A000AF909F908F9008958BA19CA1892B09F0EC
:1024B00022CF8FE190E00E940C267C014D2D602FF1
:1024C0000E949E05FCA2EBA216CF8DA19EA1892B96
:1024D00009F011CF8FE190E00E940C267C014D2D78
:1024E000602F0E949E05FEA2EDA205CF8FA198A5A8
:1024F000892B09F000CF8FE190E00E940C267C012F
:102500004D2D602F0E949E05F8A6EFA2F4CEE1E0CB
:10251000F0E039CF61E070E03FCF21E030E04DCF17
:1025200034E064CF8BE690E082CF90E080E07FCF14
:1025300088E0223309F487CF84E0233309F483CF82
:1025400082E0243309F47FCF82EC820F883018F4C4
:102550002E53330B73CF81E076CF612FCE010E94D3
:1025600065075C01892B09F42DCEE70111E01017F6
:1025700008F028CE6A816795662767958981680F7C
:10258000D501ED91FC910190F081E02DC5011995E7
:102590001E5F2296ECCF11968C911197811126C067
:1025A0003AA137300CF00ECE812F90E00596880FBF
:1025B000991FFE01E80FF91F4330A8F013968C9184
:1025C000139720E8829FC001112412962C91822B30
:1025D0009183808381E0830F8AA3C80FD11D87FD7B
:1025E000DA951A83EFCD11821082F4CF813009F091
:1025F000E9CD9AA119161CF08FEF8AA3E3CD80E0F4
:10260000492F092E000C550B282F30E04217530795
:1026100074F480E0E82FF0E04E175F078CF088300C
:1026200020F4EC0FFD1F238122838F5FF3CF2C0F4B
:102630003D1FD90112962C91121761F38F5FE4CFE1
:1026400091509AA3BFCD0E942607CE010E94A826D2
:10265000B9CD612FCE010E946507009709F4B2CD74
:10266000DC01ED91FC910680F781E02D1995AACD52
:10267000183008F4A7CD612FCE010E94650700979E
:1026800009F0E7CE9FCD85ED8093BC008091660573
:1026900090916705A0916805B09169050796A11D05
:1026A000B11D23E0B695A795979587952A95D1F703
:1026B0002091BC0024FD03C0109264050895409150
:1026C0006605509167056091680570916905452B15
:1026D000462B472B69F30097A105B10541F025E38F
:1026E0002A95F1F700000197A109B109E1CF809186
:1026F00065050C94D1098F929F92BF92CF92DF9281
:10270000EF92FF920F931F93CF93DF93C82ED12C9C
:10271000E601CE5FD74FFE01ED57FF4F90819F3707
:1027200009F4A1C0963061F490913104992341F0ED
:102730006630710529F0109231049FEF90930002EA
:102740007B01182F0EEF080F043408F56430710573
:10275000F1F0F601EE51FC4F80818033C0F490E03F
:10276000FC01EE0FFF1FE80FF91FEB50F64FE08161
:102770008E2F90E0FC01EE0FFF1FE80FF91FEC59C0
:10278000F64F808186FF03C0812F0E9429105AECEA
:10279000B52EB10E8FE08B1558F061E070E032E09D
:1027A000E316F10411F070E060E08B2D0E94D10C73
:1027B0000434C8F4E12FE695E695E695F0E0E8509C
:1027C000FB4F2081312F377081E090E001C0880FEE
:1027D0003A95EAF7E114F10421F03BE0E316F10445
:1027E00011F5822B80834601880C991CF401E55376
:1027F000F74F118210828CE0E816F10408F0D0C087
:10280000F7018827E95FFB4E8F4F0C94F0252714C2
:10281000541416146B148514D014BC14D014D01492
:10282000D014C8143F1480958223DCCF3FE03B15C1
:10283000D0F0043420F460E0812F0E946205CD576F
:10284000DF4F88818F3779F082E088830CC00434B1
:1028500050F460E0812F0E946205CD57DF4F8881E0
:102860008F3709F01882DF91CF911F910F91FF9060
:10287000EF90DF90CF90BF909F908F900895043499
:1028800090F762E0812F0E946205CD57DF4F88816B
:102890008F3711F08BE08883F401E553F74F81E027
:1028A00090E091838083DFCF0434E8F6FE01ED579A
:1028B000FF4F8081833021F460E0812F0E94340536
:1028C00061E0812F0E946205CD57DF4F88818F37ED
:1028D00051F281E0BACF0C3020F084ED810F8330CB
:1028E00010F661E0812F0E94620561E0812F0E9455
:1028F000620560E0812F0E943405CD57DF4F88814B
:102900008F3709F4B0CF83E0A0CF043408F0ABCF09
:10291000CD57DF4F88818F3711F084E08883F6012F
:10292000EE51FC4F80818F3FA9F090E0FC01EE0F4B
:10293000FF1FE80FF91FEB50F64FE0818E2F90E05C
:10294000FC01EE0FFF1FE80FF91FEC59F64F8081D5
:1029500086FD89CF4FEF5FEF6FEF7FEF812FDF9124
:10296000CF911F910F91FF90EF90DF90CF90BF908C
:102970009F908F900C9468101451123008F073CF10
:10298000CD57DF4F88818F3709F46DCF86E05DCF5B
:10299000CD57DF4F88818F3709F465CF8AE055CF57
:1029A00083E892E0DF91CF911F910F91FF90EF901C
:1029B000DF90CF90BF909F908F900C945C100F93FE
:1029C0001F93CF93DF9381E08093320485E89AE0F0
:1029D0000E94A41080913104882329F010923104C0
:1029E0008FEF80930002E1E0F5E0C8EFD4E0A8E2C9
:1029F000B4E0119219921D9285E0EA30F807C9F708
:102A000002EE13E0C0E0DFEF8AEC8C0F62E070E0D2
:102A1000803130F08EEF8C0F843428F461E070E068
:102A20008C2F0E947B13F801D1938F01CF5FC634A6
:102A300059F710923905109238051092E10310925F
:102A4000E00310923204DF91CF911F910F9108950E
:102A50004F925F926F927F928F929F92AF92BF92AE
:102A6000DF92EF92FF920F931F93CF93DF93D82EB5
:102A70008B01D42FC22F6F3F760709F490C081E0FD
:102A800080936A05D0928C0510926B0510928D058B
:102A900088E599E00E943A0B8C2F0E94F209809100
:102AA000DE039091DF038230910538F0880F991F83
:102AB000880F991F05970197F1F70E9420064B0197
:102AC0005C018091640581116CC0CD2FD13208F07A
:102AD000C0E281E080936405809363059FEF90934B
:102AE0006205109261059C0F9093600580933F05ED
:102AF00090913F058D2D880F892B80933F05809104
:102B00003E05813009F09EC010923E050E942006CD
:102B10004B015C0180913F058093BB00809166056D
:102B200090916705A0916805B0916905892B8A2B62
:102B30008B2BA1F00E9420064090660550906705FF
:102B40006090680570906905681979098A099B0980
:102B5000461657066806790608F444C08091BC0002
:102B600083FDD8CF85EC8093BC000E9420064B01EA
:102B70005C0180916405813009F466C08091610533
:102B80008C1710F4C0916105A0E4B5E0E7E3F4E030
:102B900080E08C1761F19D9191938F5FFACF00E0F7
:102BA0008CCF8091660590916705A0916805B091E2
:102BB0006905892B8A2B8B2B09F483CF0E94200671
:102BC00040906605509067056090680570906905B3
:102BD000681979098A099B09461657066806790615
:102BE00008F06FCF809165050E94D109C0E0109276
:102BF0005804C0935704ED2EF12C8C2F90E0E8166A
:102C0000F9060CF043C084E992E00E945C10D09277
:102C10009E0300939F030EE913E0C8018E59934071
:102C20008E159F05D4F50F5F1F4F9091570480912B
:102C30005804981791F188E599E00E94F30AF80189
:102C40008183EBCF85EE8FCF8091660590916705EC
:102C5000A0916805B0916905892B8A2B8B2B09F40B
:102C600088CF0E94200640906605509067056090CE
:102C7000680570906905681979098A099B094616E3
:102C800057066806790608F074CFACCF8E159F05FD
:102C90000CF0BDCF81EB92E0B8CFDE5F6D2F70E01E
:102CA0004EE953E087E7DF91CF911F910F91FF909D
:102CB000EF90DF90BF90AF909F908F907F906F903C
:102CC0005F904F900C94C608EF92FF920F931F9362
:102CD000CF93DF9380568B3108F03EC0EA01162F68
:102CE000E82FF0E08827E858F94E8F4F0C94F02534
:102CF000DB18AC16AC16AC16AC16AC16AC16AC1693
:102D0000AC16CA18AC162E18AC168918AC160C18CE
:102D1000B017AC16AC16AC16AC16AC169316AC16B7
:102D20007417AC16F617998195FF0AC08DEC92E0E6
:102D3000DF91CF911F910F91FF90EF900C945C1059
:102D4000888131E096FB222720F92327987198305B
:102D5000D1F148F49923A9F0DF91CF911F910F9100
:102D6000FF90EF900895903109F44CC09831A1F78D
:102D70002091000212160CF472C08FEF80930002B3
:102D8000EBCF30936A0580938C0510926B051092FF
:102D90008D0502E0011778F4FE01E00FF11D61815D
:102DA0006795662767958081680F88E599E00E949E
:102DB0003A0B0E5FEFCF81E00E94F20983E191E0D0
:102DC0000197F1F7C9CF9A814B816630A1F430E8C1
:102DD000439FB0011124690F711D4D814795442710
:102DE00047959C81490FDF91CF911F910F91FF90E3
:102DF000EF900C942815479544274795490F6FEF9E
:102E00007FEFF1CFE0910002E7301CF08DEE92E011
:102E10008FCF3A819B816630D9F460E8969FA001FC
:102E20001124430F511D9D819795992797953C81BA
:102E3000930FEF5FE093000235E0E302F00111240D
:102E4000E05FFA4F8083528341839383248384CF4E
:102E5000979599279795930F4FEF5FEFEACF90E003
:102E6000622F022E000C770B35E0492F50E06417DB
:102E7000750764F0349FF001359FF00D1124E05F79
:102E8000FA4F4081481719F09F5FEFCF90E085E03F
:102E9000492F50E0641775071CF19830F8F4FA01D7
:102EA00031968E9FD0018F9FB00D1124A05FBA4F35
:102EB0003C91849FF001859FF00D1124E05FFA4F53
:102EC000308311964D915C911297528341831396F2
:102ED0003C911397338314963C9134839F5FD8CFF2
:102EE00021502093000238CF623078F0898160E869
:102EF000869F900111248881820F932F911D009746
:102F000021F09093DF038093DE03809131048111DF
:102F100023CFC0E08CEE8C0F823028F466E070E0A6
:102F20008C2F0E947B13CF5FC634A1F781E0809382
:102F30003104109258041092570410926B051092AD
:102F40008D050E94B30982EE9AE090937B048093F2
:102F50007A0483EE9AE090937F0480937E04FCCE03
:102F6000653008F4F9CE18818EEF810F843408F0B3
:102F7000F3CE0981EA80FB80CC81E12FF0E0EE51B5
:102F8000FC4F80818033C0F490E0FC01EE0FFF1F06
:102F9000E80FF91FEB50F64FE0818E2F90E0FC0117
:102FA000EE0FFF1FE80FF91FEC59F64F808186FFE7
:102FB00003C0812F0E94291080E8C89FA00111241E
:102FC0004F0D511D90E8E99EB0011124600F711D55
:102FD000812F0E94681064E070E0812FDF91CF9113
:102FE0001F910F91FF90EF900C947B13623008F4C7
:102FF000B3CE8981E0E88E9F900111248881820FF1
:10300000932F911D009729F0909302028093010263
:10301000A3CE81E090E0F8CF623008F49DCE6981C4
:1030200070E0123091F08A81F0E88F9FC001112486
:10303000682B792B133049F08B8190E090E4899FC5
:10304000902D88271124682B792B8881DF91CF91CF
:103050001F910F91FF90EF900C94C90D80EF0E948B
:1030600058028CE60E945802CEEFD2E0DC0FC43446
:1030700090F480E00E94580281E00E9458028BE0A8
:103080000E94580281E00E94580281E00E9458028A
:1030900081E00E9458028CEC8C0F803188F582E030
:1030A0000E9458028AE00E94580286ED8C0F8330FD
:1030B00048F1C43430F484E00E9458028EE00E944B
:1030C00058028EEE8C0F823030F486E00E94580257
:1030D00081E00E9458026D2F85E89AE00E949807CF
:1030E0008FE70E945802CF5FC43409F0BECF87EF4C
:1030F000DF91CF911F910F91FF90EF900C945802A8
:10310000CC3098F683E00E94580288E00E94580272
:10311000D0CF662309F420CEC88180EF0E945802E8
:103120008EE60E9458028C2F0E945802C634F8F690
:10313000D0E0FE01EB57F74F80810E945802CC0F80
:10314000DD1F8E010553174FF80180818F770E9494
:103150005802F801808191819C012078232B39F05D
:10316000880F892F881F990B8F770E945802C553AB
:10317000D74F888199819C012227307C232B09F429
:10318000B6CF990F880B990F982F881F8F770E94C1
:103190005802ADCF80EF0E9458028AE60E94580282
:1031A000CAEC8FE7C03108F48C2F0E945802CF5F21
:1031B000C031B9F79CCF9A01462F60E685E89AE0C6
:1031C000DF91CF911F910F91FF90EF900C94C2105F
:1031D0001F920F920FB60F9211240BB60F922F93DE
:1031E0003F934F935F936F937F938F939F93AF938F
:1031F000BF93EF93FF938EE895E00E94F003FF9159
:10320000EF91BF91AF919F918F917F916F915F915E
:103210004F913F912F910F900BBE0F900FBE0F90CB
:103220001F9018951F920F920FB60F9211240BB694
:103230000F922F933F934F935F936F937F938F934F
:103240009F93AF93BF93EF93FF938EE895E00E9417
:103250007203FF91EF91BF91AF919F918F917F91F9
:103260006F915F914F913F912F910F900BBE0F90F7
:103270000FBE0F901F9018951F920F920FB60F92CE
:1032800011240BB60F922F933F934F935F936F933D
:103290007F938F939F93AF93BF93EF93FF938BE2B3
:1032A00096E00E94F003FF91EF91BF91AF919F9143
:1032B0008F917F916F915F914F913F912F910F90DF
:1032C0000BBE0F900FBE0F901F9018951F920F927C
:1032D0000FB60F9211240BB60F922F933F934F937B
:1032E0005F936F937F938F939F93AF93BF93EF936E
:1032F000FF938BE296E00E947203FF91EF91BF91E2
:10330000AF919F918F917F916F915F914F913F917D
:103310002F910F900BBE0F900FBE0F901F9018951E
:103320001F920F920FB60F9211240BB60F922F938C
:103330003F934F935F936F937F938F939F93AF933D
:10334000BF93EF93FF9388EC96E00E94F003FF9108
:10335000EF91BF91AF919F918F917F916F915F910D
:103360004F913F912F910F900BBE0F900FBE0F907A
:103370001F9018951F920F920FB60F9211240BB643
:103380000F922F933F934F935F936F937F938F93FE
:103390009F93AF93BF93EF93FF9388EC96E00E94C7
:1033A0007203FF91EF91BF91AF919F918F917F91A8
:1033B0006F915F914F913F912F910F900BBE0F90A6
:1033C0000FBE0F901F9018951F920F920FB60F927D
:1033D00011240BB60F922F933F934F935F936F93EC
:1033E0007F938F939F93AF93BF93EF93FF9385E664
:1033F00097E00E94F003FF91EF91BF91AF919F91F1
:103400008F917F916F915F914F913F912F910F908D
:103410000BBE0F900FBE0F901F9018951F920F922A
:103420000FB60F9211240BB60F922F933F934F9329
:103430005F936F937F938F939F93AF93BF93EF931C
:10344000FF9385E697E00E947203FF91EF91BF9191
:10345000AF919F918F917F916F915F914F913F912C
:103460002F910F900BBE0F900FBE0F901F901895CD
:103470001F920F920FB60F9211242F933F938F93A9
:103480009F93AF93BF9380910A0590910B05A091F4
:103490000C05B0910D053091E30423E0230F2D3787
:1034A00058F50196A11DB11D2093E30480930A05F0
:1034B00090930B05A0930C05B0930D058091E40447
:1034C0009091E504A091E604B091E7040196A11D56
:1034D000B11D8093E4049093E504A093E604B093B7
:1034E000E704BF91AF919F918F913F912F910F90E2
:1034F0000FBE0F901F90189526E8230F0296A11D6E
:10350000B11DD2CF1F920F920FB60F9211240BB69E
:103510000F922F933F934F935F936F937F938F936C
:103520009F93AF93BF93EF93FF93E0910E05F091BC
:103530000F05309749F0A685B7858585968D91FF53
:1035400016C09C918923B1F4FF91EF91BF91AF9187
:103550009F918F917F916F915F914F913F912F91AB
:103560000F900BBE0F900FBE0F901F9018959C915F
:10357000892351F7A389B4899C91858980958923F2
:103580008C93868997890197F1F7608D718DA68557
:10359000B785558538E020E0CB010197F1F7822F00
:1035A00090E095958795282F4C91452309F0206848
:1035B000315091F7868D81FD20958091E10490E056
:1035C00001968F7399273091E204381799F0A091F2
:1035D000E104B0E0AF55BB4F2C938093E104828DA2
:1035E000938D0197F1F7A389B4898C919589892BE3
:1035F0008C93AACF868D8160868FF1CF1F920F9218
:103600000FB60F9211240BB60F922F933F934F9347
:103610005F936F937F938F939F93AF93BF93EF933A
:10362000FF938091B900887F803609F44DC008F07F
:1036300040C0883209F4A9C028F5803109F49DC042
:10364000C8F4882309F4FBC0883009F496C0FF91C0
:10365000EF91BF91AF919F918F917F916F915F910A
:103660004F913F912F910F900BBE0F900FBE0F9077
:103670001F901895883109F488C0803241F78093F3
:10368000620514C0803409F49DC040F48033B9F35E
:103690008833E9F68093620585ECB0C0803509F483
:1036A00085C0883509F496C0883489F60E94431392
:1036B000CECF883909F48CC038F5883729F050F41A
:1036C000883611F0803719F683E0809364051092F4
:1036D000A00457C0883809F47BC0803919F08038BD
:1036E00009F0B5CF8091A004803208F071C0E0915C
:1036F000A00481E08E0F8093A0048091BB00F0E0D5
:10370000E058FB4F80833DC0803B39F0E0F4803AC5
:1037100009F479C0883A09F09ACF84E0809364056F
:1037200010927D0410927C04E0917A04F0917B0465
:10373000199580917C0481110FC081E080937C04F5
:1037400010925A0409C0803C09F4A6CF883C09F4C1
:10375000A3CF883B09F07BCFE0917D0481E08E0F01
:1037600080937D04F0E0E65AFB4F80818093BB009C
:1037700090917D0480917C0429C080913F058093C5
:10378000BB0085EC8093BC0062CF90916105809175
:103790006005981758F5E091610581E08E0F8093E0
:1037A0006105F0E0E05CFA4F8081E9CFE0916105CE
:1037B00081E08E0F809361058091BB00F0E0E05CBA
:1037C000FA4F808390916105809160059817C8F247
:1037D00085E8D8CFE091610581E08E0F8093610587
:1037E0008091BB00F0E0E05CFA4F8083809163053C
:1037F00081115CCF81E080933E0584EA8093BC0018
:103800001092640524CF85EC8093BC00109264056F
:103810008091A004803230F4E091A004F0E0E05800
:10382000FB4F10826091A00470E0E0917E04F09163
:103830007F0480E894E019951092A00408CF1092BC
:10384000620534CF1F920F920FB60F9211240BB660
:103850000F922F933F934F935F936F937F938F9329
:103860009F93AF93BF93EF93FF9348E251E064E2DD
:1038700071E090E080E00E94170CFF91EF91BF9102
:10388000AF919F918F917F916F915F914F913F91F8
:103890002F910F900BBE0F900FBE0F901F90189599
:1038A0001F920F920FB60F9211240BB60F922F9307
:1038B0003F934F935F936F937F938F939F93AF93B8
:1038C000BF93EF93FF9348EA50E064EA70E083E02F
:1038D00090E00E94170CFF91EF91BF91AF919F91E3
:1038E0008F917F916F915F914F913F912F910F90A9
:1038F0000BBE0F900FBE0F901F9018951F920F9246
:103900000FB60F9211240BB60F922F933F934F9344
:103910005F936F937F938F939F93AF93BF93EF9337
:10392000FF9348E950E064E970E082E090E00E9493
:10393000170CFF91EF91BF91AF919F918F917F9164
:103940006F915F914F913F912F910F900BBE0F9010
:103950000FBE0F901F9018951F920F920FB60F92E7
:1039600011240BB60F922F933F934F935F936F9356
:103970007F938F939F93AF93BF93EF93FF9348E809
:1039800050E064E870E081E090E00E94170CFF9145
:10399000EF91BF91AF919F918F917F916F915F91C7
:1039A0004F913F912F910F900BBE0F900FBE0F9034
:1039B0001F901895109291051092900588EE93E053
:1039C000A0E0B0E08093920590939305A0939405B6
:1039D000B093950525E232E030938F0520938E0554
:1039E00045E351E050939B0540939A0544E351E031
:1039F00050939D0540939C0540E351E050939F05F3
:103A000040939E0541E351E05093A1054093A005EA
:103A100042E351E05093A3054093A20546E351E0F1
:103A20005093A5054093A4051092A7051092A805F0
:103A30001092A9051092AA0510922E0610922D063A
:103A400080932F0690933006A0933106B0933206F0
:103A500030932C0620932B0645ED50E0509338060A
:103A60004093370644ED50E050933A0640933906B0
:103A700040ED50E050933C0640933B0641ED50E052
:103A800050933E0640933D0642ED50E05093400671
:103A900040933F0646ED50E0509342064093410666
:103AA0001092440610924506109246061092470660
:103AB0001092CB061092CA068093CC069093CD0646
:103AC000A093CE06B093CF063093C9062093C806C4
:103AD0004DEC50E05093D5064093D4064CEC50E0AA
:103AE0005093D7064093D60648EC50E05093D90641
:103AF0004093D80649EC50E05093DB064093DA0639
:103B00004AEC50E05093DD064093DC064EEC50E06A
:103B10005093DF064093DE061092E1061092E20613
:103B20001092E3061092E40610926807109267075D
:103B30008093690790936A07A0936B07B0936C0713
:103B4000309366072093650725EC30E030937207C9
:103B50002093710724EC30E03093740720937307AF
:103B600020EC30E0309376072093750721EC30E0AD
:103B7000309378072093770722EC30E030937A0770
:103B80002093790726EC30E030937C0720937B0765
:103B900010927E0710927F07109280071092810783
:103BA00022E038E010924308109242083093460811
:103BB0002093450840E450E050934808409347085C
:103BC0001092490810924A0810924C0810924B0823
:103BD00010924D0810924F0810924E081092510802
:103BE00010925008109253081092520810925508E3
:103BF00010925408109257081092560810925908C3
:103C00001092580810925B0810925A08109261089E
:103C10001092600810926308109262081092650872
:103C20001092640810926708109266081092750846
:103C3000109274081092440810928208109284081E
:103C4000109283081092570948E052E05093690897
:103C50004093680842E152E050936B0840936A0831
:103C60004CE152E050936D0840936C0846E252E0FC
:103C700050936F0840936E0840E352E050937108F0
:103C8000409370084AE352E05093730840937208DF
:103C900044E452E0509377084093760845E452E0BC
:103CA000509379084093780847E859E050937B088F
:103CB00040937A0830935D0820935C084EE353E00C
:103CC00050937D0840937C0830935F0820935E08F2
:103CD00020E532E030937F0820937E0810925B0944
:103CE00010925A0980935C0990935D09A0935E0934
:103CF000B0935F0987E392E0909359098093580944
:103D000089E492E09093860A8093850A1092A90A2A
:103D10001092A80A1092AB0A1092AA0A1092AD0A49
:103D20001092AC0A1092AF0A1092AE0A8FEF8093F5
:103D3000A70AE5EFF9E02FEF48EB5BE08091F4098B
:103D40008033B8F491E0980F9093F409808390E069
:103D5000DC01AA0FBB1FA80FB91FAC59B64F1296B2
:103D60005C934E93119733968AE0E538F80731F764
:103D700008952083F8CF789484B5826084BD84B59B
:103D8000816084BD85B5826085BD85B5816085BD56
:103D900080916E00816080936E001092810080910E
:103DA0008100826080938100809181008160809396
:103DB0008100809180008160809380008091B100BB
:103DC00084608093B1008091B00081608093B000E6
:103DD0008091910082608093910080919100816038
:103DE00080939100809190008160809390008091F9
:103DF000A10082608093A1008091A10081608093E6
:103E0000A1008091A00081608093A0008091210199
:103E10008260809321018091210181608093210142
:103E20008091200181608093200180917A008460DC
:103E300080937A0080917A00826080937A008091EA
:103E40007A00816080937A0080917A008068809304
:103E50007A001092C10089E18093820880918308E2
:103E6000909184080E94A826C0918208D0E0CE01DB
:103E700001960E940C269093840880938308FC018D
:103E8000EC0FFD1F108222E0DC012C9325E011963F
:103E90002C93AE014250510965E573E002960E94F1
:103EA000312789EC9DE09093F3048093F2048EEF28
:103EB0009CE09093F1048093F00481ED9CE090935A
:103EC000EF048093EE048CEA9FE09093ED048093DE
:103ED000EC048BE793E19093EB048093EA0484E590
:103EE0009FE09093E9048093E80484E696E1909340
:103EF000F5048093F4048FED94E19093F70480939C
:103F0000F60481E08093570940E051EE60E070E0F4
:103F100085E697E00E94B4028091570981114FC055
:103F200061E08DE00E94620562ED70E080E090E06B
:103F30000E94450661E08DE00E94340568E270E071
:103F400080E090E00E94450660E08DE00E9434052C
:103F500062ED70E080E090E00E94450661E08DE057
:103F60000E94340568E270E080E090E00E9445061F
:103F700060E08DE00E9434056AEF70E080E090E040
:103F80000E944506C5E062ED70E080E090E00E948E
:103F9000450661E08DE00E94340568E270E080E053
:103FA00090E00E94450660E08DE00E943405C1501B
:103FB00051F76DE770E080E090E00E94450685E6ED
:103FC00097E09093810880938008909343088093B2
:103FD000420882E498E00E94140382E098E00E9484
:103FE00013090E94DF1425E0D22ECC24C39402E0F2
:103FF00010E0EE24E394F12C80910105882391F1E7
:10400000D091F804D2FDE1C2C0E0D3FF06C083E046
:104010000E940B05892B09F0C860D4FF06C084E01C
:104020000E940B05892B09F0C061D5FF06C085E011
:104030000E940B05892B09F0C062D6FF06C086E0FE
:104040000E940B05892B09F0C064D7FF06C087E0EA
:104050000E940B05892B09F0C06840E06C2F80E0BE
:104060000E94690F80910205882309F44AC0D0910B
:10407000F904CD2FC170D0FF07C088E00E940B0566
:10408000C1E0892B09F4C0E0D1FF06C089E00E949D
:104090000B05892B09F0C260D2FF06C08AE00E949E
:1040A0000B05892B09F0C460D3FF06C08BE00E948A
:1040B0000B05892B09F0C860D4FF06C08CE00E9474
:1040C0000B05892B09F0C061D5FF06C08DE00E9469
:1040D0000B05892B09F0C062D6FF06C08EE00E9456
:1040E0000B05892B09F0C064D7FF06C08FE00E9442
:1040F0000B05892B09F0C06840E06C2F81E00E941D
:10410000690F80910305882309F44AC0D091FA040D
:10411000CD2FC170D0FF07C080E10E940B05C1E028
:10412000892B09F4C0E0D1FF06C081E10E940B0594
:10413000892B09F0C260D2FF06C082E10E940B0504
:10414000892B09F0C460D3FF06C083E10E940B05F0
:10415000892B09F0C860D4FF06C084E10E940B05DA
:10416000892B09F0C061D5FF06C085E10E940B05CF
:10417000892B09F0C062D6FF06C086E10E940B05BC
:10418000892B09F0C064D7FF06C087E10E940B05A8
:10419000892B09F0C06840E06C2F82E00E94690F13
:1041A00080910405882309F44AC0D091FB04CD2FE7
:1041B000C170D0FF07C088E10E940B05C1E0892BC8
:1041C00009F4C0E0D1FF06C089E10E940B05892BEC
:1041D00009F0C260D2FF06C08AE10E940B05892B5C
:1041E00009F0C460D3FF06C08BE10E940B05892B48
:1041F00009F0C860D4FF06C08CE10E940B05892B32
:1042000009F0C061D5FF06C08DE10E940B05892B26
:1042100009F0C062D6FF06C08EE10E940B05892B13
:1042200009F0C064D7FF06C08FE10E940B05892BFF
:1042300009F0C06840E06C2F83E00E94690F809114
:104240000505882309F44AC0D091FC04CD2FC17024
:10425000D0FF07C080E20E940B05C1E0892B09F462
:10426000C0E0D1FF06C081E20E940B05892B09F056
:10427000C260D2FF06C082E20E940B05892B09F0C2
:10428000C460D3FF06C083E20E940B05892B09F0AE
:10429000C860D4FF06C084E20E940B05892B09F098
:1042A000C061D5FF06C085E20E940B05892B09F08D
:1042B000C062D6FF06C086E20E940B05892B09F07A
:1042C000C064D7FF06C087E20E940B05892B09F066
:1042D000C06840E06C2F84E00E94690F8091060561
:1042E000882309F44AC0D091FD04CD2FC170D0FFBE
:1042F00007C088E20E940B05C1E0892B09F4C0E0E9
:10430000D1FF06C089E20E940B05892B09F0C2602B
:10431000D2FF06C08AE20E940B05892B09F0C46017
:10432000D3FF06C08BE20E940B05892B09F0C86001
:10433000D4FF06C08CE20E940B05892B09F0C061F6
:10434000D5FF06C08DE20E940B05892B09F0C062E3
:10435000D6FF06C08EE20E940B05892B09F0C064CF
:10436000D7FF06C08FE20E940B05892B09F0C068B9
:1043700040E06C2F85E00E94690F8091070588233B
:1043800009F44AC0D091FE04CD2FC170D0FF07C000
:1043900080E30E940B05C1E0892B09F4C0E0D1FF46
:1043A00006C081E30E940B05892B09F0C260D2FF91
:1043B00006C082E30E940B05892B09F0C460D3FF7D
:1043C00006C083E30E940B05892B09F0C860D4FF67
:1043D00006C084E30E940B05892B09F0C061D5FF5C
:1043E00006C085E30E940B05892B09F0C062D6FF49
:1043F00006C086E30E940B05892B09F0C064D7FF35
:1044000006C087E30E940B05892B09F0C06840E0D5
:104410006C2F86E00E94690F80910805882309F4BB
:104420004AC0D091FF04CD2FC170D0FF07C088E3F0
:104430000E940B05C1E0892B09F4C0E0D1FF06C042
:1044400089E30E940B05892B09F0C260D2FF06C0E8
:104450008AE30E940B05892B09F0C460D3FF06C0D4
:104460008BE30E940B05892B09F0C860D4FF06C0BE
:104470008CE30E940B05892B09F0C061D5FF06C0B3
:104480008DE30E940B05892B09F0C062D6FF06C0A0
:104490008EE30E940B05892B09F0C064D7FF06C08C
:1044A0008FE30E940B05892B09F0C06840E06C2F58
:1044B00087E00E94690F809109058823D1F1D0918E
:1044C0000005CD2FC170D0FF07C080E40E940B050E
:1044D000C1E0892B09F4C0E0D1FF06C081E40E944D
:1044E0000B05892B09F0C260D2FF06C082E40E944E
:1044F0000B05892B09F0C460D3FF06C083E40E943A
:104500000B05892B09F0C860D4FF06C084E40E9423
:104510000B05892B09F0C061D5FF06C085E40E9418
:104520000B05892B09F0C06240E06C2F88E00E94E7
:10453000690F8091800890918108DC01ED91FC91D8
:104540000084F185E02D1995892B09F4D7C180915C
:10455000800890918108DC01ED91FC910284F38543
:10456000E02D19959C018F3F980719F3982F8091A2
:104570004D08882309F49BC0973F09F087C010922B
:104580004D08A0914508B09146086C91613709F437
:1045900040C0693709F064C0E0917A08F0917B0867
:1045A000309739F280914E0890914F0883309105F1
:1045B000A0F430E020E050E040E070E060E0809166
:1045C0005C0890915D081995B4CF82E00E940B05BC
:1045D000892B09F419CDC4E018CDBD016D5F7F4F63
:1045E00003970E949502BC016D5F7F4F80E00E949F
:1045F0006502E0914508F09146089F012D5F3F4F0D
:10460000428150E0618170E0E0917A08F0917B088E
:10461000D6CF8091760890917708892B09F489CFBD
:10462000BD016F5F7F4F80914E0890914F080197B9
:104630000E949502BC016F5F7F4F80E00E9465027F
:1046400060914508709146086F5F7F4FE091760852
:10465000F09177088091620890916308199569CF6D
:10466000E0917808F0917908309709F462CF9D01C4
:104670002F5F3F4F40914E0850914F0841505109D4
:104680008091640890916508199553CF60914E0808
:1046900070914F08822F0E94650280914E08909180
:1046A0004F08019690934F0880934E0842CF609137
:1046B0004B0870914C086115710509F4B1C027FDD4
:1046C000AFC06150710970934C0860934B08822F02
:1046D0000E94650280914B0890914C08892B09F04B
:1046E00028CF80914908882309F423CF803D09F41D
:1046F00083C040F4803949F1803C09F469C01092CC
:10470000490817CF843FE1F1853F09F44DC0803E51
:10471000B1F7E0916808F0916908309781F3A091B2
:104720004508B09146084C9120E8429FC0011124F1
:1047300011964C91480F592F511D60914A08809154
:104740005008909151081995DACFE0916A08F091DC
:104750006B083097A1F2A0914508B09146084C91A2
:1047600020E8429FC001112411964C91480F592F07
:10477000511D60914A088091520890915308E3CFEF
:10478000E0917008F0917108309709F4B8CFA091CA
:104790004508B09146084C9150E011966C9180917B
:1047A000580890915908CFCFE0917208F0917308A2
:1047B000309709F4A4CFA0914508B09146084C91D8
:1047C00050E011966C9180915A0890915B08BBCF94
:1047D000E0916C08F0916D08309709F490CFA091AA
:1047E0004508B09146084C9150E060914A0880918C
:1047F000540890915508A7CFE0916E08F0916F088A
:10480000309709F47CCFA0914508B09146084C91AF
:1048100050E060914A08809156089091570893CFD4
:10482000903F30F4822F8F7080934A08922F907FB0
:10483000903FF1F190F4903CB1F150F4903909F0CF
:1048400078CE10934C0800934B089093490871CE92
:10485000903D49F1903EA9F36CCE993F09F442C0D6
:1048600028F48CE0890F823060F363CE9F3F09F01B
:1048700060CE10924C0810924B081092490810928A
:104880004A0890E080E0209147083091480882175C
:104890009307A8F4E0914508F0914608E80FF91F46
:1048A00010820196F0CFF0924C08E0924B08CDCFE9
:1048B000C0924D0810924F0810924E083ACE1092B6
:1048C0004D0810924F0810924E08E0917E08F0912A
:1048D0007F088091660890916708309709F429CE87
:1048E000199527CEE0917C08F0917D08309709F466
:1048F00020CE80915E0890915F08F2CF8FB7F89438
:1049000080900A0590900B05A0900C05B0900D05C5
:104910008FBF80913A0590913B05A0913C05B091E5
:104920003D05409101025091020270E060E0881A5A
:10493000990AAA0ABB0A481559056A057B0508F0B9
:1049400051C0840F951FA61FB71F80933A059093FF
:104950003B05A0933C05B0933D0592E0A92E98E05D
:10496000B92ECAECC031C8F4F501ED57FF4F808174
:10497000823099F480913805909139050C2E02C04F
:10498000959587950A94E2F780FF07C08C2F0E94C7
:104990000306BC018C2F0E946508CF5F8FEFA81A19
:1049A000B80AC031F9F68091000287FD1BC0C0E053
:1049B0002C2F30E080910002082E000C990B8217FA
:1049C000930784F0D29EF001D39EF00D1124E05F96
:1049D000FA4F618172812481438180810E94281570
:1049E000CF5FE6CF8091A70A87FD74C0812C882D08
:1049F00090E02091A70A022E000C330B28173907EC
:104A00000CF468C08B57954FDC0112969C90692D71
:104A100085E89AE00E946507EC01892B09F458C0EB
:104A2000B7E0B91540F480910E0590910F05C817B5
:104A3000D90709F04DC0E92DF0E0EE0FFF1FE15757
:104A4000F54FA080B180E881F9810084F185E02DE7
:104A5000CE01199518161906DCF580EF0E94580250
:104A600080E60E945802892D80640E945802A11499
:104A7000B10401F5E881F9810084F185E02DCE01D2
:104A800019955C011A141B0404F5E881F98102846C
:104A9000F385E02DCE011995982E8F770E9458024C
:104AA000892D881F8827881F0E945802E1E0AE1ACE
:104AB000B108E8CFE881F9810084F185E02DCE01CD
:104AC0001995A816B906B4F6DDCF87EF0E945802F3
:104AD00083948DCF0E947F048FCA052E97FB1EF40E
:104AE00000940E94842557FD07D00E949F2507FC53
:104AF00003D04EF40C948425509540953095219523
:104B00003F4F4F4F5F4F08959095809570956195F9
:104B10007F4F8F4F9F4F08950E94C125A59F900DF5
:104B2000B49F900DA49F800D911D11240895B7FF8F
:104B30000C948C250E948C25821B930B0895A1E276
:104B40001A2EAA1BBB1BFD010DC0AA1FBB1FEE1F07
:104B5000FF1FA217B307E407F50720F0A21BB30B52
:104B6000E40BF50B661F771F881F991F1A9469F7CE
:104B700060957095809590959B01AC01BD01CF012A
:104B80000895A29FB001B39FC001A39F700D811D26
:104B90001124911DB29F700D811D1124911D089546
:104BA000991B79E004C0991F961708F0961B881F7F
:104BB0007A95C9F78095089597FB072E16F400940F
:104BC00007D077FD09D00E94F82507FC05D03EF4F8
:104BD000909581959F4F0895709561957F4F0895A9
:104BE000EE0FFF1F881F8BBF0790F691E02D1994E1
:104BF000AA1BBB1B51E107C0AA1FBB1FA617B70703
:104C000010F0A61BB70B881F991F5A95A9F780951E
:104C10009095BC01CD0108950F931F93CF93DF931F
:104C20008230910510F482E090E0E091B20AF091B8
:104C3000B30A30E020E0B0E0A0E0309799F421150D
:104C4000310509F44AC0281B390B24303105D8F549
:104C50008A819B816115710589F1FB0193838283B0
:104C6000FE0111C04081518102811381481759070B
:104C7000E0F04817590799F4109761F012960C93D9
:104C8000129713961C933296CF01DF91CF911F910B
:104C90000F9108950093B20A1093B30AF4CF21152F
:104CA000310551F04217530738F0A901DB019A0191
:104CB000BD01DF01F801C1CFEF01F9CF9093B30A35
:104CC0008093B20ACDCFFE01E20FF31F819391933F
:104CD0002250310939832883D7CF2091B00A3091EF
:104CE000B10A232B41F42091050230910602309342
:104CF000B10A2093B00A20910302309104022115D9
:104D0000310541F42DB73EB740910702509108029A
:104D1000241B350BE091B00AF091B10AE217F307BA
:104D2000A0F42E1B3F0B2817390778F0AC014E5F1B
:104D30005F4F2417350748F04E0F5F1F5093B10A9D
:104D40004093B00A819391939FCFF0E0E0E09CCF35
:104D5000CF93DF930097E9F0FC0132971382128220
:104D6000A091B20AB091B30AED0130E020E01097B3
:104D7000A1F420813181820F931F2091B00A3091DC
:104D8000B10A2817390709F061C0F093B10AE0931E
:104D9000B00ADF91CF910895EA01CE17DF07E8F559
:104DA0004A815B819E0141155105B1F7E901FB8301
:104DB000EA8349915991C40FD51FEC17FD0761F49F
:104DC000808191810296840F951FE90199838883E0
:104DD000828193819B838A83F0E0E0E012968D913B
:104DE0009C9113970097B9F52D913C911197CD01A6
:104DF0000296820F931F2091B00A3091B10A2817B2
:104E0000390739F6309751F51092B30A1092B20A69
:104E1000B093B10AA093B00ABCCFD383C2834081C0
:104E20005181840F951FC817D90761F44E5F5F4FFA
:104E300088819981480F591F518340838A819B81C2
:104E4000938382832115310509F0B0CFF093B30A23
:104E5000E093B20A9ECFFD01DC01C0CF1382128223
:104E6000D7CFFB01DC014150504048F001900D923A
:104E70000020C9F701C01D9241505040E0F708954D
:044E8000F894FFCFD4
:104E8400FF13000000B40A800012100E13110F006B
:104E940000000091064503690B9006ED06050778AE
:104EA4000600000000120445038B035F04BC039A50
:104EB40003AE03000000003A0B0D0B690B900606CD
:104EC4000BF30AE40A000000009807B607C210A416
:104ED400104D617820736572766F7320617474610C
:104EE40063686564005370656369667920736572ED
:104EF40069616C20525820616E6420545820706996
:104F04006E7300556E6B6E6F776E2070696E206DD8
:104F14006F6465004932433A20546F6F206D616EAF
:104F24007920627974657320726563656976656456
:104F3400004932433A20546F6F20666577206279C6
:104F44007465732072656365697665640031302D1C
:104F54006269742061646472657373696E67206E3C
:104F64006F7420737570706F7274656400746F6F02
:104F7400206D616E792071756572696573002F41CA
:104F840070706C69636174696F6E732F41726475BC
:104F9400696E6F2E6170702F436F6E74656E7473DB
:104FA4002F4A6176612F6C69627261726965732F31
:104FB4004669726D6174612F6578616D706C65739B
:104FC4002F5374616E646172644669726D617461B9
:104FD400506C75732F5374616E64617264466972A8
:0E4FE4006D617461506C75732E696E6F000004
:00000001FF
