:100000000C945D000C9485000C9485000C94850084
:100010000C9485000C9485000C9485000C9485004C
:100020000C9485000C9485000C9485000C94481366
:100030000C9485000C9485000C9485000C9485002C
:100040000C94DF110C9485000C94AD110C94871165
:100050000C9485000C9485000C9485000C9485000C
:100060000C9429120C948500000000002400270045
:100070002A0000000000250028002B0004040404CE
:100080000404040402020202020203030303030342
:10009000010204081020408001020408102001021F
:1000A00004081020000000080002010000030407FB
:1000B0000000000000000000041411241FBECFEF58
:1000C000D8E0DEBFCDBF12E0A0E0B1E0EAEFF2E39E
:1000D00002C005900D92AA31B107D9F725E0AAE137
:1000E000B2E001C01D92AE37B207E1F710E0CDE5F6
:1000F000D0E004C02197FE010E941F18CC35D10723
:10010000C9F70E948E140C947B190C9400000F9375
:100110001F93CF93DF93EC010AED14E0D8018D918A
:100120009C916C2F6F77DC01ED91FC910190F08137
:10013000E02D0995F80180819181CC0FCD2FCC1F46
:10014000DD0B6C2F6F77DC01ED91FC910190F0815C
:10015000E02DDF91CF911F910F9109948091DA04E6
:100160009091DB04DC01ED91FC910190F081E02D98
:1001700060EF09948091DA049091DB04DC01ED9149
:10018000FC910190F081E02D67EF0994CF93DF930C
:100190000E94AE008091DA049091DB04DC01ED91C5
:1001A000FC910190F081E02D69E709958091DA04D6
:1001B0009091DB04A091DD04B091DE04EC01E881B4
:1001C000F9810190F081E02D6C9109958091DA041C
:1001D0009091DB04A091DD04B091DE04EC01E88194
:1001E000F9810190F081E02D11966C910995C2E0A2
:1001F0008091DC04C81760F4E091DD04F091DE0426
:10020000EC0FF11D808190E00E948700CF5FF0CF5E
:10021000DF91CF910C94BA00CF93DF93CAEDD4E075
:1002200088819981DC01ED91FC910190F081E02DB4
:1002300069EF099588819981DC01ED91FC9101902C
:10024000F081E02D62E0099588819981DC01ED91D2
:10025000FC910190F081E02D65E0DF91CF91099450
:10026000CF93DF93EB01A091DA04B091DB048F70A0
:10027000682F606EED91FC9111970190F081E02D57
:10028000CD010995CE01DF91CF910C948700FF92AB
:100290000F931F93CF93DF93C82F062FF42E152FA4
:1002A0000E94AE008091DA049091DB04DC01ED91B4
:1002B000FC910190F081E02D6C2F0995CF2DD12F6D
:1002C0000C0F1D2F111DC017D10729F0899190E047
:1002D0000E948700F8CFDF91CF911F910F91FF907F
:1002E0000C94BA00A091DA04B091DB04ED91FC917A
:1002F00011970190F081E02D682FCD0109941092A3
:10030000DF041092E0041092E104E2EEF4E01192B6
:1003100085E0E232F807D9F7109222051092240501
:1003200010922305E0917305F0917405309709F060
:1003300009940895AF92BF92CF92DF92EF92FF920D
:100340000F931F93CF93DF936C017B018B01040FFD
:10035000151FEB015E01AE18BF08C017D10759F099
:100360006991D601ED91FC910190F081E02DC601DB
:100370000995892B79F7C501DF91CF911F910F91D5
:10038000FF90EF90DF90CF90BF90AF900895FC0169
:10039000538D448D252F30E0842F90E0821B930BEA
:1003A000541710F0CF96089501970895FC01918D90
:1003B000828D981761F0A28DAE0FBF2FB11D5D9693
:1003C0008C91928D9F5F9F73928F90E008958FEF35
:1003D0009FEF0895FC01918D828D981731F0828DE9
:1003E000E80FF11D858D90E008958FEF9FEF089540
:1003F000FC01918D228D892F90E0805C9F4F821BA4
:1004000091098F739927089580EA93E00E94F8017B
:1004100021E0892B09F420E0822F089580E090E00C
:10042000892B29F00E94040281110C940000089588
:10043000FC01A48DA80FB92FB11DA35ABF4F2C9159
:10044000848D90E001968F739927848FA689B78950
:100450002C93A089B1898C91837080648C93938D47
:10046000848D981306C00288F389E02D80818F7DEA
:1004700080830895EF92FF920F931F93CF93DF93A2
:10048000EC0181E0888F9B8D8C8D98131AC0E889D0
:10049000F989808185FF15C09FB7F894EE89FF899F
:1004A0006083E889F98980818370806480839FBF3D
:1004B00081E090E0DF91CF911F910F91FF90EF903D
:1004C0000895F62E0B8D10E00F5F1F4F0F7311274D
:1004D000E02E8C8D8E110CC00FB607FCFACFE88988
:1004E000F989808185FFF5CFCE010E941802F1CFF6
:1004F000EB8DEC0FFD2FF11DE35AFF4FF0829FB7FC
:10050000F8940B8FEA89FB8980818062CFCFCF93EB
:10051000DF93EC01888D8823B9F0AA89BB89E8892B
:10052000F9898C9185FD03C0808186FD0DC00FB6D1
:1005300007FCF7CF8C9185FFF2CF808185FFEDCF4F
:10054000CE010E941802E9CFDF91CF91089590E08B
:10055000FC01EC55FF4F2491FC01E057FF4F349113
:10056000FC01E458FF4FE491EE23C9F0222339F057
:10057000233001F1A8F4213019F1223029F1F0E003
:10058000EE0FFF1FEE58FF4FA591B4918FB7F8946F
:10059000EC91611126C030953E233C938FBF0895A6
:1005A0002730A9F02830C9F0243049F78091800025
:1005B0008F7D03C0809180008F7780938000DFCF94
:1005C00084B58F7784BDDBCF84B58F7DFBCF8091E1
:1005D000B0008F778093B000D2CF8091B0008F7D34
:1005E000F9CF3E2BDACFCF93DF9390E0FC01E057B9
:1005F000FF4F249184589F4FFC0184918823C9F0B8
:1006000090E0880F991FFC01E859FF4FA591B49124
:10061000FC01EE58FF4FC591D49161110DC09FB7F9
:10062000F8948C91209582238C93888128232883A9
:100630009FBFDF91CF910895623051F49FB7F89436
:100640003C91822F809583238C93E8812E2BEFCFD2
:100650008FB7F894EC912E2B2C938FBFEACF8E306E
:1006600008F08E508770806480937C0080917A00BF
:10067000806480937A0080917A0086FDFCCF80911F
:1006800078009091790008953FB7F8948091140311
:1006900090911503A0911603B091170326B5A89B5E
:1006A00005C02F3F19F00196A11DB11D3FBFBA2F04
:1006B000A92F982F8827BC01CD01620F711D811DC4
:1006C000911D42E0660F771F881F991F4A95D1F749
:1006D00008958F929F92AF92BF92CF92DF92EF9246
:1006E000FF926B017C010E9444034B015C01C11429
:1006F000D104E104F104B9F00E94440368197909B6
:100700008A099B09683E73408105910580F321E0C9
:10071000C21AD108E108F10888EE880E83E0981E1D
:10072000A11CB11CE4CFFF90EF90DF90CF90BF9061
:10073000AF909F908F9008952091EE02260F33275F
:10074000331F21323105ECF420917603FC0190E057
:1007500080E0243069F082E00895A091EE022191BA
:10076000AC0144535D4FA40FB52FB11D2C930196DE
:10077000861798F38091EE02680F6093EE0280E096
:10078000089581E008951092760381E080937503C7
:100790001092500361E082E10E94A70261E083E1D0
:1007A0000E94A702E9EBF0E080818E7F8083808148
:1007B0008D7F808388E48093B80085E48093BC00BB
:1007C0000895CF93DF9391E09093CB028823B9F003
:1007D000C091B800D091BA008091BC008A7B809310
:1007E000BC0060E082E10E94A70260E083E10E9419
:1007F000A7020E94C303D093BA00C093B800DF9150
:10080000CF9108958F929F92AF92BF92CF92DF9235
:10081000EF92FF920F931F93CF93DF93D0919F039B
:10082000D13208F0D7C0182FC0919E030E94440314
:100830006B017C018091760381116BC082E0809313
:100840007603109375038FEF8093740310927303F4
:10085000D0937203AEE7B3E0E2E5F3E080E0D813B3
:1008600091C01092510380915103CC0FC82BC093BB
:10087000510380915003813009F088C010925003D9
:100880000E9444036B017C01809151038093BB0063
:100890008091780390917903A0917A03B0917B03C2
:1008A000892B8A2B8B2BA1F00E94440300917803A3
:1008B0001091790320917A0330917B036C197D09A3
:1008C0008E099F09061717072807390708F442C041
:1008D0008091BC0083FDD8CF85EC8093BC000E9442
:1008E00044036B017C0180917603823009F450C08F
:1008F000809174038F3F09F46FC08091740380323C
:1009000009F46CC080917403803309F469C084E0F9
:1009100026C08091780390917903A0917A03B091D9
:100920007B03892B8A2B8B2B09F484CF0E944403F1
:100930008090780390907903A0907A03B0907B0325
:100940006C197D098E099F0986169706A806B906B7
:1009500008F070CF809177030E94E10385E0109248
:100960007D0310929F0310927C03DF91CF911F9122
:100970000F91FF90EF90DF90CF90BF90AF909F903E
:100980008F9008959D9191938F5F69CF85EEA5CF4C
:100990008091780390917903A0917A03B0917B03C1
:1009A000892B8A2B8B2B09F49ECF0E944403009144
:1009B00078031091790320917A0330917B036C19AD
:1009C0007D098E099F09061717072807390708F0C0
:1009D0008ACFC0CF81E0C3CF80E0C1CF82E0BFCF5C
:1009E00083E0BDCF089508950895E091CA028091F3
:1009F000C902E81730F4F0E0E755FD4F808190E040
:100A000008958FEF9FEF08959091CA028091C902D7
:100A10002FEF3FEF981748F4E92FF0E0E755FD4F2F
:100A2000208130E09F5F9093CA02C90108958091B0
:100A3000C9029091CA02891B990B0895CF92DF9247
:100A4000EF92FF920F931F93CF93DF937C01CB0123
:100A50008A0120917C03222389F0EB016B01C40EF3
:100A6000D51ECC15DD0569F06991D701ED91FC919A
:100A70000190F081E02DC7010995F3CF642F0E940A
:100A80009C03C801DF91CF911F910F91FF90EF90D0
:100A9000DF90CF900895CF93DF931F92CDB7DEB74D
:100AA000698320917C032223F9F020919F03203257
:100AB00058F021E030E0FC013383228390E080E0B5
:100AC0000F90DF91CF91089580917D03E82FF0E0A2
:100AD000E258FC4F998190838F5F80937D038093D0
:100AE0009F0381E090E0ECCF61E0CE0101960E948F
:100AF0009C03F7CF90E080E00895DF92EF92FF92A1
:100B00000F931F93CF93DF93EC01D62E7A018901C7
:100B100088818C3008F067C061E08D2D0E94F3025F
:100B20008881282F30E0F901EE0FFF1FE20FF31F3D
:100B3000EF56FB4F9D2D9F736081607C692B608316
:100B400020E232E02E193F0937FF02C02D5F3F4FF0
:100B50003595279535952795298320E639E0201B83
:100B6000310B37FF02C02D5F3F4F359527953595E7
:100B700027952A832CE0622F0E941318829FB001D0
:100B8000112430E020E0AB01420F531FFA01EE0FB9
:100B9000FF1FE40FF51FEF56FB4F908196FD16C027
:100BA0002F5F3F4F2C30310571F781110FC010922C
:100BB000800082E080938100109285001092840072
:100BC000B19A80916F00826080936F00E8818E2FD0
:100BD00090E0FC01EE0FFF1FE80FF91FEF56FB4FEF
:100BE0008081806480838881DF91CF911F910F91F4
:100BF000FF90EF90DF9008952091A6023091A70218
:100C000082179307F8F49C01220F331F280F391F16
:100C10008091A4029091A502E091A302820F931FFC
:100C2000E80FF92FF11D6083E091A202E80FF92F80
:100C3000F11D50832091A102820F911DFC01408380
:100C400080E0089581E008951092A0021092A7021A
:100C50001092A602E0E9F2E0A8E8B2E01192119247
:100C60001D9282E0E03AF807C9F70895CF938830E3
:100C7000B0F421E030E0082E02C0220F331F0A94A6
:100C8000E2F740914A0350914B03672B51F42095B2
:100C900030952423352330934B0320934A03CF917F
:100CA0000895242B352B30934B0320934A039091C6
:100CB00087029111F4CFC82F0E942F03BC018C2F03
:100CC000CF910C9430015F926F927F928F929F929E
:100CD000AF92BF92CF92DF92EF92FF920F931F934A
:100CE000CF93DF93833008F061C0D1E0D80FDD0FE0
:100CF000DD0FDD0F5D2ED73110F046E1542EC62FEB
:100D0000082FD8508D2E912CC401880F991F9C015B
:100D100026523B4F5901D12CC12C10E077247394FB
:100D2000D515C8F58EEF8D0F8231F8F4F601E80D78
:100D3000F91DEB5DFA4F90819230B8F48C2F87212A
:100D400066246394811101C0612C7601EE0CFF1CB6
:100D5000913089F4172931E6E30EF11CF501EE0D0F
:100D6000FF1D862D90E091838083770CDF5F8FEFEE
:100D7000C81AD80AD5CF882371F3F701EF59FF4F6E
:100D8000EA0DFB1D80819181019729F362E08D2F8F
:100D90000E94F302E0CF011119C0F8948BB16C2FBF
:100DA00068276C7F612368276BB97894DF91CF91B6
:100DB0001F910F91FF90EF90DF90CF90BF90AF9079
:100DC0009F908F907F906F905F9008950130D1F445
:100DD000C123F89495B1812F8F73809589239C2F1F
:100DE0009F73892B85B988B1612F62956695669549
:100DF000637060956823C295C695C695C370C62B6F
:100E0000C8B9D3CF1F70F89498B1812F880F880F7D
:100E100080958923C123CC0FCC0FC82BF1CF8F92A3
:100E20009F92AF92BF92CF92DF92EF92FF920F9379
:100E30001F93CF93DF93EB01863108F098C0082F02
:100E400010E0F801EB5DFA4F9081933009F49CC0FB
:100E5000943009F08CC08250823108F081C0F801D2
:100E6000E359FD4FC080D12C7601EE0CFF1C4B01E5
:100E7000603282E078070CF03EC0F701EC0DFD1DFA
:100E8000EA54FB4F8181A8E88A2E912C881A910898
:100E900087FD9394880C991C880C991C092C000CD4
:100EA000AA08BB08828128E532E0281B310987FDAA
:100EB0003395220F331F220F331F032E000C440BD8
:100EC000550B281939094A095B09DB01653B710596
:100ED00014F0A4EBB0E0B7FF02C0B0E0A0E00E94C5
:100EE000DA1724EB30E040E050E00E94B017820EA9
:100EF000931EA41EB51EF701EC0DFD1DEA54FB4F19
:100F000020812C3068F5318188E890E0831B9109BD
:100F100037FD9395880F991F880F991F881699069A
:100F20007CF0328188E592E0831B910937FD93952F
:100F3000880F991F880F991F881699060CF4C40111
:100F40000297880F991F4FB7F89430E0F901EE0F20
:100F5000FF1FE20FF31FEF56FB4F928381834FBFBA
:100F6000000F111FF801E55CFA4FD183C083DF91B8
:100F7000CF911F910F91FF90EF90DF90CF90BF9096
:100F8000AF909F908F9008957B01D82F833041F0D0
:100F90008BEF800F823020F087EF800F833058F482
:100FA00061E08D2F0E94F302E114F10461F460E02E
:100FB0008D2F0E94A702000F111FF801E55CFA4F68
:100FC000F182E082D4CF8FEFE816F10411F461E0F2
:100FD000EFCFF801EC55FF4FE491E33021F148F4F5
:100FE000E130B9F0E230D1F080E8E816F1047CF7A6
:100FF000DECFE73011F1E83041F1E430A9F780911C
:101000008000806280938000F0928B00E0928A00E2
:10101000D2CF84B5806884BDE7BCCDCF84B5806273
:1010200084BDE8BCC8CF8091800080688093800038
:10103000F0928900E0928800BECF8091B000806875
:101040008093B000E092B300B6CF8091B000806290
:101050008093B000E092B400AECF9EEF980F923133
:1010600080F4E82FF0E0DF01AB5DBA4F9C91913046
:1010700041F4EE0FFF1FE55CFA4F608371830C941F
:10108000A70208950F931F93CF93082F10E0F80144
:10109000E85EFC4F9081C62FC9230D571D4F4111AB
:1010A00004C0D8019C919C1771F1682F8091DA04DB
:1010B0009091DB046F706069DC01ED91FC9101900F
:1010C000F081E02D09958091DA049091DB046C2F7A
:1010D0006F77DC01ED91FC910190F081E02D099595
:1010E0008091DA049091DB046C2F70E0660F672F1B
:1010F000661F770BDC01ED91FC910190F081E02DF2
:101100000995F801C083CF911F910F910895833005
:1011100040F5282F30E0F901E55EFC4F6083672B36
:1011200001F1285E3C4FF9016081811106C099B13F
:101130009C7F692341E00C944208813049F493B1CB
:1011400026B19F73F0E42F9F90011124922BF1CFD1
:1011500026B130E035952795359527952F70622378
:10116000E9CF0895A82FB0E0A359BD4F9C91292F36
:1011700030E0F901EE0FFF1FE20FF31FEA54FB4FBF
:10118000E0812E2F30E0F901EE0FFF1FE20FF31F79
:10119000EF56FB4F80818F7B808380916B02981389
:1011A00008C0992319F0915090936B028FEF8C93A4
:1011B00008958823D9F3E0916C02EF5FE0936C020D
:1011C000F0E0E75EFD4F9083F1CFDC0170E0FB01C2
:1011D000E057FF4FE4911896EC93189764587F4FAF
:1011E000FB018491E82FF0E0EE0FFF1FEE58FF4F58
:1011F0008591949115969C938E931497FB0164911D
:10120000E62FF0E0EE0FFF1FE859FF4F8591949114
:1012100017969C938E9316970895FC0101900020D9
:10122000E9F73197BF01681B790BAC0181E70C949A
:1012300047014F925F926F927F928F929F92AF92EF
:10124000BF92DF92EF92FF920F931F93CF93DF93A2
:10125000D82E8B01D42FC22F6F3F760709F490C090
:1012600081E080937C03D0929E0310927D031092C4
:101270009F038DE394E00E944B058C2F0E94020493
:101280008091690290916A028230910538F0880F4E
:10129000991F880F991F05970197F1F70E94440342
:1012A0004B015C018091760381116CC0CD2FD1324E
:1012B00008F0C0E281E080937603809375039FEF8E
:1012C00090937403109273039C0F90937203809316
:1012D0005103909151038D2D880F892B80935103D9
:1012E00080915003813009F09EC0109250030E94FB
:1012F00044034B015C01809151038093BB008091BA
:10130000780390917903A0917A03B0917B03892BA4
:101310008A2B8B2BA1F00E944403409078035090BD
:10132000790360907A0370907B03681979098A09C0
:101330009B09461657066806790608F444C0809152
:10134000BC0083FDD8CF85EC8093BC000E94440391
:101350004B015C0180917603813009F466C0809175
:1013600073038C1710F4C0917303A2E5B3E0E9EAAC
:10137000F2E080E08C1761F19D9191938F5FFACF3D
:1013800000E08CCF8091780390917903A0917A034B
:10139000B0917B03892B8A2B8B2B09F483CF0E947E
:1013A0004403409078035090790360907A037090E2
:1013B0007B03681979098A099B094616570668064E
:1013C000790608F06FCF809177030E94E103C0E0B7
:1013D0001092CA02C093C902ED2EF12C8C2F90E01E
:1013E000E816F9060CF043C08DE291E00E940D0969
:1013F000D09226020093270206E212E0C80186522C
:1014000092408E159F05D4F50F5F1F4F9091C90232
:101410008091CA02981791F18DE394E00E9404052F
:10142000F8018183EBCF85EE8FCF80917803909187
:101430007903A0917A03B0917B03892B8A2B8B2BA4
:1014400009F488CF0E9444034090780350907903B8
:1014500060907A0370907B03681979098A099B0967
:10146000461657066806790608F074CFACCF8E157D
:101470009F050CF0BDCF8AE491E0B8CF62E06D0F1C
:1014800046E252E087E7DF91CF911F910F91FF90E5
:10149000EF90DF90BF90AF909F908F907F906F9074
:1014A0005F904F900C944701CF93DF93DB019091B5
:1014B0006B029C3078F530916C02682F70E0FB0174
:1014C000E359FD4F3323E1F0C32FD0E0C75EDD4F7A
:1014D00088818083315030936C02808123E0829F29
:1014E000C00111248A549B4F1A161B0674F414165B
:1014F00015065CF49A01AD01DF91CF910C947D0546
:1015000090839F5F90936B02E8CF20E639E040E242
:1015100052E0F2CF86E691E0DF91CF910C940D0975
:101520009F92AF92BF92CF92DF92EF92FF920F9372
:101530001F93CF93DF93C82ED12CE601C652DB4F09
:10154000FE01E55BFF4F90819F3709F49FC0963005
:1015500061F490918602992341F06630710529F07B
:10156000109286029FEF909300017B01182F0EEFDF
:10157000080F023108F564307105F1F0F601E35906
:10158000FD4F80818C30C0F490E0FC01EE0FFF1F16
:10159000E80FF91FEA54FB4FE0818E2F90E0FC0129
:1015A000EE0FFF1FE80FF91FEF56FB4F808186FFFC
:1015B00003C0812F0E94B20852EF952E910E87E052
:1015C000891558F061E070E032E0E316F10411F0A3
:1015D00070E060E0892D0E9436060231C8F4E12FE8
:1015E000E695E695E695F0E0E85EFC4F2081312F28
:1015F000377081E090E001C0880F3A95EAF7E11476
:10160000F10421F03BE0E316F10401F5822B808325
:101610005601AA0CBB1CF501E55CFA4F1182108241
:101620008CE0E816F10408F0C4C0F701E65EF44F60
:101630000C941F183A0B670B290B780B960BD90BE0
:10164000CD0BD90BD90BD90B460B520B80958223AE
:10165000DECF37E03915D0F0023120F460E0812F81
:101660000E94F302C55BDF4F88818F3779F082E0FB
:1016700088830CC0023150F460E0812F0E94F30295
:10168000C55BDF4F88818F3709F01882DF91CF91DA
:101690001F910F91FF90EF90DF90CF90BF90AF9090
:1016A0009F900895023190F762E0812F0E94F3022B
:1016B000C55BDF4F88818F3711F08BE08883F501A0
:1016C000E55CFA4F81E090E091838083DFCF0231C7
:1016D000E8F660E0812F0E94A70261E0812F0E945E
:1016E000F302C55BDF4F88818F3781F281E0C0CF85
:1016F000133041F08BEF810F823020F087EF810FA4
:10170000833020F661E0812F0E94F30261E0812F97
:101710000E94F30260E0812F0E94A702C55BDF4FA9
:1017200088818F3709F4B2CF83E0A2CF023108F06D
:10173000ADCFC55BDF4F88818F3711F084E08883A0
:10174000F601E359FD4F80818F3FA9F090E0FC0145
:10175000EE0FFF1FE80FF91FEA54FB4FE0818E2FB9
:1017600090E0FC01EE0FFF1FE80FF91FEF56FB4F53
:10177000808186FD8BCF4FEF5FEF6FEF7FEF812F83
:10178000DF91CF911F910F91FF90EF90DF90CF905D
:10179000BF90AF909F900C94540A1251123008F0F1
:1017A00075CFC55BDF4F88818F3709F46FCF86E037
:1017B0005FCF8AE791E0DF91CF911F910F91FF906A
:1017C000EF90DF90CF90BF90AF909F900C940D0959
:1017D0000F931F93CF93DF9381E0809387028091D3
:1017E0008602882329F0109286028FEF80930001F1
:1017F00010921B03109218031092830210921C0384
:10180000109219031092840210921D0310921A0371
:10181000109285020DE612E0C0E0DFEF82EF8C0F40
:1018200062E070E0883030F08EEF8C0F823128F467
:1018300061E070E08C2F0E94900AF801D1938F0133
:10184000CF5FC63159F710924B0310924A031092A2
:101850006C0210926B0210928702DF91CF911F9160
:101860000F91089585ED8093BC008091780390914D
:101870007903A0917A03B0917B030796A11DB11D56
:1018800023E0B695A795979587952A95D1F720914E
:10189000BC0024FD03C010927603089540917803A4
:1018A0005091790360917A0370917B03452B462B0D
:1018B000472B69F30097A105B10541F025E32A956F
:1018C000F1F700000197A109B109E1CF80917703F9
:1018D0000C94E1036F927F928F929F92AF92BF928E
:1018E000CF92DF92EF92FF920F931F93CF93DF93EC
:1018F000EA018F3609F4F7C1162F803708F05CC073
:10190000893609F481C290F4813509F48EC2DF91E1
:10191000CF911F910F91FF90EF90DF90CF90BF90EC
:10192000AF909F908F907F906F9008958B3609F4C1
:1019300005C28D3661F7662351F3C88180EF0E949E
:1019400072018EE60E9472018C2F0E947201C631D4
:1019500008F049C2D0E0FE01EB5DFA4F80810E94A1
:101960007201CC0FDD1F8E01055C1A4FF8018081DA
:101970008F770E947201F801808191819C0120780B
:10198000232B39F0880F892F881F990B8F770E949E
:101990007201C55CDA4F888199819C012227307CD5
:1019A000232B09F420C2990F880B990F982F881FB9
:1019B0008F770E94720117C2863709F46DC008F054
:1019C00051C0803709F0A3CF653008F4A0CF18814B
:1019D0008EEF810F823108F09ACF0981EA80FB8077
:1019E000CC81E12FF0E0E359FD4F80818C30C0F4D1
:1019F00090E0FC01EE0FFF1FE80FF91FEA54FB4FC8
:101A0000E0818E2F90E0FC01EE0FFF1FE80FF91F21
:101A1000EF56FB4F808186FF03C0812F0E94B208E2
:101A200060E8C69FA00111244F0D511D80E8E89E7B
:101A3000B0011124600F711D812F0E94540A64E0CF
:101A400070E0812FDF91CF911F910F91FF90EF9068
:101A5000DF90CF90BF90AF909F908F907F906F90CE
:101A60000C94900A883709F401C18A3709F04FCFE6
:101A7000623008F44CCF898190E8899F900111244D
:101A80008881820F932F911D009709F429C19093AB
:101A90000201809301013BCF998195FF12C08BE831
:101AA00091E0DF91CF911F910F91FF90EF90DF9028
:101AB000CF90BF90AF909F908F907F906F900C943D
:101AC0000D09888131E096FB222720F923279871A0
:101AD000983099F1E0F491111ACF30937C03809300
:101AE0009E0310927D0310929F0302E00117E8F419
:101AF000FE01E00FF11D6181679566276795808182
:101B0000680F8DE394E00E944B050E5FEFCF90319C
:101B1000D9F1983109F0FBCE2091000112160CF496
:101B200060C08FEF80930001F2CE81E00E9402043A
:101B300083E191E00197F1F7EACE9A814B8166301B
:101B4000E1F430E8439FB0011124690F711D4D810C
:101B50004795442747959C81490FDF91CF911F916D
:101B60000F91FF90EF90DF90CF90BF90AF909F903C
:101B70008F907F906F900C94190947954427479553
:101B8000490F6FEF7FEFE9CFE0910001E7301CF0E4
:101B90008BEA91E086CF3A819B816630D9F460E888
:101BA000969FA0011124430F511D9D819795992760
:101BB00097953C81930FEF5FE093000135E0E302DE
:101BC000F0011124EE5DFC4F8083528341839383A7
:101BD00024839DCE979599279795930F4FEF5FEFAD
:101BE000EACF90E0622F022E000C770B35E0492FF0
:101BF00050E06417750764F0349FF001359FF00DD5
:101C00001124EE5DFC4F4081481719F09F5FEFCF24
:101C100090E085E0492F50E0641775071CF198307B
:101C2000F8F4FA0131968E9FD0018F9FB00D1124E8
:101C3000AE5DBC4F3C91849FF001859FF00D112457
:101C4000EE5DFC4F308311964D915C91129752835B
:101C5000418313963C911397338314963C913483BC
:101C60009F5FD8CF21502093000151CE898140E859
:101C7000849F900111248881820F932F911D0097DA
:101C800021F090936A02809369028091860281110B
:101C90003ECEC0E08EEE8C0F823028F466E070E01D
:101CA0008C2F0E94900ACF5FC631A1F781E080930C
:101CB00086021092CA021092C90210927D031092FD
:101CC0009F030E94C30382EF94E09093ED02809300
:101CD000EC0283EF94E09093F1028093F00217CE30
:101CE00081E090E0D4CE623008F411CE898190E09A
:101CF000623091F02A81E0E82E9F90011124822B1E
:101D0000932B633049F02B8130E030E4239F302D5A
:101D100022271124822B932BBC018881DF91CF9144
:101D20001F910F91FF90EF90DF90CF90BF90AF90F9
:101D30009F908F907F906F900C940F0780EF0E9480
:101D400072018CE60E947201CEEF84EF8C0F883016
:101D500050F582E00E9472018AE00E9472018DEFCC
:101D60008C0F823010F189EF8C0F833020F51DC06D
:101D7000C23158F780E00E94720181E00E94720136
:101D80008BE00E94720181E00E94720181E00E945A
:101D9000720181E00E94720181E50E94720181E07E
:101DA0000E947201D2CFC130D1F683E00E9472014D
:101DB00088E00E947201C23130F484E00E94720116
:101DC0008EE00E94720180EF8C0F823030F486E04A
:101DD0000E94720181E00E9472018FE70E947201ED
:101DE000CF5FC43129F687EFDF91CF911F910F911B
:101DF000FF90EF90DF90CF90BF90AF909F908F902B
:101E00007F906F900C94720180EF0E9472018AE6BD
:101E10000E947201C2EF8FE7C83008F48C2F0E9435
:101E20007201CF5FC830B9F7DECF662309F46FCDFA
:101E30009881892F8F70833009F42EC108F064C017
:101E4000813009F47EC1823009F061CD8091680251
:101E500081115DCD80916702811159CD81E0809320
:101E6000680280E019E09091A002891708F0A4C0F0
:101E7000282F30E0B90168577D4FFB0190819923ED
:101E800009F496C0E091A402F091A502129FE0012E
:101E9000139FD00D1124C75BDB4FAE81BF819C9196
:101EA0002885922B9C93AC81BD81988528813981AE
:101EB000A901440F551F420F531F0A80DB81C02D1B
:101EC0009E01220F331F2C0F3D1FE20FF31F3C9189
:101ED000292F20952323932B3FB7F8944E0F5F1F94
:101EE0004E175F0709F462C0C191D8E09C9300C00F
:101EF000C7FF2C93CC0F00C000C000C008F42C9387
:101F000000C0DA9599F7ECCF843009F458C08530D9
:101F100009F0FDCC9981292F2F7109F49CC0392F2C
:101F20003072732E81E080936702022F000F020F40
:101F300010E0C091A602D091A702C21BD1096E0188
:101F4000CC0CDD1CCC0EDD1EE090A402F090A502AE
:101F50004701800E911E492F4074642E96FFA9C13F
:101F6000C8010E9425185C01009729F0A80170E0C3
:101F700060E00E946519CE01711002C090E080E01F
:101F8000BC01660F771F680F791F6E0D7F1DA801BA
:101F9000C5010E944A19772009F4A1C1A601B70121
:101FA000C4010E945319D0E0C0E0A0C13FBF7894A3
:101FB000FB0110828F5F57CF10926802A8CC8091EE
:101FC00067028111A4CCCB80D12CF12CE12C7EE0D6
:101FD000CC0CDD1CEE1CFF1C7A95D1F78C8190E0B7
:101FE000B0E0A0E0E5E1880F991FAA1FBB1FEA95AA
:101FF000D1F78C0D9D1DAE1DBF1D29816C017D018A
:10200000C20ED11CE11CF11C8A8190E0B0E0A0E07E
:10201000F7E0880F991FAA1FBB1FFA95D1F7C80ECA
:10202000D91EEA1EFB1E0091A6021091A702D0E065
:10203000C0E0C114D104E104F10421F5A801440F6A
:10204000551F400F511F70E060E08091A4029091F5
:10205000A5020E9465194091A00250E061E070E085
:1020600088E892E0DF91CF911F910F91FF90EF9060
:10207000DF90CF90BF90AF909F908F907F906F90A8
:102080000C946519C017D10731F3B701A601CE0131
:102090000E94FC052196F6CF80916702811137CC12
:1020A0000A81F0E80F9FC00111240981080F192F40
:1020B000111D4D8150E070E060E08EE0440F551F2F
:1020C000661F771F8A95D1F78E8190E0B0E0A0E07F
:1020D00025E1880F991FAA1FBB1F2A95D1F7840FEE
:1020E000951FA61FB71F2B81AC01BD01420F511DCB
:1020F000611D711D8C8190E0B0E0A0E037E0880F99
:10210000991FAA1FBB1F3A95D1F7480F591F6A1F85
:102110007B1FC8010E94FC054091A002A0E9B2E02B
:1021200090E080E0841708F0F2CBFC012D913D9106
:10213000019602171307B0F7E857FD4F81E080833F
:10214000E6CB913009F0E3CB633008F4E0CB0091AB
:1021500066020E942406002381F0B9E4CB2EB4E08D
:10216000DB2EF12C6F2DC6010E94E508F39429E0C7
:10217000C20ED11C38E0F312F5CF6BEA169F112D79
:1021800011241695E0E9AE2EE2E0BE2EF9E4CF2E42
:10219000F4E0DF2E912C88248394A2E07A2E0111A2
:1021A00005C069816F71C6010E94E508898190E0D0
:1021B00075E0959587957A95E1F78130910509F459
:1021C00067C08230910509F468C0892B31F4109200
:1021D000A2028092A3027092A102EB8040E8E49EEA
:1021E000700111248A81E80EF11CF601F182E0826F
:1021F00090E080E0992021F0F50132978081918173
:102200009701280F391FF501219331935F01F601E2
:10221000938382838091A6029091A702E80EF91E13
:10222000F092A702E092A6028091A0028F5F8093B5
:10223000A0029394F9E0CF0ED11C23961911AFCFD1
:102240008091A4029091A502009731F00E94C118DC
:102250001092A7021092A602E114F10409F457CBE0
:10226000E701CC0FDD1FCE0DDF1DCE010E9425182A
:102270009093A5028093A4020097B1F0AE0170E0A4
:1022800060E00E946519F092A702E092A6023FCB9F
:102290001092A3028092A2029ECF1092A10280927D
:1022A000A3027092A20299CF1092A7021092A602E6
:1022B0002ECB3323A1F0A601B701C4010E9453190C
:1022C000D0E0C0E0CE01880F991F8C0F9D1FA801A0
:1022D00070E060E08E0D9F1D0E94651915C0A6017B
:1022E000B401C7010E945319662061F3CE01880F23
:1022F000991F8C0F9D1FA801B5018E0D9F1D0E9477
:102300004A19C5010E94C11810926702A4CE1F92FB
:102310000F920FB60F9211242F933F934F935F9319
:102320006F937F938F939F93AF93BF93EF93FF939D
:1023300080EA93E00E941802FF91EF91BF91AF9164
:102340009F918F917F916F915F914F913F912F91CD
:102350000F900FBE0F901F9018951F920F920FB6FF
:102360000F9211242F938F939F93EF93FF93E091FC
:10237000B003F091B1038081E091B603F091B7030F
:1023800082FD1BC090818091B9038F5F8F73209174
:10239000BA03821741F0E091B903F0E0E056FC4F38
:1023A000958F8093B903FF91EF919F918F912F911A
:1023B0000F900FBE0F901F9018958081F4CF1F9241
:1023C0000F920FB60F9211242F933F938F939F93E9
:1023D000AF93BF9380911E0390911F03A0912003A0
:1023E000B09121033091130323E0230F2D3758F5CB
:1023F0000196A11DB11D2093130380931E0390939A
:102400001F03A0932003B0932103809114039091A4
:102410001503A0911603B09117030196A11DB11DDC
:102420008093140390931503A0931603B09317039E
:10243000BF91AF919F918F913F912F910F900FBEC0
:102440000F901F90189526E8230F0296A11DB11D2D
:10245000D2CF1F920F920FB60F9211242F933F935A
:102460004F935F936F937F938F939F93AF93BF939C
:10247000EF93FF938091B900887F803609F44AC0BA
:10248000F0F5883209F4A7C018F5803109F49BC033
:10249000B8F4882309F4F9C0883009F494C0FF9196
:1024A000EF91BF91AF919F918F917F916F915F91CC
:1024B0004F913F912F910F900FBE0F901F90189545
:1024C000883109F488C0803251F78093740314C0B6
:1024D000803409F49DC040F48033B9F38833F9F6B1
:1024E0008093740385ECB0C0803509F485C08835CD
:1024F00009F496C0883499F60E94320CD0CF8839FE
:1025000009F48CC038F5883729F050F4883611F07A
:10251000803729F683E0809376031092120357C028
:10252000883809F47BC0803919F0803809F0B7CFBA
:1025300080911203803208F071C0E091120381E0B3
:102540008E0F809312038091BB00F0E0EE50FD4FA0
:1025500080833DC0803B39F0E0F4803A09F479C0D3
:10256000883A09F09CCF84E0809376031092EF02C2
:102570001092EE02E091EC02F091ED02099580914B
:10258000EE0281110FC081E08093EE021092CC0226
:1025900009C0803C09F4A6CF883C09F4A3CF883B4E
:1025A00009F07DCFE091EF0281E08E0F8093EF0282
:1025B000F0E0E453FD4F80818093BB009091EF02E7
:1025C0008091EE0229C0809151038093BB0085EC7D
:1025D0008093BC0064CF909173038091720398172D
:1025E00058F5E091730381E08E0F80937303F0E060
:1025F000EE5AFC4F8081E9CFE091730381E08E0FAA
:10260000809373038091BB00F0E0EE5AFC4F80830F
:1026100090917303809172039817C8F285E8D8CF20
:10262000E091730381E08E0F809373038091BB0070
:10263000F0E0EE5AFC4F80838091750381115CCFEE
:1026400081E08093500384EA8093BC00109276036B
:1026500026CF85EC8093BC00109276038091120304
:10266000803230F4E0911203F0E0EE50FD4F108222
:102670006091120370E0E091F002F091F10282EFBC
:1026800092E00995109212030ACF1092740334CF8E
:102690001F920F920FB60F9211242F933F934F93D7
:1026A0005F936F937F938F939F93AF93BF93CF93DA
:1026B000DF93EF93FF938091A802C091B504D0E01F
:1026C00087FF24C010928500109284008091A80298
:1026D0008F5F8093A8028091A802082E000C990BAE
:1026E0008C179D0724F48091A8028C30C4F180914E
:1026F000840090918500049680349C4908F47AC047
:102700008091840090918500049676C08091A80203
:10271000082E000C990B8C179D07C4F6E091A802B7
:102720008E2FEE0F990BFC01EE0FFF1FE80FF91F24
:10273000EF56FB4F808186FFC9CFE091A8028E2F14
:10274000EE0F990BFC01EE0FFF1FE80FF91FEF567C
:10275000FB4F808160E08F730E94A702B7CF20916A
:10276000840030918500E091A8028E2FEE0F990B26
:10277000FC01EE0FFF1FE80FF91FEF56FB4F8181A1
:102780009281820F931F9093890080938800E0913B
:10279000A8028E2FEE0F990BFC01EE0FFF1FE80F22
:1027A000F91FEF56FB4F808186FF11C0E091A80210
:1027B0008E2FEE0F990BFC01EE0FFF1FE80FF91F94
:1027C000EF56FB4F808161E08F730E94A702FF915B
:1027D000EF91DF91CF91BF91AF919F918F917F91B9
:1027E0006F915F914F913F912F910F900FBE0F907E
:1027F0001F90189580E49CE990938900809388004D
:102800008FEF8093A802E3CF1092A3031092A2034C
:1028100088EE93E0A0E0B0E08093A4039093A5033A
:10282000A093A603B093A7032DE031E03093A1035A
:102830002093A00325EC30E03093AD032093AC034C
:1028400024EC30E03093AF032093AE0320EC30E073
:102850003093B1032093B00321EC30E03093B30305
:102860002093B20322EC30E03093B5032093B403FD
:1028700026EC30E03093B7032093B6031092B903EF
:102880001092BA031092BB031092BC031092400442
:1028900010923F048093410490934204A093430418
:1028A000B09344048FE191E090933E0480933D0403
:1028B000E9E4F4E01182108213821282399684E0F6
:1028C000E139F807B9F7E6EBF4E02FEF48EB5BE00E
:1028D0008091B5048C3000F591E0980F9093B50489
:1028E000808390E0DC01AA0FBB1FA80FB91FAF5671
:1028F000BB4F12965C934E931197339684E0EA3D5A
:10290000F80731F7109279051092DC041092DE047A
:102910001092DD040C947F012083EFCF789484B56E
:10292000826084BD84B5816084BD85B5826085BDCB
:1029300085B5816085BD80916E00816080936E0059
:10294000109281008091810082608093810080914B
:1029500081008160809381008091800081608093FC
:1029600080008091B10084608093B1008091B000BC
:1029700081608093B00080917A00846080937A00B7
:1029800080917A00826080937A0080917A008160E1
:1029900080937A0080917A00806880937A00109208
:1029A000C10088E18093DC048091DD049091DE0415
:1029B0000E94C118C091DC04D0E0CE0101960E94B3
:1029C00025189093DE048093DD04FC01EC0FFD1FBD
:1029D000108212E0DC011C9325E011962C93AE01CD
:1029E0004250510963E072E002960E946C198FE038
:1029F00097E0909368058093670583E696E090934F
:102A00006A058093690586E396E090936C05809350
:102A10006B0587E898E090936E0580936D0580E9DB
:102A20009AE09093700580936F058DE298E0909303
:102A30007205809371058AE69CE0909378058093F7
:102A4000770588EE9BE09093740580937305E09181
:102A5000B003F091B1031083E091B003F091B103A2
:102A60001082E091AC03F091AD031082E091AE03CF
:102A7000F091AF0380E180831092B803E091B4033A
:102A8000F091B50386E08083E091B203F091B30347
:102A9000808180618083E091B203F091B3038081F3
:102AA00088608083E091B203F091B30380818068F5
:102AB0008083E091B203F091B30380818F7D8083A6
:102AC00080EA93E09093DB048093DA0480917905A7
:102AD00081114FC061E08DE00E94F30262ED70E071
:102AE00080E090E00E94690361E08DE00E94A7020F
:102AF00068E270E080E090E00E94690360E08DE0B1
:102B00000E94A70262ED70E080E090E00E946903FD
:102B100061E08DE00E94A70268E270E080E090E052
:102B20000E94690360E08DE00E94A7026AEF70E0F6
:102B300080E090E00E946903C5E062ED70E080E013
:102B400090E00E94690361E08DE00E94A70268E2C4
:102B500070E080E090E00E94690360E08DE00E94F8
:102B6000A702C15051F76DE770E080E090E00E944D
:102B700069030E940C018091DC0481110E94C6004F
:102B80000E94E80B0E94240625E0F22E00E010E0EF
:102B90007724739432E0E32E80911B03882349F05D
:102BA00069B18091180368236C7F40E080E00E9447
:102BB000420880911C03882379F063B186B16F735A
:102BC000B0E48B9FC0011124682B80911903682306
:102BD00040E081E00E94420880911D03882359F063
:102BE00066B180911A038F7066956695682340E000
:102BF00082E00E9442088091DA049091DB04EC01AB
:102C0000E881F9810084F185E02D0995892B09F48B
:102C100027C18091DA049091DB04DC01ED91FC91F5
:102C20000284F385E02D09958F3F980721F3382F13
:102C300020912205222309F467C0873F09F055C07F
:102C4000109222058091E204813751F0893709F012
:102C50003EC08091DC04882371F20E94C600CBCF75
:102C6000E0917505F0917605309729F28091230562
:102C700090912405DC011197B7FDDC01B595A7956E
:102C80007A2F4AED54E09A0190E04E5F5F4F2F5F3C
:102C90003F4F971770F4EA016F81E9016F83EA01F2
:102CA0008885879588278795860FE9018F839F5FA1
:102CB000ECCFBB27A652BB4F17968C911797882352
:102CC00011F018961C9282EE94E0099594CFE09151
:102CD0007705F0917805309709F48DCF6091230541
:102CE000615043EE54E0099586CF20912305309141
:102CF0002405F901E652FB4F80872F5F3F4F309349
:102D000024052093230577CF2091DF04222309F4A3
:102D100066C087FD64C09FEF920F9093DF04E92F98
:102D2000F0E0E652FB4F8087911165CF8091E0047F
:102D3000882309F460CF803D09F446C060F48039EF
:102D400021F1E0916B05F0916C05803C09F440C0E5
:102D50001092E00450CF843F29F1853F81F1803EFD
:102D6000B9F7E0916705F0916805309789F36091B4
:102D7000E204D0E86D9FC00111246091E304680F64
:102D8000792F711D8091E10418C0E0916905F091DF
:102D90006A053097E9F26091E20420E8629FC00181
:102DA0001124EBCFE0916F05F09170056091E20482
:102DB00070E08091E304309759F20995C9CFE09112
:102DC0007105F0917205F2CFE0916D05F0916E05FD
:102DD000309709F4BDCF6091E20470E0D3CF303F6B
:102DE000B8F4282F207F30E08F708093E104203FDB
:102DF000310561F1BCF4203C310529F164F420393E
:102E0000310509F0F8CEE092DF042093E004F3CE20
:102E10009C013327ECCF203D3105A9F0203E310540
:102E200091F3E9CE293F3105C1F034F4C901845F43
:102E30009109029740F3DFCE2F3F310509F0DBCE39
:102E40000E947F01D8CE7092DF04DFCF70922205FE
:102E50001092240510922305CECE0E940C01CBCEF9
:102E60008FB7F89480901E0390901F03A0902003CA
:102E7000B09021038FBF80914C0390914D03A0919E
:102E80004E03B0914F03409101015091020170E057
:102E900060E0881A990AAA0ABB0A481559056A050A
:102EA0007B0508F051C0840F951FA61FB71F8093A4
:102EB0004C0390934D03A0934E03B0934F038AEDC0
:102EC000C82E84E0D82EC2EFC830C8F4F601E55B06
:102ED000FF4F8081823099F480914A0390914B0397
:102EE0000C2E02C0959587950A94E2F780FF07C0E3
:102EF0008C2F0E942F03BC018C2F0E943001CF5FCA
:102F00008FEFC81AD80AC830F9F68091000187FD02
:102F10001BC0C0E02C2F30E080910001082E000C77
:102F2000990B8217930784F0F29EF001F39EF00D47
:102F30001124EE5DFC4F6181728124814381808187
:102F40000E941909CF5FE6CF0115110509F424CEBF
:102F50000E940402882309F41FCE0E9400001CCEA8
:102F6000052E97FB1EF400940E94C71757FD07D04B
:102F70000E94E21707FC03D04EF40C94C71750953B
:102F80004095309521953F4F4F4F5F4F0895909555
:102F90008095709561957F4F8F4F9F4F08950E9448
:102FA0000418A59F900DB49F900DA49F800D911DB6
:102FB00011240895B7FF0C94CF170E94CF17821BDE
:102FC000930B0895A1E21A2EAA1BBB1BFD010DC095
:102FD000AA1FBB1FEE1FFF1FA217B307E407F507C9
:102FE00020F0A21BB30BE40BF50B661F771F881FA5
:102FF000991F1A9469F760957095809590959B013B
:10300000AC01BD01CF010895A29FB001B39FC001E3
:10301000A39F700D811D1124911DB29F700D811D04
:103020001124911D0895991B79E004C0991F9617EA
:1030300008F0961B881F7A95C9F780950895EE0FC2
:10304000FF1F0590F491E02D09940F931F93CF93E8
:10305000DF938230910510F482E090E0E0917C05EE
:10306000F0917D0530E020E0B0E0A0E0309799F4E9
:103070002115310509F44AC0281B390B24303105CC
:10308000D8F58A819B816115710589F1FB019383D4
:103090008283FE0111C04081518102811381481752
:1030A0005907E0F04817590799F4109761F0129604
:1030B0000C93129713961C933296CF01DF91CF9108
:1030C0001F910F91089500937C0510937D05F4CF17
:1030D0002115310551F04217530738F0A901DB01E2
:1030E0009A01BD01DF01F801C1CFEF01F9CF909343
:1030F0007D0580937C05CDCFFE01E20FF31F819308
:1031000091932250310939832883D7CF20917A05B2
:1031100030917B05232B41F420910501309106016C
:1031200030937B0520937A052091030130910401AF
:103130002115310541F42DB73EB74091070150915B
:103140000801241B350BE0917A05F0917B05E2170D
:10315000F307A0F42E1B3F0B2817390778F0AC01BA
:103160004E5F5F4F2417350748F04E0F5F1F509397
:103170007B0540937A05819391939FCFF0E0E0E047
:103180009CCFCF93DF930097E9F0FC013297138235
:103190001282A0917C05B0917D05ED0130E020E028
:1031A0001097A1F420813181820F931F20917A051D
:1031B00030917B052817390709F061C0F0937B0532
:1031C000E0937A05DF91CF910895EA01CE17DF07EA
:1031D000E8F54A815B819E0141155105B1F7E9018E
:1031E000FB83EA8349915991C40FD51FEC17FD0762
:1031F00061F4808191810296840F951FE901998382
:103200008883828193819B838A83F0E0E0E0129639
:103210008D919C9113970097B9F52D913C91119741
:10322000CD010296820F931F20917A0530917B0584
:103230002817390739F6309751F510927D0510920D
:103240007C05B0937B05A0937A05BCCFD383C28362
:1032500040815181840F951FC817D90761F44E5FD3
:103260005F4F88819981480F591F518340838A811C
:103270009B81938382832115310509F0B0CFF093B0
:103280007D05E0937C059ECFFD01DC01C0CF13825C
:103290001282D7CFFB01DC0102C001900D92415098
:1032A0005040D8F708956817790768F4FB01DC01EE
:1032B000E40FF51FA40FB51F02C002900E924150FB
:1032C0005040D8F708950C944A19DC0101C06D9361
:1032D00041505040E0F70895FB01DC01415050405F
:1032E00048F001900D920020C9F701C01D92415095
:0A32F0005040E0F70895F894FFCF76
:1032FA00FF130000007E058000000000003A029AD9
:10330A0001C7018702F801D601EA01000000004B5B
:10331A00051E057A05F40417050405F50449324328
:10332A003A20546F6F206D616E79206279746573EB
:10333A00207265636569766564004932433A2054B0
:10334A006F6F206665772062797465732072656392
:10335A006569766564004D617820736572766F736E
:10336A0020617474616368656400556E6B6E6F7773
:10337A006E2070696E206D6F64650031302D626950
:10338A00742061646472657373696E67206E6F740A
:10339A0020737570706F7274656400746F6F206D3E
:1033AA00616E792071756572696573002F55736551
:1033BA0072732F6D6F6E7465736C752F636F6465AE
:1033CA002F6D696E652F6E6F64652D706978656CF7
:1033DA002F6669726D776172652F6275696C642FE9
:1033EA006E6F64655F706978656C5F6669726D613E
:1033FA0074612F6E6F64655F706978656C5F66696A
:0A340A00726D6174612E696E6F002F
:00000001FF
