:100000000C9462000C948A000C948A000C94E814FE
:100010000C94E8140C94E8140C948A000C948A0054
:100020000C948A000C948A000C948A000C947F161D
:100030000C948A000C948A000C948A000C948A0018
:100040000C949E140C948A000C946C140C9446141A
:100050000C948A000C948A000C948A000C948A00F8
:100060000C9460150C948A00000000002400270006
:100070002A0000000008000201000003040700003D
:1000800000000000000000000000230026002900FE
:1000900000000000250028002B00040404040404D0
:1000A0000404020202020202030303030303010227
:1000B00004081020408001020408102001020408F6
:1000C00010203B1711241FBECFEFD8E0DEBFCDBFFD
:1000D00012E0A0E0B1E0EAEAFCE302C005900D9274
:1000E000A836B107D9F726E0A8E6B2E001C01D9214
:1000F000A630B207E1F710E0C2E6D0E004C02197D5
:10010000FE010E94051DC136D107C9F70E9468187B
:100110000C94531E0C940000862FE0918F03F091F5
:100120009003309711F0BA0109940895862FE09159
:100130008D03F0918E03309711F0BA010994089560
:10014000862FE0918B03F0918C03309711F0BA0168
:1001500009940895862FE0918903F0918A033097DE
:1001600011F0BA0109940895862FE0918703F09168
:100170008803309711F0BA0109940895862FE09111
:100180008503F0918603309711F0BA010994089520
:100190000895862F642FE0919103F0919203309798
:1001A00011F0A90109940895E0919303F09194034B
:1001B000309709F009940895A0913A05B0913B0554
:1001C000ED91FC9111970190F081E02D682FCD0108
:1001D00009941F93CF93DF93182FEB0180910105B2
:1001E000909102056817790760F48091FF0490915F
:1001F0000005C80FD91F188380E0DF91CF911F91B0
:100200000895E0912E05F0912F05309711F481E0CB
:10021000F4CF81E08093FE0480911A0590911B0534
:1002200009958091010590910205C817D90778F7C3
:10023000DCCFCF93DF93EC01FB0130E020E0C9017C
:10024000880F991F8C179D0778F44081DB014D932F
:10025000BD0111979181979599279795942B9C9320
:100260002F5F3F4F3296EBCFC901DF91CF910895B9
:10027000CF92DF92EF92FF92CF93DF93EC016A016E
:100280007B01E889F98982E08083C11481EED80678
:10029000E104F104A1F060E079E08DE390E0A701D2
:1002A00096010E94B41C215031094109510956950B
:1002B000479537952795211580E1380798F0E8890B
:1002C000F989108260E874E88EE190E0A701960158
:1002D0000E94B41C21503109410951095695479596
:1002E00037952795EC85FD853083EE85FF85208346
:1002F000188EEC89FD8986E08083EA89FB898081FC
:1003000080618083EA89FB89808188608083EA89B3
:10031000FB89808180688083EA89FB8980818F7D69
:100320008083DF91CF91FF90EF90DF90CF90089581
:10033000CF93DF93FC01A081B181109701F1EC0113
:10034000ED91FC9111970190F081E02D69EFCD01C5
:10035000099588819981DC01ED91FC910190F081F2
:10036000E02D62E0099588819981DC01ED91FC9195
:100370000190F081E02D65E0DF91CF910994DF914C
:10038000CF910895009721F0805C9F4F0C949801C5
:100390000895AF92BF92CF92DF92EF92FF920F93A8
:1003A0001F93CF93DF936C017B018B01040F151F0B
:1003B000EB015E01AE18BF08C017D10759F0699173
:1003C000D601ED91FC910190F081E02DC6010995D7
:1003D000892B79F7C501DF91CF911F910F91FF9084
:1003E000EF90DF90CF90BF90AF900895FC01538DB8
:1003F000448D252F30E0842F90E0821B930B5417FF
:1004000010F0CF96089501970895FC01918D828D8B
:10041000981761F0A28DAE0FBF2FB11D5D968C9124
:10042000928D9F5F9F73928F90E008958FEF9FEF63
:100430000895FC01918D828D981731F0828DE80F1F
:10044000F11D858D90E008958FEF9FEF0895FC01D9
:10045000918D228D892F90E0805C9F4F821B9109A6
:100460008F73992708958FE194E00E94270221E07D
:10047000892B09F420E0822F089580E090E0892BF9
:1004800029F00E94330281110C9400000895FC01B0
:10049000A48DA80FB92FB11DA35ABF4F2C91848DE5
:1004A00090E001968F739927848FA689B7892C9342
:1004B000A089B1898C91837080648C93938D848D95
:1004C000981306C00288F389E02D80818F7D808398
:1004D0000895EF92FF920F931F93CF93DF93EC0158
:1004E00081E0888F9B8D8C8D98131AC0E889F989DB
:1004F000808185FF15C09FB7F894EE89FF896083DE
:10050000E889F98980818370806480839FBF81E05E
:1005100090E0DF91CF911F910F91FF90EF900895A0
:10052000F62E0B8D10E00F5F1F4F0F731127E02E7B
:100530008C8D8E110CC00FB607FCFACFE889F989B3
:10054000808185FFF5CFCE010E944702F1CFEB8D70
:10055000EC0FFD2FF11DE35AFF4FF0829FB7F89487
:100560000B8FEA89FB8980818062CFCFCF93DF93A5
:10057000EC01888D8823B9F0AA89BB89E889F989BB
:100580008C9185FD03C0808186FD0DC00FB607FCF0
:10059000F7CF8C9185FFF2CF808185FFEDCFCE0123
:1005A0000E944702E9CFDF91CF91089590E0FC01CE
:1005B000EE58FF4F2491FC01E255FF4F3491FC01AE
:1005C000E656FF4FE491EE23C9F0222339F02330A1
:1005D00001F1A8F4213019F1223029F1F0E0EE0FF9
:1005E000FF1FE057FF4FA591B4918FB7F894EC919E
:1005F000611126C030953E233C938FBF089527306C
:10060000A9F02830C9F0243049F7809180008F7D0F
:1006100003C0809180008F7780938000DFCF84B506
:100620008F7784BDDBCF84B58F7DFBCF8091B00009
:100630008F778093B000D2CF8091B0008F7DF9CFBB
:100640003E2BDACFCF93DF9390E0FC01E255FF4FD2
:10065000249186569F4FFC0184918823C9F090E035
:10066000880F991FFC01E859FF4FA591B491FC0137
:10067000E057FF4FC591D49161110DC09FB7F89419
:100680008C91209582238C938881282328839FBF77
:10069000DF91CF910895623051F49FB7F8943C9167
:1006A000822F809583238C93E8812E2BEFCF8FB7F9
:1006B000F894EC912E2B2C938FBFEACF0F931F93BE
:1006C000CF93DF93EC01162F042F1B821A8288EE42
:1006D00093E0A0E0B0E08C839D83AE83BF838DE088
:1006E00091E0998388831F8A1E8A198E188E1B8E2B
:1006F0001A8E1D8E1C8E6E8D6E7F6D7F6E8F669531
:10070000617081E06827842F0E94D60261E0802F0B
:100710000E942203802F90E0FC01E255FF4FE491FC
:10072000E88BFC01E656FF4FE491F0E0EE0FFF1F6F
:10073000E057FF4F859194919A8B898B60E0812FD0
:100740000E9422038E8D81FD04C061E0812F0E94F2
:10075000D6021C87812F90E0FC01E255FF4FE49107
:10076000ED87FC01E656FF4FE491F0E0EE0FFF1F2E
:10077000EA57FF4F859194919F878E87DF91CF91A4
:100780001F910F9108958E3008F08E50877080640D
:1007900080937C0080917A00806480937A008091BD
:1007A0007A0086FDFCCF80917800909179000895C1
:1007B0003FB7F8948091810390918203A0918303C5
:1007C000B091840326B5A89B05C02F3F19F0019670
:1007D000A11DB11D3FBFBA2FA92F982F8827BC019B
:1007E000CD01620F711D811D911D42E0660F771FC3
:1007F000881F991F4A95D1F708958F929F92AF92C3
:10080000BF92CF92DF92EF92FF926B017C010E9428
:10081000D8034B015C01C114D104E104F104B9F027
:100820000E94D803681979098A099B09683E7340B8
:100830008105910580F321E0C21AD108E108F10891
:1008400088EE880E83E0981EA11CB11CE4CFFF90B7
:10085000EF90DF90CF90BF90AF909F908F900895D2
:1008600020919F033091A0032817390771F49091CC
:100870007F0380917E03981741F0E0917F03F0E0C1
:10088000E25CFC4F808190E008958FEF9FEF089528
:100890000895EF92FF920F931F93CF93DF93DC01A4
:1008A0005C96ED90FC905D97E114F10479F481E0A1
:1008B00090E013969C938E93129790E080E0DF91E6
:1008C000CF911F910F91FF90EF9008955196ED9168
:1008D000FC91529750968C915097982F90950FB706
:1008E0005E962C915E97122F127021FD6095F89400
:1008F0002081112319F1282B2083E7012197F1F79B
:1009000028E0462F50E0308160FF1AC0382B30833A
:10091000E7012197F1F7BA0175956795215089F79D
:10092000112381F08081892380830FBF5C968D9194
:100930009C910197F1F781E090E0C1CF2923DCCFB2
:100940003923E5CF9081892BEFCF20919F03309100
:10095000A0032817390771F480917E0320917F034B
:1009600090E0805C9F4F821B910960E470E00E94E0
:10097000F11C089590E080E0089520919F0330914C
:10098000A00328173907B9F490917F0380917E0363
:10099000981789F0E0917F03F0E0E25CFC4F8081E2
:1009A00020917F0330E02F5F3F4F2F733327209339
:1009B0007F0390E008958FEF9FEF0895E0919F03EC
:1009C000F091A003E817F90769F4A389B4899C9111
:1009D0008589809589238C931092A00310929F03A0
:1009E00081E0089580E00895CF93DF93EC018A8D34
:1009F0009B8D892B01F180919F039091A0038C170F
:100A00009D07C9F0009711F00E94DE048E8D8E7F45
:100A10008E8F10927E0310927F03D093A003C09319
:100A20009F03EB89FC8980819D89892B808381E0EC
:100A3000DF91CF91089580E0FBCFFC01693081F018
:100A400028F4683051F090E080E008956A3059F061
:100A50006B30C9F781A592A5089583A194A108954B
:100A600085A196A1089587A190A5089508954A307B
:100A7000510559F4E62FF0E0E15CFA4F80818F37A1
:100A800011F08AE0808381E0089580E008955F920C
:100A90006F927F928F929F92AF92BF92CF92DF928E
:100AA000EF92FF920F931F93CF93DF935C01690145
:100AB000DA015C90232B19F4CC24CA94DC2C8A0133
:100AC0003A01660E771ED0E0C0E0F12CE12C87E001
:100AD000882E912CF50180819181D8016C910C2E8A
:100AE00001C0660F0A94EAF765296F77DC01ED9182
:100AF000FC910190F081E02D0995BFEFEB1AFB0A04
:100B0000F801608170E0C4018C1B9D0B02C07595DB
:100B100067958A95E2F7562E2196C730D10558F190
:100B2000CE14DF0441F1D5018D919C91652D6F7735
:100B3000DC01ED91FC910190F081E02D0995BFEF72
:100B4000EB1AFB0A551C5524551C2797E6CFEC14CD
:100B5000FD0408F4BFCFDF91CF911F910F91FF905B
:100B6000EF90DF90CF90BF90AF909F908F907F904D
:100B70006F905F9008950F5F1F4F6016710639F7F1
:100B8000209749F3EC14FD0430F7F5018081918141
:100B900061E070E001C0660FCA95EAF76150652117
:100BA000DC01ED91FC910190F081E02DDF91CF917E
:100BB0001F910F91FF90EF90DF90CF90BF90AF907B
:100BC0009F908F907F906F905F9009941F93CF9329
:100BD000DF9300D0CDB7DEB7182F7A836983809179
:100BE000FC049091FD040097C9F0DC01ED91FC91AB
:100BF0000190F081E02D1031B8F461157044A0F43B
:100C0000612F606E099522E030E0AE014F5F5F4FCB
:100C100062E070E08CEF94E00E9447050F900F9027
:100C2000DF91CF911F91089560EF09958091FC04A9
:100C30009091FD04DC01ED91FC910190F081E02D9B
:100C40006FE609958091FC049091FD04DC01ED9123
:100C5000FC910190F081E02D612F099522E030E0B8
:100C6000AE014F5F5F4F62E070E08CEF94E00E9456
:100C700047058091FC049091FD04DC01ED91FC910D
:100C80000190F081E02D67EF0995C8CFEF92FF92B8
:100C90000F931F93CF93DF93C82F8091FC04909103
:100CA000FD040097C9F17A018B01DC01ED91FC9103
:100CB0000190F081E02D60EF09958091FC04909106
:100CC000FD04DC01ED91FC910190F081E02D6C2F91
:100CD0000995E7010E0D1F1DC017D10759F030E02F
:100CE00020E0AE0161E070E08CEF94E00E944705E7
:100CF0002196F2CF8091FC049091FD04DC01ED91EE
:100D0000FC910190F081E02D67EFDF91CF911F9171
:100D10000F91FF90EF900994DF91CF911F910F9168
:100D2000FF90EF900895CF92DF92EF92FF920F9392
:100D30001F93CF93DF93FC01E058FF4FE080EE203C
:100D400009F45CC0EC01C05CDF4FA881B981109749
:100D500009F454C0FC01EF57FF4FC080D180F60169
:100D600011810081ED91FC9111970190F081E02DAE
:100D700060EFCD01099588819981DC01ED91FC91AD
:100D80000190F081E02D69E7099588819981DC0166
:100D9000ED91FC910190F081E02D602F0995888103
:100DA0009981DC01ED91FC910190F081E02D612FA2
:100DB0000995F12C01E010E00F5F1F4FE016F106DE
:100DC00059F030E020E0A601400F511F61E070E0D3
:100DD000CE010E944705F0CF88819981DC01ED9119
:100DE000FC910190F081E02D67EFDF91CF911F9191
:100DF0000F91FF90EF90DF90CF900994DF91CF910A
:100E00001F910F91FF90EF90DF90CF900895009782
:100E100011F00C949306089520911903260F33279F
:100E2000331F21323105ECF42091F503FC0190E0F1
:100E300080E0243069F082E00895A09119032191A7
:100E4000AC0149505D4FA40FB52FB11D2C930196F5
:100E5000861798F380911903680F6093190380E057
:100E6000089581E008951092F50381E08093F403E2
:100E70001092CF0361E082E10E94D60261E083E13B
:100E80000E94D602E9EBF0E080818E7F8083808132
:100E90008D7F808388E48093B80085E48093BC00D4
:100EA0000895CF93DF9391E09093F6028823B9F0F1
:100EB000C091B800D091BA008091BC008A7B809329
:100EC000BC0060E082E10E94D60260E083E10E9403
:100ED000D6020E943307D093BA00C093B800DF91C6
:100EE000CF9108958F929F92AF92BF92CF92DF924F
:100EF000EF92FF920F931F93CF93DF93D0911E0435
:100F0000D13208F0D7C0182FC0911D040E94D80319
:100F10006B017C018091F50381116BC082E08093AD
:100F2000F5031093F4038FEF8093F3031092F20311
:100F3000D093F103ADEFB3E0E1EDF3E080E0D8133F
:100F400091C01092D0038091D003CC0FC82BC093D6
:100F5000D0038091CF03813009F088C01092CF0375
:100F60000E94D8036B017C018091D0038093BB0069
:100F70008091F7039091F803A091F903B091FA03DF
:100F8000892B8A2B8B2BA1F00E94D8030091F703A9
:100F90001091F8032091F9033091FA036C197D093F
:100FA0008E099F09061717072807390708F442C05A
:100FB0008091BC0083FDD8CF85EC8093BC000E945B
:100FC000D8036B017C018091F503823009F450C095
:100FD0008091F3038F3F09F46FC08091F303803257
:100FE00009F46CC08091F303803309F469C084E094
:100FF00026C08091F7039091F803A091F903B09176
:10100000FA03892B8A2B8B2B09F484CF0E94D803F7
:101010008090F7039090F803A090F903B090FA0342
:101020006C197D098E099F0986169706A806B906D0
:1010300008F070CF8091F6030E94510785E010926E
:10104000FC0310921E041092FB03DF91CF911F91BD
:101050000F91FF90EF90DF90CF90BF90AF909F9057
:101060008F9008959D9191938F5F69CF85EEA5CF65
:101070008091F7039091F803A091F903B091FA03DE
:10108000892B8A2B8B2B09F49ECF0E94D8030091C9
:10109000F7031091F8032091F9033091FA036C19CA
:1010A0007D098E099F09061717072807390708F0D9
:1010B0008ACFC0CF81E0C3CF80E0C1CF82E0BFCF75
:1010C00083E0BDCF08950895E091F5028091F40288
:1010D000E81730F4F0E0EC52FD4F808190E0089585
:1010E0008FEF9FEF08959091F5028091F4022FEF1A
:1010F0003FEF981748F4E92FF0E0EC52FD4F2081C4
:1011000030E09F5F9093F502C90108958091F40249
:101110009091F502891B990B0895CF92DF92EF927F
:10112000FF920F931F93CF93DF937C01CB018A0132
:101130002091FB03222389F0EB016B01C40ED51E25
:10114000CC15DD0569F06991D701ED91FC91019015
:10115000F081E02DC7010995F3CF642F0E940C07A1
:10116000C801DF91CF911F910F91FF90EF90DF9019
:10117000CF900895CF93DF931F92CDB7DEB76983E9
:101180002091FB032223F9F020911E04203258F015
:1011900021E030E0FC013383228390E080E00F9077
:1011A000DF91CF9108958091FC03E82FF0E0E350A8
:1011B000FC4F998190838F5F8093FC0380931E0482
:1011C00081E090E0ECCF61E0CE0101960E940C0737
:1011D000F7CF90E080E00895DF92EF92FF920F93B7
:1011E0001F93CF93DF93EC01D62E7A01890188817A
:1011F0008C3008F067C061E08D2D0E942203888149
:10120000282F30E0F901EE0FFF1FE20FF31FE25726
:10121000FA4F9D2D9F736081607C692B608320E273
:1012200032E02E193F0937FF02C02D5F3F4F359541
:10123000279535952795298320E639E0201B310B2A
:1012400037FF02C02D5F3F4F359527953595279580
:101250002A832CE0622F0E94E51C829FB00111249A
:1012600030E020E0AB01420F531FFA01EE0FFF1FE9
:10127000E40FF51FE257FA4F908196FD16C02F5FDD
:101280003F4F2C30310571F781110FC01092800053
:1012900082E0809381001092850010928400B19AC0
:1012A00080916F00826080936F00E8818E2F90E0C4
:1012B000FC01EE0FFF1FE80FF91FE257FA4F808184
:1012C000806480838881DF91CF911F910F91FF907F
:1012D000EF90DF900895CF938830B0F421E030E0B4
:1012E000082E02C0220F331F0A94E2F74091C9036F
:1012F0005091CA03672B51F4209530952423352350
:101300003093CA032093C903CF910895242B352B22
:101310003093CA032093C9039091D2029111F4CF64
:10132000C82F0E94C303BC018C2FCF910C94E605FB
:101330005F926F927F928F929F92AF92BF92CF9265
:10134000DF92EF92FF920F931F93CF93DF9383303F
:1013500008F061C0D1E0D80FDD0FDD0FDD0F5D2E8D
:10136000D73110F046E1542EC62F082FD8508D2EBD
:10137000912CC401880F991F9C0124543B4F5901A3
:10138000D12CC12C10E077247394D515C8F58EEFBD
:101390008D0F8231F8F4F601E80DF91DE15CFA4F8A
:1013A00090819230B8F48C2F872166246394811148
:1013B00001C0612C7601EE0CFF1C913089F41729D5
:1013C00039E9E30EF11CF501EE0DFF1D862D90E0CD
:1013D00091838083770CDF5F8FEFC81AD80AD5CF4F
:1013E000882371F3F701E756FF4FEA0DFB1D80815B
:1013F0009181019729F362E08D2F0E942203E0CFB3
:10140000011119C0F8948BB16C2F68276C7F612390
:1014100068276BB97894DF91CF911F910F91FF905E
:10142000EF90DF90CF90BF90AF909F908F907F9084
:101430006F905F9008950130D1F4C123F89495B175
:10144000812F8F73809589239C2F9F73892B85B95A
:1014500088B1612F62956695669563706095682383
:10146000C295C695C695C370C62BC8B9D3CF1F7099
:10147000F89498B1812F880F880F80958923C12314
:10148000CC0FCC0FC82BF1CF8F929F92AF92BF920F
:10149000CF92DF92EF92FF920F931F93CF93DF9340
:1014A000EB01863108F098C0082F10E0F801E15CEC
:1014B000FA4F9081933009F49CC0943009F08CC0AD
:1014C0008250823108F081C0F801E854FD4FC0809D
:1014D000D12C7601EE0CFF1C4B01603282E07807C4
:1014E0000CF03EC0F701EC0DFD1DED54FA4F81816B
:1014F000A8E88A2E912C881A910887FD9394880C6D
:10150000991C880C991C092C000CAA08BB08828124
:1015100028E532E0281B310987FD3395220F331F60
:10152000220F331F032E000C440B550B28193909C9
:101530004A095B09DB01653B710514F0A4EBB0E0DF
:10154000B7FF02C0B0E0A0E00E94AC1C24EB30E08A
:1015500040E050E00E94821C820E931EA41EB51E25
:10156000F701EC0DFD1DED54FA4F20812C3068F58C
:10157000318188E890E0831B910937FD9395880FAE
:10158000991F880F991F881699067CF0328188E58B
:1015900092E0831B910937FD9395880F991F880F5F
:1015A000991F881699060CF4C4010297880F991F99
:1015B0004FB7F89430E0F901EE0FFF1FE20FF31F71
:1015C000E257FA4F928381834FBF000F111FF8013A
:1015D000EB5AFA4FD183C083DF91CF911F910F91C6
:1015E000FF90EF90DF90CF90BF90AF909F908F9043
:1015F00008957B01D82F833041F08BEF800F82302C
:1016000020F087EF800F833058F461E08D2F0E9427
:101610002203E114F10461F460E08D2F0E94D602F0
:10162000000F111FF801EB5AFA4FF182E082D4CF7C
:101630008FEFE816F10411F461E0EFCFF801EE58F6
:10164000FF4FE491E33021F148F4E130B9F0E230AA
:10165000D1F080E8E816F1047CF7DECFE73011F135
:10166000E83041F1E430A9F78091800080628093F6
:101670008000F0928B00E0928A00D2CF84B580681F
:1016800084BDE7BCCDCF84B5806284BDE8BCC8CF43
:1016900080918000806880938000F0928900E092C1
:1016A0008800BECF8091B00080688093B000E09247
:1016B000B300B6CF8091B00080628093B000E0921A
:1016C000B400AECF9EEF980F923180F4E82FF0E097
:1016D000DF01A15CBA4F9C91913041F4EE0FFF1FE6
:1016E000EB5AFA4F608371830C94D6020895FF92EF
:1016F0000F931F93CF93DF9300D0CDB7DEB7082FA2
:1017000010E0F801EB56FC4F9081F62EF9220253BF
:101710001D4F411104C0F80190819F1511F12F2D2B
:1017200030E03A832983A091FC04B091FD04109726
:10173000B1F0682F6F706069ED91FC911197019085
:10174000F081E02DCD01099522E030E0AE014F5F40
:101750005F4F62E070E08CEF94E00E944705F80173
:10176000F0820F900F90DF91CF911F910F91FF901A
:101770000895833040F5282F30E0F901E856FC4FFA
:101780006083672B01F12B563C4FF9016081811179
:1017900006C099B19C7F692341E00C94770B81309E
:1017A00049F493B126B19F73F0E42F9F9001112467
:1017B000922BF1CF26B130E03595279535952795B9
:1017C0002F706223E9CF0895A82FB0E0A854BD4F31
:1017D0009C91292F30E0F901EE0FFF1FE20FF31F5C
:1017E000ED54FA4FE0812E2F30E0F901EE0FFF1F8C
:1017F000E20FF31FE257FA4F80818F7B8083809145
:10180000B602981308C0992319F091509093B6022C
:101810008FEF8C9308958823D9F3E091B702EF5F9F
:10182000E093B702F0E0E959FD4F9083F1CFFC015E
:1018300001900020E9F73197BF01681B790BAC01DB
:1018400081E70C944606CF93DF93DB019091B602BB
:101850009C3078F53091B702682F70E0FB01E854B6
:10186000FD4F3323E1F0C32FD0E0C959DD4F88810C
:10187000808331503093B702808123E0829FC00182
:1018800011248D549A4F1A161B0674F4141615065B
:101890005CF49A01AD01DF91CF910C94EC08908338
:1018A0009F5F9093B602E8CF20E639E040E252E035
:1018B000F2CF8BE491E0DF91CF910C94170C1F9342
:1018C000CF93DF93EC0118E0612FCE010E941D053C
:1018D000009711F00E94BB1D1F5F1C30A9F78FEF0E
:1018E0008AA3FE013A96A29611921192CE17DF07B3
:1018F000D9F7DF91CF911F9108958F929F92AF9268
:10190000BF92DF92EF92FF920F931F93CF93DF93DB
:10191000EC01D901603609F028C18C91182F1F7095
:10192000807F803309F492C17901042F813338F428
:101930008031A1F1803209F46BC181E017C180369A
:1019400009F4E2C1803709F4EEC18035B1F7612FA7
:10195000CE010E941D05EC01009779F3183008F0C4
:10196000CDC1E881F9810680F781E02D0995EA89EA
:10197000FB8980818F7E8083EA89FB898081877FD4
:101980008083EA89FB8980818F778083EA89FB895C
:1019900080818F7D80838A8D898FCFCFD9011296E8
:1019A0008C901297912CB12CA12CE7E0880C991CFB
:1019B000AA1CBB1CEA95D1F713968C9190E0B0E07D
:1019C000A0E0FEE0880F991FAA1FBB1FFA95D1F770
:1019D00088299929AA29BB29F90121814C015D0196
:1019E000822A183060F4612FCE010E941D050097F5
:1019F00009F4A3CFB501A4010E9438019ECF453060
:101A000008F4AFC00481D580193009F4CCC008F0C7
:101A100091C0183009F4B6C0612FCE010E941D0597
:101A2000EC01892B09F489CFE02FF0E0E15CFA4F5B
:101A300080818F3711F08AE08083ED2DF0E0E15C4A
:101A4000FA4F80818F3711F08AE080831B8E1A8EC7
:101A5000198E188E1F8A1E8A60E079E08DE390E06F
:101A6000A50194010E94821CF901C9010397243049
:101A7000310510F481E090E09D8F8C8F6C8566318C
:101A800008F054C0C901969587958431910508F4F2
:101A9000ACC043979F8B8E8BC9010597369710F486
:101AA00081E090E0998F888FC901880F991F280FD6
:101AB000391F36952795369527952D30310508F431
:101AC00097C02C5031093B8F2A8F9091680084E099
:101AD000683048F021E06E3008F420E081E001C079
:101AE000880F2A95EAF7892B809368009C852DE65C
:101AF00030E0983050F02BE630E09E3030F02CE6AD
:101B000030E0963110F030E020E03C8B2B8B292F19
:101B100030E0983008F06FC081E001C0880F9A95DE
:101B2000EAF78D8B8C8D9D8D0197F1F7CE010E9488
:101B3000F40403CF1A3009F447C01B3009F06CCF0E
:101B400089A59AA5892B09F067CF8FE190E00E94C3
:101B50001F1D7C014D2D602F0E945E03FAA6E9A691
:101B60005BCF8FE591E00E94170C80E0DF91CF9171
:101B70001F910F91FF90EF90DF90BF90AF909F90DB
:101B80008F9008958BA19CA1892B09F045CF8FE1FF
:101B900090E00E941F1D7C014D2D602F0E945E036E
:101BA000FCA2EBA239CF8DA19EA1892B09F034CFE5
:101BB0008FE190E00E941F1D7C014D2D602F0E943F
:101BC0005E03FEA2EDA228CF8FA198A5892B09F074
:101BD00023CF8FE190E00E941F1D7C014D2D602FCF
:101BE0000E945E03F8A6EFA217CF81E090E052CFEB
:101BF00021E030E068CF9E3040F42850310981E088
:101C000001C0880F2A95EAF78CCF2E503109F7CF03
:101C1000612FCE010E941D055C01892B09F48DCE38
:101C2000E70111E0101708F088CE6A8167956627F2
:101C300067958981680FD501ED91FC910190F08144
:101C4000E02DC50109951E5F2296ECCF11968C916F
:101C50001197811126C03AA137300CF06ECE812F3A
:101C600090E00596880F991FFE01E80FF91F433099
:101C7000A8F013968C91139720E8829FC00111243D
:101C800012962C91822B9183808381E0830F8AA30B
:101C9000C80FD11D87FDDA951A834FCE11821082AD
:101CA000F4CF813009F049CE9AA119161CF08FEFBC
:101CB0008AA343CE80E0492F092E000C550B282F14
:101CC00030E04217530774F480E0E82FF0E04E173D
:101CD0005F078CF0883020F4EC0FFD1F23812283F6
:101CE0008F5FF3CF2C0F3D1FD90112962C91121745
:101CF00061F38F5FE4CF91509AA31FCE0E94DE0460
:101D0000CE010E94BB1D19CE612FCE010E941D0580
:101D1000009709F412CEDC01ED91FC910680F78169
:101D2000E02D09950ACE183008F407CE612FCE01B8
:101D30000E941D05009709F0FACEFFCD85ED809336
:101D4000BC008091F7039091F803A091F903B09142
:101D5000FA030796A11DB11D23E0B695A7959795A7
:101D600087952A95D1F72091BC0024FD03C01092DD
:101D7000F50308954091F7035091F8036091F9033A
:101D80007091FA03452B462B472B69F30097A10569
:101D9000B10541F025E32A95F1F700000197A1096B
:101DA000B109E1CF8091F6030C9451079F92AF9255
:101DB000BF92CF92DF92EF92FF920F931F93CF9338
:101DC000DF93C82ED12CE601C454DB4FFE01ED5742
:101DD000FF4F90819F3709F49FC0963061F4909136
:101DE000D102992341F06630710529F01092D10299
:101DF0009FEF909300017B01182F0EEF080F023127
:101E000008F564307105F1F0F601E854FD4F80816A
:101E10008C30C0F490E0FC01EE0FFF1FE80FF91FBB
:101E2000ED54FA4FE0818E2F90E0FC01EE0FFF1F82
:101E3000E80FF91FE257FA4F808186FF03C0812F18
:101E40000E94E40B52EF952E910E87E0891558F011
:101E500061E070E032E0E316F10411F070E060E060
:101E6000892D0E946B090231C8F4E12FE695E695B1
:101E7000E695F0E0EB56FC4F2081312F377081E082
:101E800090E001C0880F3A95EAF7E114F10421F0DF
:101E90003BE0E316F10401F5822B80835601AA0C86
:101EA000BB1CF501EB5AFA4F118210828CE0E81648
:101EB000F10408F0D3C0F701E05AF04F0C94051D6F
:101EC000800FAD0F6F0FC40FE30F2E101A102E10DE
:101ED0002E102E102610980F80958223DECF37E02B
:101EE0003915D0F0023120F460E0812F0E942203E6
:101EF000CD57DF4F88818F3779F082E088830CC01F
:101F0000023150F460E0812F0E942203CD57DF4F51
:101F100088818F3709F01882DF91CF911F910F913F
:101F2000FF90EF90DF90CF90BF90AF909F9008957B
:101F3000023190F762E0812F0E942203CD57DF4FDC
:101F400088818F3711F08BE08883F501EB5AFA4FC7
:101F500081E090E091838083DFCF0231E8F6FE01DB
:101F6000ED57FF4F8081833021F460E0812F0E9484
:101F7000D60261E0812F0E942203CD57DF4F888176
:101F80008F3751F281E0BACF133049F08BEF810FD8
:101F9000823028F087EF810F833008F0BDCF61E0F9
:101FA000812F0E94220361E0812F0E94220360E0C2
:101FB000812F0E94D602CD57DF4F88818F3709F4D9
:101FC000ABCF83E09BCF023108F0A6CFCD57DF4FD8
:101FD00088818F3711F084E08883F601E854FD4F43
:101FE00080818F3FA9F090E0FC01EE0FFF1FE80F0A
:101FF000F91FED54FA4FE0818E2F90E0FC01EE0FB7
:10200000FF1FE80FF91FE257FA4F808186FD84CF4A
:102010004FEF5FEF6FEF7FEF812FDF91CF911F9138
:102020000F91FF90EF90DF90CF90BF90AF909F9077
:102030000C94230C1251123008F06ECFCD57DF4FA5
:1020400088818F3709F468CF86E058CFCD57DF4FAE
:1020500088818F3709F460CF8AE050CF8DE791E017
:10206000DF91CF911F910F91FF90EF90DF90CF9074
:10207000BF90AF909F900C94170C0F931F93CF932A
:10208000DF9381E08093D20287ED95E00E945F0CA0
:102090008091D102882329F01092D1028FEF809392
:1020A000000110929803109295031092CE021092A4
:1020B0009903109296031092CF0210929A031092F5
:1020C00097031092D00208EB12E0C0E0DFEF82EF3E
:1020D0008C0F62E070E0883030F08EEF8C0F823130
:1020E00028F461E070E08C2F0E94D60EF801D193A5
:1020F0008F01CF5FC63159F71092CA031092C903FE
:102100001092B7021092B6021092D202DF91CF91D4
:102110001F910F9108954F925F926F927F928F92CD
:102120009F92AF92BF92DF92EF92FF920F931F9315
:10213000CF93DF93D82E8B01D42FC22F6F3F76071A
:1021400009F490C081E08093FB03D0921D041092AB
:10215000FC0310921E0482E895E00E94BA088C2FBE
:102160000E9472078091B4029091B502823091056D
:1021700038F0880F991F880F991F05970197F1F77D
:102180000E94D8034B015C018091F50381116CC062
:10219000CD2FD13208F0C0E281E08093F503809327
:1021A000F4039FEF9093F3031092F2039C0F90932C
:1021B000F1038093D0039091D0038D2D880F892B4C
:1021C0008093D0038091CF03813009F09EC010929C
:1021D000CF030E94D8034B015C018091D003809310
:1021E000BB008091F7039091F803A091F903B0919F
:1021F000FA03892B8A2B8B2BA1F00E94D8034090E5
:10220000F7035090F8036090F9037090FA0368198F
:1022100079098A099B09461657066806790608F463
:1022200044C08091BC0083FDD8CF85EC8093BC0076
:102230000E94D8034B015C018091F503813009F4C1
:1022400066C08091F2038C1710F4C091F203A1EDE7
:10225000B3E0E4EDF2E080E08C1761F19D919193A1
:102260008F5FFACF00E08CCF8091F7039091F80355
:10227000A091F903B091FA03892B8A2B8B2B09F4D7
:1022800083CF0E94D8034090F7035090F8036090EA
:10229000F9037090FA03681979098A099B094616AF
:1022A00057066806790608F06FCF8091F6030E9402
:1022B0005107C0E01092F502C093F402ED2EF12C0C
:1022C0008C2F90E0E816F9060CF043C08EE891E000
:1022D0000E94170CD09274020093750204E712E07A
:1022E000C801845792408E159F05D4F50F5F1F4F8C
:1022F0009091F4028091F502981791F182E895E0AF
:102300000E947308F8018183EBCF85EE8FCF809117
:10231000F7039091F803A091F903B091FA03892B88
:102320008A2B8B2B09F488CF0E94D8034090F703A7
:102330005090F8036090F9037090FA0368197909D6
:102340008A099B09461657066806790608F074CF75
:10235000ACCF8E159F050CF0BDCF8BEA91E0B8CFC6
:10236000DE5F6D2F70E044E752E087E7DF91CF91A9
:102370001F910F91FF90EF90DF90BF90AF909F90D3
:102380008F907F906F905F904F900C944606EF92E5
:10239000FF920F931F93CF93DF9380568B3108F0FA
:1023A0003CC0EA01162FE82FF0E0E752FE4E0C94F5
:1023B000051D39140D120D120D120D120D120D12F4
:1023C0000D120D1228140D128F130D12E7130D129A
:1023D0006D1311130D120D120D120D120D12F411B9
:1023E0000D12D5120D125713998195FF0AC087EC73
:1023F00091E0DF91CF911F910F91FF90EF900C949E
:10240000170C888131E096FB222720F92327987149
:102410009830D1F148F49923A9F0DF91CF911F9121
:102420000F91FF90EF900895903109F44CC09831CE
:10243000A1F72091000112160CF472C08FEF809367
:102440000001EBCF3093FB0380931D041092FC033B
:1024500010921E0402E0011778F4FE01E00FF11D56
:1024600061816795662767958081680F82E895E0AE
:102470000E94BA080E5FEFCF81E00E94720783E1ED
:1024800091E00197F1F7C9CF9A814B816630A1F4B1
:1024900030E8439FB0011124690F711D4D814795AC
:1024A000442747959C81490FDF91CF911F910F9150
:1024B000FF90EF900C948B10479544274795490F58
:1024C0006FEF7FEFF1CFE0910001E7301CF087EE76
:1024D00091E08FCF3A819B816630D9F460E8969F76
:1024E000A0011124430F511D9D8197959927979520
:1024F0003C81930FEF5FE093000135E0E302F001D0
:102500001124EF55FC4F80835283418393832483AE
:1025100084CF979599279795930F4FEF5FEFEACF69
:1025200090E0622F022E000C770B35E0492F50E02F
:102530006417750764F0349FF001359FF00D112486
:10254000EF55FC4F4081481719F09F5FEFCF90E0A7
:1025500085E0492F50E0641775071CF19830F8F4B6
:10256000FA0131968E9FD0018F9FB00D1124AF5587
:10257000BC4F3C91849FF001859FF00D1124EF55D5
:10258000FC4F308311964D915C9112975283418399
:1025900013963C911397338314963C9134839F5F39
:1025A000D8CF21502093000138CF623078F0898154
:1025B00060E8869F900111248881820F932F911DDE
:1025C000009721F09093B5028093B4028091D102DC
:1025D000811123CFC0E08EEE8C0F823028F466E0AC
:1025E00070E08C2F0E94D60ECF5FC631A1F781E03C
:1025F0008093D1021092F5021092F4021092FC0323
:1026000010921E040E94330782E698E0909318030C
:102610008093170383E698E090931C0380931B0339
:10262000FCCE653008F4F9CE18818EEF810F82312F
:1026300008F0F3CE0981EA80FB80CC81E12FF0E045
:10264000E854FD4F80818C30C0F490E0FC01EE0F27
:10265000FF1FE80FF91FED54FA4FE0818E2F90E035
:10266000FC01EE0FFF1FE80FF91FE257FA4F8081C0
:1026700086FF03C0812F0E94E40B80E8C89FA00161
:1026800011244F0D511D90E8E99EB0011124600FF7
:10269000711D812F0E94230C64E070E0812FDF9177
:1026A000CF911F910F91FF90EF900C94D60E623056
:1026B00008F4B3CE8981E0E88E9F900111248881CF
:1026C000820F932F911D009729F090930201809320
:1026D0000101A3CE81E090E0F8CF623008F49DCEF6
:1026E000698170E0123091F08A81F0E88F9FC0011B
:1026F0001124682B792B133049F08B8190E090E402
:10270000899F902D88271124682B792B8881DF9150
:10271000CF911F910F91FF90EF900C94440A80EF9E
:102720000E94DC008CE60E94DC00CEEF84EF8C0F70
:10273000883020F582E00E94DC008AE00E94DC0004
:102740008DEF8C0F8230E0F089EF8C0F8330F0F446
:1027500017C0C23158F780E00E94DC0081E00E947F
:10276000DC008BE00E94DC0081E00E94DC0081E064
:102770000E94DC0081E00E94DC00D8CFC13001F76C
:1027800083E00E94DC0088E00E94DC00C23130F46B
:1027900084E00E94DC008EE00E94DC0080EF8C0F61
:1027A000823030F486E00E94DC0081E00E94DC0090
:1027B0008FE70E94DC00CF5FC43159F687EFDF91CD
:1027C000CF911F910F91FF90EF900C94DC00662346
:1027D00009F423CEC88180EF0E94DC008EE60E94BF
:1027E000DC008C2F0E94DC00C63140F7D0E0FE01F7
:1027F000E15CFA4F80810E94DC00CC0FDD1F8E016E
:102800000B5A1A4FF80180818F770E94DC00F80183
:10281000808191819C012078232B39F0880F892FAA
:10282000881F990B8F770E94DC00CB5ADA4F888182
:1028300099819C012227307C232B09F4BFCF990F6B
:10284000880B990F982F881F8F770E94DC00B6CFD6
:1028500080EF0E94DC008AE60E94DC00C2EF8FE776
:10286000C83008F48C2F0E94DC00CF5FC830B9F765
:10287000A5CF9A01462F60E687ED95E0DF91CF91D5
:102880001F910F91FF90EF900C947D0C1F920F926F
:102890000FB60F9211242F933F934F935F936F9333
:1028A0007F938F939F93AF93BF93EF93FF938FE1AA
:1028B00094E00E944702FF91EF91BF91AF919F91E9
:1028C0008F917F916F915F914F913F912F910F90D9
:1028D0000FBE0F901F9018951F920F920FB60F9278
:1028E00011242F938F939F93EF93FF93E0912F04E5
:1028F000F09130048081E0913504F091360482FD3E
:102900001BC09081809138048F5F8F7320913904B0
:10291000821741F0E0913804F0E0E15EFB4F958FC3
:1029200080933804FF91EF919F918F912F910F9099
:102930000FBE0F901F9018958081F4CF1F920F92B9
:102940000FB60F9211242F933F938F939F93AF93C2
:10295000BF9380919B0390919C03A0919D03B091A4
:102960009E033091800323E0230F2D3758F5019605
:10297000A11DB11D2093800380939B0390939C0322
:10298000A0939D03B0939E03809181039091820355
:10299000A0918303B09184030196A11DB11D809382
:1029A000810390938203A0938303B0938403BF9128
:1029B000AF919F918F913F912F910F900FBE0F90EC
:1029C0001F90189526E8230F0296A11DB11DD2CFA6
:1029D0001F920F920FB60F9211242F933F934F9394
:1029E0005F936F937F938F939F93AF93BF93EF9377
:1029F000FF93E0919F03F091A003309749F0A685E3
:102A0000B7858585968D91FF14C09C918923A1F48B
:102A1000FF91EF91BF91AF919F918F917F916F91B6
:102A20005F914F913F912F910F900FBE0F901F908C
:102A300018959C91892361F7A389B4899C91858914
:102A4000809589238C93868997890197F1F7608D0A
:102A5000718DA685B785558538E020E0CB010197BB
:102A6000F1F7822F90E095958795282F4C9145237B
:102A700009F02068315091F7868D81FD2095809175
:102A80007E0390E001968F73992730917F0338176A
:102A900099F0A0917E03B0E0A25CBC4F2C93809390
:102AA0007E03828D938D0197F1F7A389B4898C9170
:102AB0009589892B8C93ACCF868D8160868FF1CFE1
:102AC0001F920F920FB60F9211242F933F934F93A3
:102AD0005F936F937F938F939F93AF93BF93EF9386
:102AE000FF938091B900887F803609F44AC0F0F5E1
:102AF000883209F4A7C018F5803109F49BC0B8F4F6
:102B0000882309F4F9C0883009F494C0FF91EF914B
:102B1000BF91AF919F918F917F916F915F914F91F5
:102B20003F912F910F900FBE0F901F9018958831F5
:102B300009F488C0803251F78093F30314C08034C5
:102B400009F49DC040F48033B9F38833F9F68093DB
:102B5000F30385ECB0C0803509F485C0883509F4ED
:102B600096C0883499F60E949E0ED0CF883909F419
:102B70008CC038F5883729F050F4883611F080374A
:102B800029F683E08093F50310923D0357C08838FF
:102B900009F47BC0803919F0803809F0B7CF8091F3
:102BA0003D03803208F071C0E0913D0381E08E0F5B
:102BB00080933D038091BB00F0E0E35EFC4F808397
:102BC0003DC0803B39F0E0F4803A09F479C0883A9E
:102BD00009F09CCF84E08093F50310921A031092C1
:102BE0001903E0911703F0911803099580911903D7
:102BF00081110FC081E0809319031092F70209C080
:102C0000803C09F4A6CF883C09F4A3CF883B09F0A7
:102C10007DCFE0911A0381E08E0F80931A03F0E0DC
:102C2000E950FD4F80818093BB0090911A03809101
:102C3000190329C08091D0038093BB0085EC809359
:102C4000BC0064CF9091F2038091F103981758F57E
:102C5000E091F20381E08E0F8093F203F0E0EF52F7
:102C6000FC4F8081E9CFE091F20381E08E0F8093E9
:102C7000F2038091BB00F0E0EF52FC4F8083909113
:102C8000F2038091F1039817C8F285E8D8CFE0915C
:102C9000F20381E08E0F8093F2038091BB00F0E09D
:102CA000EF52FC4F80838091F40381115CCF81E06F
:102CB0008093CF0384EA8093BC001092F50326CF63
:102CC00085EC8093BC001092F50380913D03803227
:102CD00030F4E0913D03F0E0E35EFC4F1082609140
:102CE0003D0370E0E0911B03F0911C038DE193E044
:102CF000099510923D030ACF1092F30334CF1F922F
:102D00000F920FB60F9211242F933F934F935F931F
:102D10006F937F938F939F93AF93BF93CF93DF93E3
:102D2000EF93FF938091D302C091B205D0E087FF6B
:102D300024C010928500109284008091D3028F5F8E
:102D40008093D3028091D302082E000C990B8C172C
:102D50009D0724F48091D3028C30C4F180918400CB
:102D600090918500049680349C4908F47AC0809143
:102D7000840090918500049676C08091D302082E3D
:102D8000000C990B8C179D07C4F6E091D3028E2F8F
:102D9000EE0F990BFC01EE0FFF1FE80FF91FE25732
:102DA000FA4F808186FFC9CFE091D3028E2FEE0FBC
:102DB000990BFC01EE0FFF1FE80FF91FE257FA4FC6
:102DC000808160E08F730E94D602B7CF209184008B
:102DD00030918500E091D3028E2FEE0F990BFC010C
:102DE000EE0FFF1FE80FF91FE257FA4F8181928122
:102DF000820F931F9093890080938800E091D30203
:102E00008E2FEE0F990BFC01EE0FFF1FE80FF91F3D
:102E1000E257FA4F808186FF11C0E091D3028E2FD6
:102E2000EE0F990BFC01EE0FFF1FE80FF91FE257A1
:102E3000FA4F808161E08F730E94D602FF91EF917B
:102E4000DF91CF91BF91AF919F918F917F916F91C2
:102E50005F914F913F912F910F900FBE0F901F9058
:102E6000189580E49CE990938900809388008FEF07
:102E70008093D302E3CF109222041092210448EEF3
:102E800053E060E070E04093230450932404609387
:102E90002504709326048FE191E0909320048093A1
:102EA0001F0485EC90E090932C0480932B0484EC19
:102EB00090E090932E0480932D0480EC90E090930A
:102EC000300480932F0481EC90E09093320480933F
:102ED000310482EC90E0909334048093330486ECC8
:102EE00090E0909336048093350410923804109249
:102EF000390410923A0410923B048CEB94E0109247
:102F0000FD041092FC04909300058093FF0420E4DC
:102F100030E03093020520930105109203051092D2
:102F200004051092060510920505109207051092EF
:102F300009051092080510920B0510920A051092CF
:102F40000D0510920C0510920F0510920E051092AF
:102F5000110510921005109213051092120510928F
:102F600015051092140510921B0510921A05109267
:102F70001D0510921C0510921F0510921E0510923F
:102F800021051092200510922F0510922E05109207
:102F9000FE0410923C0510923E0510923D051092E1
:102FA00081052CE830E0309323052093220526E9A3
:102FB00030E0309325052093240520EA30E030935B
:102FC0002705209326052AEA30E03093290520932F
:102FD000280524EB30E030932B0520932A052EEBB7
:102FE00030E030932D0520932C0528EC30E0309311
:102FF00031052093300529EC30E0309333052093E0
:10300000320527E037E0309335052093340590935F
:1030100017058093160522EC31E030933705209395
:103020003605909319058093180584ED90E09093F0
:1030300039058093380510928505109284054093D8
:10304000860550938705609388057093890581E311
:1030500091E0909383058093820583E491E09093BF
:10306000D8058093D7051092FB051092FA051092AF
:10307000FD051092FC051092FF051092FE051092BE
:103080000106109200068FEF8093F905E3EBF5E05F
:103090002FEF48EB5BE08091B2058C30B8F491E003
:1030A000980F9093B205808390E0DC01AA0FBB1FBC
:1030B000A80FB91FA257BA4F12965C934E9311975F
:1030C000339685E0E73DF80731F708952083F8CF80
:1030D000789484B5826084BD84B5816084BD85B5F3
:1030E000826085BD85B5816085BD80916E008160FF
:1030F00080936E00109281008091810082608093A5
:1031000081008091810081608093810080918000A6
:103110008160809380008091B10084608093B100D1
:103120008091B00081608093B00080917A008460CB
:1031300080937A0080917A00826080937A008091F7
:103140007A00816080937A0080917A008068809311
:103150007A001092C10089E180933C0580913D0581
:1031600090913E050E94BB1DC0913C05D0E0CE0170
:1031700001960E941F1D90933E0580933D05FC0122
:10318000EC0FFD1F108222E0DC012C9325E011964C
:103190002C93AE01425051096FE472E002960E94F6
:1031A000441E84E49AE09093900380938F0388E90F
:1031B00099E090938E0380938D038BE699E0909332
:1031C0008C0380938B0389EB9BE090938A0380931D
:1031D000890386ED9EE0909388038093870382E6BF
:1031E0009BE0909386038093850387EC91E1909315
:1031F0009203809391038DE390E1909394038093E5
:10320000930381E08093810540E051EE60E070E03F
:103210008FE194E00E9438018091810581114FC0B7
:1032200061E08DE00E94220362ED70E080E090E0BA
:103230000E94FD0361E08DE00E94D60268E270E02A
:1032400080E090E00E94FD0360E08DE00E94D602E5
:1032500062ED70E080E090E00E94FD0361E08DE0AF
:103260000E94D60268E270E080E090E00E94FD03D8
:1032700060E08DE00E94D6026AEF70E080E090E0AE
:103280000E94FD03C5E062ED70E080E090E00E94E6
:10329000FD0361E08DE00E94D60268E270E080E00C
:1032A00090E00E94FD0360E08DE00E94D602C150D4
:1032B00051F76DE770E080E090E00E94FD038FE140
:1032C00094E090933B0580933A059093FD0480939E
:1032D000FC048CEF94E00E9498018CEB94E00E9437
:1032E00093060E943D1025E0922E00E010E0882415
:1032F000839432E0E32EF12CCC24C394D12C809122
:103300009803882349F069B18091950368236C7F05
:1033100040E080E00E94770B80919903882379F048
:1033200063B186B16F73B0E48B9FC0011124682B29
:1033300080919603682340E081E00E94770B8091A2
:103340009A03882359F066B1809197038F70669530
:103350006695682340E082E00E94770B80913A05F1
:1033600090913B05DC01ED91FC910084F185E02D0D
:103370000995892B09F4CEC180913A0590913B05BE
:10338000DC01ED91FC910284F385E02D09959C010F
:103390008F3F980719F3982F80910705882309F428
:1033A00092C0973F09F07EC010920705A091FF04DC
:1033B000B09100056C916137C1F1693709F05CC0CB
:1033C000E0913405F0913505309741F28091080580
:1033D000909109058330910560F430E020E050E0E1
:1033E00040E070E060E08091160590911705099526
:1033F000B5CFBD016D5F7F4F03970E941901BC01DE
:103400006D5F7F4F80E00E94E900E091FF04F09142
:1034100000059F012D5F3F4F428150E0618170E0C8
:10342000E0913405F0913505DECF80913005909123
:103430003105892B09F492CFBD016F5F7F4F8091D9
:1034400008059091090501970E941901BC016F5F61
:103450007F4F80E00E94E9006091FF0470910005B9
:103460006F5F7F4FE0913005F091310580911C0531
:1034700090911D05099572CFE0913205F0913305C9
:10348000309709F46BCF9D012F5F3F4F40910805A6
:10349000509109054150510980911E0590911F05D9
:1034A00009955CCF6091080570910905822F0E94F3
:1034B000E90080910805909109050196909309050E
:1034C000809308054BCF6091050570910605611545
:1034D000710509F4B1C027FDAFC061507109709347
:1034E000060560930505822F0E94E900809105057D
:1034F00090910605892B09F031CF8091030588232F
:1035000009F42CCF803D09F483C040F4803949F19F
:10351000803C09F469C01092030520CF843FE1F19B
:10352000853F09F44DC0803EB1F7E0912205F0914E
:103530002305309781F3A091FF04B09100054C91D1
:1035400020E8429FC001112411964C91480F592F39
:10355000511D6091040580910A0590910B05099514
:10356000DACFE0912405F09125053097A1F2A091E2
:10357000FF04B09100054C9120E8429FC001112446
:1035800011964C91480F592F511D6091040580915F
:103590000C0590910D05E3CFE0912A05F0912B05E4
:1035A000309709F4B8CFA091FF04B09100054C9179
:1035B00050E011966C918091120590911305CFCF38
:1035C000E0912C05F0912D05309709F4A4CFA0913E
:1035D000FF04B09100054C9150E011966C918091E0
:1035E000140590911505BBCFE0912605F0912705B4
:1035F000309709F490CFA091FF04B09100054C9151
:1036000050E06091040580910E0590910F05A7CFC1
:10361000E0912805F0912905309709F47CCFA0911D
:10362000FF04B09100054C9150E060910405809139
:1036300010059091110593CF903F30F4822F8F7039
:1036400080930405922F907F903FF1F190F4903C8D
:10365000B1F150F4903909F081CEF0920605E09274
:103660000505909303057ACE903D49F1903EA9F36C
:1036700075CE993F09F442C028F48CE0890F82305E
:1036800060F36CCE9F3F09F069CE10920605109250
:103690000505109203051092040590E080E020914A
:1036A00001053091020582179307A8F4E091FF0409
:1036B000F0910005E80FF91F10820196F0CFD0922B
:1036C0000605C0920505CDCF809207051092090529
:1036D0001092080543CE109207051092090510922A
:1036E0000805E0913805F091390580912005909109
:1036F0002105309709F432CE099530CEE091360598
:10370000F0913705309709F429CE809118059091F2
:103710001905F2CF8FB7F89440909B0350909C030B
:1037200060909D0370909E038FBF8091CB0390911A
:10373000CC03A091CD03B091CE03409101015091F3
:10374000020170E060E0481A590A6A0A7B0A4415CF
:1037500055056605770508F051C0840F951FA61F13
:10376000B71F8093CB039093CC03A093CD03B0936A
:10377000CE039CEBA92E94E0B92EC2EFC830C8F45A
:10378000F501ED57FF4F8081823099F48091C90394
:103790009091CA030C2E02C0959587950A94E2F782
:1037A00080FF07C08C2F0E94C303BC018C2F0E9496
:1037B000E605CF5F8FEFA81AB80AC830F9F68091F6
:1037C000000187FD1BC0C0E02C2F30E0809100017C
:1037D000082E000C990B8217930784F0929EF0013B
:1037E000939EF00D1124EF55FC4F6181728124816D
:1037F000438180810E948B10CF5FE6CF8091F905D5
:1038000087FD74C0612C862D90E02091F905022E71
:10381000000C330B281739070CF468C089529A4FF3
:10382000DC0112967C90672D87ED95E00E941D05C6
:10383000EC01892B09F458C0B7E0B71540F480912A
:103840009F039091A003C817D90709F04DC0E72D39
:10385000F0E0EE0FFF1FEF51FA4FA080B180E8813A
:10386000F9810084F185E02DCE010995181619061D
:10387000DCF580EF0E94DC0080E60E94DC00872DF2
:1038800080640E94DC00A114B10401F5E881F98193
:103890000084F185E02DCE0109955C011A141B040A
:1038A00004F5E881F9810284F385E02DCE010995C4
:1038B000782E8F770E94DC00872D881F8827881F2D
:1038C0000E94DC00E1E0AE1AB108E8CFE881F9819E
:1038D0000084F185E02DCE010995A816B906B4F64D
:1038E000DDCF87EF0E94DC0063948DCF01151105B9
:1038F00009F405CD0E943302882309F400CD0E940B
:103900000000FDCC052E97FB1EF400940E94991C2C
:1039100057FD07D00E94B41C07FC03D04EF40C9452
:10392000991C50954095309521953F4F4F4F5F4FD3
:10393000089590958095709561957F4F8F4F9F4F1B
:1039400008950E94D61CA59F900DB49F900DA49F32
:10395000800D911D11240895B7FF0C94A11C0E94A5
:10396000A11C821B930B0895A1E21A2EAA1BBB1B5C
:10397000FD010DC0AA1FBB1FEE1FFF1FA217B3073B
:10398000E407F50720F0A21BB30BE40BF50B661F51
:10399000771F881F991F1A9469F760957095809515
:1039A00090959B01AC01BD01CF010895A29FB0018C
:1039B000B39FC001A39F700D811D1124911DB29F63
:1039C000700D811D1124911D0895991B79E004C08B
:1039D000991F961708F0961B881F7A95C9F780954E
:1039E000089597FB072E16F4009407D077FD09D0B1
:1039F0000E940B1D07FC05D03EF4909581959F4FCA
:103A00000895709561957F4F0895EE0FFF1F059003
:103A1000F491E02D0994AA1BBB1B51E107C0AA1F1A
:103A2000BB1FA617B70710F0A61BB70B881F991F5F
:103A30005A95A9F780959095BC01CD0108950F93F3
:103A40001F93CF93DF938230910510F482E090E0D2
:103A5000E0910406F091050630E020E0B0E0A0E03F
:103A6000309799F42115310509F44AC0281B390B08
:103A700024303105D8F58A819B816115710589F162
:103A8000FB0193838283FE0111C040815181028139
:103A9000138148175907E0F04817590799F4109710
:103AA00061F012960C93129713961C933296CF01E5
:103AB000DF91CF911F910F91089500930406109309
:103AC0000506F4CF2115310551F04217530738F0A0
:103AD000A901DB019A01BD01DF01F801C1CFEF01AE
:103AE000F9CF9093050680930406CDCFFE01E20F37
:103AF000F31F819391932250310939832883D7CFC3
:103B00002091020630910306232B41F420910501F8
:103B100030910601309303062093020620910301A1
:103B2000309104012115310541F42DB73EB7409184
:103B3000070150910801241B350BE0910206F0911A
:103B40000306E217F307A0F42E1B3F0B28173907D3
:103B500078F0AC014E5F5F4F2417350748F04E0FE9
:103B60005F1F5093030640930206819391939FCF6A
:103B7000F0E0E0E09CCFCF93DF930097E9F0FC0109
:103B8000329713821282A0910406B0910506ED01CE
:103B900030E020E01097A1F420813181820F931F43
:103BA00020910206309103062817390709F061C0F9
:103BB000F0930306E0930206DF91CF910895EA01A6
:103BC000CE17DF07E8F54A815B819E01411551055B
:103BD000B1F7E901FB83EA8349915991C40FD51FDD
:103BE000EC17FD0761F4808191810296840F951F87
:103BF000E90199838883828193819B838A83F0E0A2
:103C0000E0E012968D919C9113970097B9F52D9154
:103C10003C911197CD010296820F931F20910206CD
:103C2000309103062817390739F6309751F510926D
:103C3000050610920406B0930306A0930206BCCFBB
:103C4000D383C28340815181840F951FC817D90740
:103C500061F44E5F5F4F88819981480F591F5183EE
:103C600040838A819B81938382832115310509F0EA
:103C7000B0CFF0930506E09304069ECFFD01DC0172
:103C8000C0CF13821282D7CFFB01DC0141505040DC
:103C900048F001900D920020C9F701C01D924150DB
:0A3CA0005040E0F70895F894FFCFBC
:103CAA00FF1300000006068000000000004904C956
:103CBA0001E9084804A504BD0430040000000069B5
:103CCA0002C901F601B60227020502190200000024
:103CDA0000BA088D08E908480486087308640800D1
:103CEA00000000360537057D0C5F0C4D61782073A6
:103CFA006572766F732061747461636865640053DA
:103D0A007065636966792073657269616C205258BF
:103D1A0020616E642054582070696E7300556E6B72
:103D2A006E6F776E2070696E206D6F646500493220
:103D3A00433A20546F6F206D616E79206279746501
:103D4A0073207265636569766564004932433A2077
:103D5A00546F6F2066657720627974657320726587
:103D6A006365697665640031302D62697420616427
:103D7A006472657373696E67206E6F7420737570F1
:103D8A00706F7274656400746F6F206D616E792054
:103D9A0071756572696573002F4170706C69636132
:103DAA0074696F6E732F41726475696E6F2E6170DC
:103DBA00702F436F6E74656E74732F4A6176612F2C
:103DCA006C69627261726965732F4669726D61749A
:103DDA00612F6578616D706C65732F5374616E64C1
:103DEA006172644669726D617461506C75732F53A8
:103DFA0074616E646172644669726D617461506C5B
:083E0A0075732E696E6F000054
:00000001FF
